{
  "contractName": "DefiOptionsSeed",
  "abi": [
    {
      "constant": true,
      "inputs": [],
      "name": "rate",
      "outputs": [
        {
          "internalType": "uint256",
          "name": "",
          "type": "uint256"
        }
      ],
      "payable": false,
      "stateMutability": "view",
      "type": "function"
    },
    {
      "constant": true,
      "inputs": [],
      "name": "weiRaised",
      "outputs": [
        {
          "internalType": "uint256",
          "name": "",
          "type": "uint256"
        }
      ],
      "payable": false,
      "stateMutability": "view",
      "type": "function"
    },
    {
      "constant": true,
      "inputs": [],
      "name": "wallet",
      "outputs": [
        {
          "internalType": "address payable",
          "name": "",
          "type": "address"
        }
      ],
      "payable": false,
      "stateMutability": "view",
      "type": "function"
    },
    {
      "constant": false,
      "inputs": [
        {
          "internalType": "address",
          "name": "beneficiary",
          "type": "address"
        }
      ],
      "name": "buyTokens",
      "outputs": [],
      "payable": true,
      "stateMutability": "payable",
      "type": "function"
    },
    {
      "constant": true,
      "inputs": [],
      "name": "token",
      "outputs": [
        {
          "internalType": "contract IERC20",
          "name": "",
          "type": "address"
        }
      ],
      "payable": false,
      "stateMutability": "view",
      "type": "function"
    },
    {
      "inputs": [
        {
          "internalType": "uint256",
          "name": "rate",
          "type": "uint256"
        },
        {
          "internalType": "address payable",
          "name": "wallet",
          "type": "address"
        },
        {
          "internalType": "contract IERC20",
          "name": "token",
          "type": "address"
        },
        {
          "internalType": "uint256",
          "name": "relativeCap",
          "type": "uint256"
        }
      ],
      "payable": false,
      "stateMutability": "nonpayable",
      "type": "constructor"
    },
    {
      "payable": true,
      "stateMutability": "payable",
      "type": "fallback"
    },
    {
      "anonymous": false,
      "inputs": [
        {
          "indexed": true,
          "internalType": "address",
          "name": "purchaser",
          "type": "address"
        },
        {
          "indexed": true,
          "internalType": "address",
          "name": "beneficiary",
          "type": "address"
        },
        {
          "indexed": false,
          "internalType": "uint256",
          "name": "value",
          "type": "uint256"
        },
        {
          "indexed": false,
          "internalType": "uint256",
          "name": "amount",
          "type": "uint256"
        }
      ],
      "name": "TokensPurchased",
      "type": "event"
    },
    {
      "constant": true,
      "inputs": [
        {
          "internalType": "address",
          "name": "beneficiary",
          "type": "address"
        }
      ],
      "name": "getContribution",
      "outputs": [
        {
          "internalType": "uint256",
          "name": "",
          "type": "uint256"
        }
      ],
      "payable": false,
      "stateMutability": "view",
      "type": "function"
    }
  ],
  "bytecode": "0x608060405234801561001057600080fd5b506040516112c23803806112c28339818101604052608081101561003357600080fd5b810190808051906020019092919080519060200190929190805190602001909291908051906020019092919050505083838360016000806101000a81548160ff021916908315150217905550600083116100f5576040517f08c379a00000000000000000000000000000000000000000000000000000000081526004018080602001828103825260148152602001807f43726f776473616c653a2072617465206973203000000000000000000000000081525060200191505060405180910390fd5b600073ffffffffffffffffffffffffffffffffffffffff168273ffffffffffffffffffffffffffffffffffffffff16141561017b576040517f08c379a000000000000000000000000000000000000000000000000000000000815260040180806020018281038252602581526020018061129d6025913960400191505060405180910390fd5b600073ffffffffffffffffffffffffffffffffffffffff168173ffffffffffffffffffffffffffffffffffffffff161415610201576040517f08c379a00000000000000000000000000000000000000000000000000000000081526004018080602001828103825260248152602001806112796024913960400191505060405180910390fd5b8260028190555081600160006101000a81548173ffffffffffffffffffffffffffffffffffffffff021916908373ffffffffffffffffffffffffffffffffffffffff16021790555080600060016101000a81548173ffffffffffffffffffffffffffffffffffffffff021916908373ffffffffffffffffffffffffffffffffffffffff16021790555050505050505050610fd9806102a06000396000f3fe6080604052600436106100555760003560e01c806321eff7fc146100675780632c4e722e146100cc5780634042b66f146100f7578063521eb27314610122578063ec8ac4d814610179578063fc0c546a146101bd575b610065610060610214565b61021c565b005b34801561007357600080fd5b506100b66004803603602081101561008a57600080fd5b81019080803573ffffffffffffffffffffffffffffffffffffffff1690602001909291905050506103a7565b6040518082815260200191505060405180910390f35b3480156100d857600080fd5b506100e16103f0565b6040518082815260200191505060405180910390f35b34801561010357600080fd5b5061010c6103fa565b6040518082815260200191505060405180910390f35b34801561012e57600080fd5b50610137610404565b604051808273ffffffffffffffffffffffffffffffffffffffff1673ffffffffffffffffffffffffffffffffffffffff16815260200191505060405180910390f35b6101bb6004803603602081101561018f57600080fd5b81019080803573ffffffffffffffffffffffffffffffffffffffff16906020019092919050505061021c565b005b3480156101c957600080fd5b506101d261042e565b604051808273ffffffffffffffffffffffffffffffffffffffff1673ffffffffffffffffffffffffffffffffffffffff16815260200191505060405180910390f35b600033905090565b6000809054906101000a900460ff1661029d576040517f08c379a000000000000000000000000000000000000000000000000000000000815260040180806020018281038252601f8152602001807f5265656e7472616e637947756172643a207265656e7472616e742063616c6c0081525060200191505060405180910390fd5b60008060006101000a81548160ff02191690831515021790555060003490506102c68282610457565b60006102d182610605565b90506102e88260035461062390919063ffffffff16565b6003819055506102f883826106ab565b8273ffffffffffffffffffffffffffffffffffffffff16610317610214565b73ffffffffffffffffffffffffffffffffffffffff167f6faf93231a456e552dbc9961f58d9713ee4f2e69d15f1975b050ef0911053a7b8484604051808381526020018281526020019250505060405180910390a361037683836106b9565b61037e61075c565b61038883836107c7565b505060016000806101000a81548160ff02191690831515021790555050565b6000600460008373ffffffffffffffffffffffffffffffffffffffff1673ffffffffffffffffffffffffffffffffffffffff168152602001908152602001600020549050919050565b6000600254905090565b6000600354905090565b6000600160009054906101000a900473ffffffffffffffffffffffffffffffffffffffff16905090565b60008060019054906101000a900473ffffffffffffffffffffffffffffffffffffffff16905090565b61046182826107cb565b600061046c836108cc565b90506000610479826109a6565b90506002600381111561048857fe5b81600381111561049457fe5b146104ea576040517f08c379a000000000000000000000000000000000000000000000000000000000815260040180806020018281038252602c815260200180610f18602c913960400191505060405180910390fd5b692a5a058fc295ed00000082101561054d576040517f08c379a000000000000000000000000000000000000000000000000000000000815260040180806020018281038252602f815260200180610e9e602f913960400191505060405180910390fd5b670de0b6b3a76400006105a884600460008873ffffffffffffffffffffffffffffffffffffffff1673ffffffffffffffffffffffffffffffffffffffff1681526020019081526020016000205461062390919063ffffffff16565b11156105ff576040517f08c379a0000000000000000000000000000000000000000000000000000000008152600401808060200182810382526037815260200180610f446037913960400191505060405180910390fd5b50505050565b600061061c60025483610a5b90919063ffffffff16565b9050919050565b6000808284019050838110156106a1576040517f08c379a000000000000000000000000000000000000000000000000000000000815260040180806020018281038252601b8152602001807f536166654d6174683a206164646974696f6e206f766572666c6f77000000000081525060200191505060405180910390fd5b8091505092915050565b6106b58282610ae1565b5050565b6106c38282610b32565b61071581600460008573ffffffffffffffffffffffffffffffffffffffff1673ffffffffffffffffffffffffffffffffffffffff1681526020019081526020016000205461062390919063ffffffff16565b600460008473ffffffffffffffffffffffffffffffffffffffff1673ffffffffffffffffffffffffffffffffffffffff168152602001908152602001600020819055505050565b600160009054906101000a900473ffffffffffffffffffffffffffffffffffffffff1673ffffffffffffffffffffffffffffffffffffffff166108fc349081150290604051600060405180830381858888f193505050501580156107c4573d6000803e3d6000fd5b50565b5050565b600073ffffffffffffffffffffffffffffffffffffffff168273ffffffffffffffffffffffffffffffffffffffff161415610851576040517f08c379a000000000000000000000000000000000000000000000000000000000815260040180806020018281038252602a815260200180610eee602a913960400191505060405180910390fd5b60008114156108c8576040517f08c379a00000000000000000000000000000000000000000000000000000000081526004018080602001828103825260198152602001807f43726f776473616c653a20776569416d6f756e7420697320300000000000000081525060200191505060405180910390fd5b5050565b600080731c7ede23b1361acc098a1e357c9085d131b34a0190508073ffffffffffffffffffffffffffffffffffffffff166370a08231846040518263ffffffff1660e01b8152600401808273ffffffffffffffffffffffffffffffffffffffff1673ffffffffffffffffffffffffffffffffffffffff16815260200191505060206040518083038186803b15801561096357600080fd5b505afa158015610977573d6000803e3d6000fd5b505050506040513d602081101561098d57600080fd5b8101908080519060200190929190505050915050919050565b600069032d26d12e980b60000082101580156109cb5750690a968163f0a57b40000082105b156109d95760009050610a56565b690a968163f0a57b40000082101580156109fc5750692a5a058fc295ed00000082105b15610a0a5760019050610a56565b692a5a058fc295ed0000008210158015610a2d57506954b40b1f852bda00000082105b15610a3b5760029050610a56565b6954b40b1f852bda0000008210610a555760039050610a56565b5b919050565b600080831415610a6e5760009050610adb565b6000828402905082848281610a7f57fe5b0414610ad6576040517f08c379a0000000000000000000000000000000000000000000000000000000008152600401808060200182810382526021815260200180610ecd6021913960400191505060405180910390fd5b809150505b92915050565b610b2e8282600060019054906101000a900473ffffffffffffffffffffffffffffffffffffffff1673ffffffffffffffffffffffffffffffffffffffff16610b369092919063ffffffff16565b5050565b5050565b610c02838473ffffffffffffffffffffffffffffffffffffffff1663a9059cbb905060e01b8484604051602401808373ffffffffffffffffffffffffffffffffffffffff1673ffffffffffffffffffffffffffffffffffffffff16815260200182815260200192505050604051602081830303815290604052907bffffffffffffffffffffffffffffffffffffffffffffffffffffffff19166020820180517bffffffffffffffffffffffffffffffffffffffffffffffffffffffff8381831617835250505050610c07565b505050565b610c268273ffffffffffffffffffffffffffffffffffffffff16610e52565b610c98576040517f08c379a000000000000000000000000000000000000000000000000000000000815260040180806020018281038252601f8152602001807f5361666545524332303a2063616c6c20746f206e6f6e2d636f6e74726163740081525060200191505060405180910390fd5b600060608373ffffffffffffffffffffffffffffffffffffffff16836040518082805190602001908083835b60208310610ce75780518252602082019150602081019050602083039250610cc4565b6001836020036101000a0380198251168184511680821785525050505050509050019150506000604051808303816000865af19150503d8060008114610d49576040519150601f19603f3d011682016040523d82523d6000602084013e610d4e565b606091505b509150915081610dc6576040517f08c379a00000000000000000000000000000000000000000000000000000000081526004018080602001828103825260208152602001807f5361666545524332303a206c6f772d6c6576656c2063616c6c206661696c656481525060200191505060405180910390fd5b600081511115610e4c57808060200190516020811015610de557600080fd5b8101908080519060200190929190505050610e4b576040517f08c379a000000000000000000000000000000000000000000000000000000000815260040180806020018281038252602a815260200180610f7b602a913960400191505060405180910390fd5b5b50505050565b60008060007fc5d2460186f7233c927e7db2dcc703c0e500b653ca82273b7bfad8045d85a47060001b9050833f9150808214158015610e9457506000801b8214155b9250505091905056fe4d696e696d756d20616d6f756e74206e656564656420666f7220736565642073616c65206973203230306b2053484e536166654d6174683a206d756c7469706c69636174696f6e206f766572666c6f7743726f776473616c653a2062656e656669636961727920697320746865207a65726f2061646472657373596f75206e65656420746f20626520546965723320696e206f7264657220746f207061727469636970617465496e646976696475616c6c7943617070656443726f776473616c653a2062656e65666963696172792773206361702065786365656465645361666545524332303a204552433230206f7065726174696f6e20646964206e6f742073756363656564a265627a7a72315820dc91a10ebe818ca72b3368d8936456fdad6c57dc485b1b29df6e3304f18c3d8b64736f6c634300050b003243726f776473616c653a20746f6b656e20697320746865207a65726f206164647265737343726f776473616c653a2077616c6c657420697320746865207a65726f2061646472657373",
  "source": "pragma solidity ^0.5.11;\nimport \"@openzeppelin/contracts/crowdsale/Crowdsale.sol\";\nimport \"@openzeppelin/contracts/token/ERC20/IERC20.sol\";\n\ncontract DefiOptionsSeed is Crowdsale {\n    using SafeMath for uint256;\n    mapping(address => uint256) private _contributions;\n    enum Tiers { Tier1, Tier2, Tier3, Tier4 }\n\n    constructor(\n        uint256 rate,\n        address payable wallet,\n        IERC20 token,\n        uint256 relativeCap\n    ) public Crowdsale(rate, wallet, token) {}\n\n    function getShineTokenBalance(address beneficiary) internal view returns (uint256) {\n        IERC20 shineToken = IERC20(0x1C7ede23b1361acC098A1e357C9085D131b34a01);\n        return shineToken.balanceOf(beneficiary);\n    }\n\n    function getTier(uint256 shineBalance) internal view returns (Tiers){\n        if(shineBalance >= 15000000000000000000000 && shineBalance < 50000000000000000000000){\n            return Tiers.Tier1;\n        }else if(shineBalance >= 50000000000000000000000 && shineBalance < 200000000000000000000000){\n            return Tiers.Tier2;\n        }else if(shineBalance >= 200000000000000000000000 && shineBalance < 400000000000000000000000){\n            return Tiers.Tier3;\n        }else if (shineBalance >= 400000000000000000000000){\n            return Tiers.Tier4;\n        }\n    }\n\n    function getContribution(address beneficiary) public view returns (uint256) {\n        return _contributions[beneficiary];\n    }\n\n    function _preValidatePurchase(address beneficiary, uint256 weiAmount) internal view {\n        super._preValidatePurchase(beneficiary, weiAmount);\n        uint256 shineBalance = getShineTokenBalance(beneficiary);\n        Tiers tier = getTier(shineBalance);\n        require(tier == Tiers.Tier3, \"You need to be Tier3 in order to participate\");\n        require(shineBalance >= 200000000000000000000000, \"Minimum amount needed for seed sale is 200k SHN\");\n        //require(shineBalance);\n        require(_contributions[beneficiary].add(weiAmount) <= 1000000000000000000, \"IndividuallyCappedCrowdsale: beneficiary's cap exceeded\");\n        //require(weiAmount <= 1000000000000000000);\n        // solhint-disable-next-line max-line-length\n        //require(_contributions[beneficiary].add(weiAmount) <= _caps[beneficiary], \"IndividuallyCappedCrowdsale: beneficiary's cap exceeded\");\n    }\n\n     function _updatePurchasingState(address beneficiary, uint256 weiAmount) internal {\n        super._updatePurchasingState(beneficiary, weiAmount);\n        _contributions[beneficiary] = _contributions[beneficiary].add(weiAmount);\n    }\n\n}\n\n//https://ethereum.stackexchange.com/questions/25089/allocating-unsold-tokens-at-the-end-of-a-crowdsale-to-a-specific-address\n",
  "sourcePath": "/Users/jdoe/Documents/Projects/ERC20/contracts/Projects/DefiOptions/DefiOptionsSeed.sol",
  "compiler": {
    "name": "solc",
    "version": "0.5.11+commit.c082d0b4.Emscripten.clang"
  },
  "schemaVersion": "3.3.4",
  "updatedAt": "2021-06-07T12:50:11.615Z",
  "networkType": "ethereum",
  "devdoc": {
    "methods": {
      "buyTokens(address)": {
        "details": "low level token purchase ***DO NOT OVERRIDE*** This function has a non-reentrancy guard, so it shouldn't be called by another `nonReentrant` function.",
        "params": {
          "beneficiary": "Recipient of the token purchase"
        }
      },
      "rate()": {
        "return": "the number of token units a buyer gets per wei."
      },
      "token()": {
        "return": "the token being sold."
      },
      "wallet()": {
        "return": "the address where funds are collected."
      },
      "weiRaised()": {
        "return": "the amount of wei raised."
      }
    }
  },
  "userdoc": {
    "methods": {}
  }
}