{
  "_format": "hh-sol-artifact-1",
  "contractName": "GeneralCheckpoint",
  "sourceName": "contracts/Staking/GeneralCheckpoint.sol",
  "abi": [
    {
      "inputs": [
        {
          "internalType": "address",
          "name": "initalRewardAddress",
          "type": "address"
        }
      ],
      "stateMutability": "nonpayable",
      "type": "constructor"
    },
    {
      "anonymous": false,
      "inputs": [
        {
          "indexed": false,
          "internalType": "address",
          "name": "dataAddress",
          "type": "address"
        }
      ],
      "name": "LogAddress",
      "type": "event"
    },
    {
      "anonymous": false,
      "inputs": [
        {
          "indexed": false,
          "internalType": "address",
          "name": "checkpointAddress",
          "type": "address"
        }
      ],
      "name": "LogAddress1",
      "type": "event"
    },
    {
      "anonymous": false,
      "inputs": [
        {
          "indexed": false,
          "internalType": "address",
          "name": "addressToDelete",
          "type": "address"
        }
      ],
      "name": "LogAddress2",
      "type": "event"
    },
    {
      "anonymous": false,
      "inputs": [
        {
          "indexed": true,
          "internalType": "address",
          "name": "previousOwner",
          "type": "address"
        },
        {
          "indexed": true,
          "internalType": "address",
          "name": "newOwner",
          "type": "address"
        }
      ],
      "name": "OwnershipTransferred",
      "type": "event"
    },
    {
      "inputs": [
        {
          "internalType": "address",
          "name": "newAddress",
          "type": "address"
        }
      ],
      "name": "addRewardAddress",
      "outputs": [
        {
          "internalType": "address[]",
          "name": "",
          "type": "address[]"
        }
      ],
      "stateMutability": "nonpayable",
      "type": "function"
    },
    {
      "inputs": [
        {
          "internalType": "address",
          "name": "userAddr",
          "type": "address"
        }
      ],
      "name": "checkpointUserToAllContracts",
      "outputs": [],
      "stateMutability": "nonpayable",
      "type": "function"
    },
    {
      "inputs": [
        {
          "internalType": "uint256",
          "name": "",
          "type": "uint256"
        }
      ],
      "name": "data",
      "outputs": [
        {
          "internalType": "address",
          "name": "",
          "type": "address"
        }
      ],
      "stateMutability": "view",
      "type": "function"
    },
    {
      "inputs": [
        {
          "internalType": "address",
          "name": "oldAddress",
          "type": "address"
        }
      ],
      "name": "deleteRewardAddress",
      "outputs": [
        {
          "internalType": "address[]",
          "name": "",
          "type": "address[]"
        }
      ],
      "stateMutability": "nonpayable",
      "type": "function"
    },
    {
      "inputs": [],
      "name": "getCount",
      "outputs": [
        {
          "internalType": "uint256",
          "name": "count",
          "type": "uint256"
        }
      ],
      "stateMutability": "view",
      "type": "function"
    },
    {
      "inputs": [],
      "name": "owner",
      "outputs": [
        {
          "internalType": "address",
          "name": "",
          "type": "address"
        }
      ],
      "stateMutability": "view",
      "type": "function"
    },
    {
      "inputs": [],
      "name": "renounceOwnership",
      "outputs": [],
      "stateMutability": "nonpayable",
      "type": "function"
    },
    {
      "inputs": [
        {
          "internalType": "address",
          "name": "newOwner",
          "type": "address"
        }
      ],
      "name": "transferOwnership",
      "outputs": [],
      "stateMutability": "nonpayable",
      "type": "function"
    }
  ],
  "bytecode": "0x608060405234801561001057600080fd5b50604051610d9c380380610d9c83398101604081905261002f916100c4565b600080546001600160a01b031916339081178255604051909182917f8be0079c531659141344cd1fd0a4f28419497f9722a3daafe3b4186f6b6457e0908290a3506001805480820182556000919091527fb10e2d527612073b26eecdfd717e6a320cf44b4afac2b0732d9fcbe2b7fa0cf60180546001600160a01b0319166001600160a01b03929092169190911790556100f4565b6000602082840312156100d657600080fd5b81516001600160a01b03811681146100ed57600080fd5b9392505050565b610c99806101036000396000f3fe608060405234801561001057600080fd5b50600436106100885760003560e01c8063a87d942c1161005b578063a87d942c1461010e578063b4be506e1461011f578063f0ba844014610132578063f2fde38b1461014557600080fd5b80636b435e9c1461008d578063715018a6146100a25780638da5cb5b146100aa57806397ddbd5c146100ee575b600080fd5b6100a061009b366004610abe565b610158565b005b6100a0610223565b60005473ffffffffffffffffffffffffffffffffffffffff165b60405173ffffffffffffffffffffffffffffffffffffffff90911681526020015b60405180910390f35b6101016100fc366004610abe565b610318565b6040516100e59190610afb565b6001546040519081526020016100e5565b61010161012d366004610abe565b6105f8565b6100c4610140366004610b55565b6108d6565b6100a0610153366004610abe565b61090d565b60005b60015481101561021f5760006001828154811061017a5761017a610b6e565b6000918252602090912001546040517f9f8a835a00000000000000000000000000000000000000000000000000000000815273ffffffffffffffffffffffffffffffffffffffff858116600483015290911691508190639f8a835a90602401600060405180830381600087803b1580156101f357600080fd5b505af1158015610207573d6000803e3d6000fd5b5050505050808061021790610bcc565b91505061015b565b5050565b60005473ffffffffffffffffffffffffffffffffffffffff1633146102a9576040517f08c379a000000000000000000000000000000000000000000000000000000000815260206004820181905260248201527f4f776e61626c653a2063616c6c6572206973206e6f7420746865206f776e657260448201526064015b60405180910390fd5b6000805460405173ffffffffffffffffffffffffffffffffffffffff909116907f8be0079c531659141344cd1fd0a4f28419497f9722a3daafe3b4186f6b6457e0908390a3600080547fffffffffffffffffffffffff0000000000000000000000000000000000000000169055565b60005460609073ffffffffffffffffffffffffffffffffffffffff16331461039c576040517f08c379a000000000000000000000000000000000000000000000000000000000815260206004820181905260248201527f4f776e61626c653a2063616c6c6572206973206e6f7420746865206f776e657260448201526064016102a0565b60005b600154811015610588578273ffffffffffffffffffffffffffffffffffffffff16600182815481106103d3576103d3610b6e565b60009182526020909120015473ffffffffffffffffffffffffffffffffffffffff161415610576576001818154811061040e5761040e610b6e565b600091825260209091200180547fffffffffffffffffffffffff0000000000000000000000000000000000000000169055805b6001805461044f9190610c05565b81101561050b5760016104628382610c1c565b8154811061047257610472610b6e565b6000918252602090912001546001805473ffffffffffffffffffffffffffffffffffffffff90921691839081106104ab576104ab610b6e565b600091825260209091200180547fffffffffffffffffffffffff00000000000000000000000000000000000000001673ffffffffffffffffffffffffffffffffffffffff929092169190911790558061050381610bcc565b915050610441565b50600180548061051d5761051d610c34565b60008281526020902081017fffffffffffffffffffffffffffffffffffffffffffffffffffffffffffffffff90810180547fffffffffffffffffffffffff00000000000000000000000000000000000000001690550190555b8061058081610bcc565b91505061039f565b5060018054806020026020016040519081016040528092919081815260200182805480156105ec57602002820191906000526020600020905b815473ffffffffffffffffffffffffffffffffffffffff1681526001909101906020018083116105c1575b50505050509050919050565b60005460609073ffffffffffffffffffffffffffffffffffffffff16331461067c576040517f08c379a000000000000000000000000000000000000000000000000000000000815260206004820181905260248201527f4f776e61626c653a2063616c6c6572206973206e6f7420746865206f776e657260448201526064016102a0565b60005b6001548110156107ff578273ffffffffffffffffffffffffffffffffffffffff16600182815481106106b3576106b3610b6e565b60009182526020909120015473ffffffffffffffffffffffffffffffffffffffff1614156107ed577fb123f68b8ba02b447d91a6629e121111b7dd6061ff418a60139c8bf00522a2846001828154811061070f5761070f610b6e565b6000918252602091829020015460405173ffffffffffffffffffffffffffffffffffffffff90911681520160405180910390a160405173ffffffffffffffffffffffffffffffffffffffff841681527f38a3ed3c72ac3a872412fa6fe95cb658a295ac94def0df2fa59142d72d5133f59060200160405180910390a16040517f08c379a000000000000000000000000000000000000000000000000000000000815260206004820152601760248201527f6164647265737320616c72656164792070726573656e7400000000000000000060448201526064016102a0565b806107f781610bcc565b91505061067f565b5060018054808201825560008290527fb10e2d527612073b26eecdfd717e6a320cf44b4afac2b0732d9fcbe2b7fa0cf60180547fffffffffffffffffffffffff00000000000000000000000000000000000000001673ffffffffffffffffffffffffffffffffffffffff85161790558054604080516020808402820181019092528281529291908301828280156105ec5760200282019190600052602060002090815473ffffffffffffffffffffffffffffffffffffffff1681526001909101906020018083116105c15750505050509050919050565b600181815481106108e657600080fd5b60009182526020909120015473ffffffffffffffffffffffffffffffffffffffff16905081565b60005473ffffffffffffffffffffffffffffffffffffffff16331461098e576040517f08c379a000000000000000000000000000000000000000000000000000000000815260206004820181905260248201527f4f776e61626c653a2063616c6c6572206973206e6f7420746865206f776e657260448201526064016102a0565b73ffffffffffffffffffffffffffffffffffffffff8116610a31576040517f08c379a000000000000000000000000000000000000000000000000000000000815260206004820152602660248201527f4f776e61626c653a206e6577206f776e657220697320746865207a65726f206160448201527f646472657373000000000000000000000000000000000000000000000000000060648201526084016102a0565b6000805460405173ffffffffffffffffffffffffffffffffffffffff808516939216917f8be0079c531659141344cd1fd0a4f28419497f9722a3daafe3b4186f6b6457e091a3600080547fffffffffffffffffffffffff00000000000000000000000000000000000000001673ffffffffffffffffffffffffffffffffffffffff92909216919091179055565b600060208284031215610ad057600080fd5b813573ffffffffffffffffffffffffffffffffffffffff81168114610af457600080fd5b9392505050565b6020808252825182820181905260009190848201906040850190845b81811015610b4957835173ffffffffffffffffffffffffffffffffffffffff1683529284019291840191600101610b17565b50909695505050505050565b600060208284031215610b6757600080fd5b5035919050565b7f4e487b7100000000000000000000000000000000000000000000000000000000600052603260045260246000fd5b7f4e487b7100000000000000000000000000000000000000000000000000000000600052601160045260246000fd5b60007fffffffffffffffffffffffffffffffffffffffffffffffffffffffffffffffff821415610bfe57610bfe610b9d565b5060010190565b600082821015610c1757610c17610b9d565b500390565b60008219821115610c2f57610c2f610b9d565b500190565b7f4e487b7100000000000000000000000000000000000000000000000000000000600052603160045260246000fdfea26469706673582212202007fd5ea38fd8bbcea360e3778b135020006835064fede45f79d22e87b2073a64736f6c634300080a0033",
  "linkReferences": {},
  "deployedLinkReferences": {}
}