{
  "_format": "hh-sol-artifact-1",
  "contractName": "GeneralCheckpoint",
  "sourceName": "contracts/Staking/GeneralCheckpoint.sol",
  "abi": [
    {
      "inputs": [
        {
          "internalType": "address",
          "name": "initalRewardAddress",
          "type": "address"
        }
      ],
      "stateMutability": "nonpayable",
      "type": "constructor"
    },
    {
      "anonymous": false,
      "inputs": [
        {
          "indexed": false,
          "internalType": "address",
          "name": "newAddress",
          "type": "address"
        }
      ],
      "name": "AddedNewRewardAddress",
      "type": "event"
    },
    {
      "anonymous": false,
      "inputs": [
        {
          "indexed": false,
          "internalType": "address",
          "name": "oldAddress",
          "type": "address"
        }
      ],
      "name": "DeletedRewardAddress",
      "type": "event"
    },
    {
      "anonymous": false,
      "inputs": [
        {
          "indexed": true,
          "internalType": "address",
          "name": "previousOwner",
          "type": "address"
        },
        {
          "indexed": true,
          "internalType": "address",
          "name": "newOwner",
          "type": "address"
        }
      ],
      "name": "OwnershipTransferred",
      "type": "event"
    },
    {
      "inputs": [
        {
          "internalType": "address",
          "name": "newAddress",
          "type": "address"
        }
      ],
      "name": "addRewardAddress",
      "outputs": [
        {
          "internalType": "address[]",
          "name": "",
          "type": "address[]"
        }
      ],
      "stateMutability": "nonpayable",
      "type": "function"
    },
    {
      "inputs": [
        {
          "internalType": "address",
          "name": "userAddr",
          "type": "address"
        }
      ],
      "name": "checkpointUserToAllContracts",
      "outputs": [],
      "stateMutability": "nonpayable",
      "type": "function"
    },
    {
      "inputs": [
        {
          "internalType": "uint256",
          "name": "",
          "type": "uint256"
        }
      ],
      "name": "data",
      "outputs": [
        {
          "internalType": "address",
          "name": "",
          "type": "address"
        }
      ],
      "stateMutability": "view",
      "type": "function"
    },
    {
      "inputs": [
        {
          "internalType": "address",
          "name": "oldAddress",
          "type": "address"
        }
      ],
      "name": "deleteRewardAddress",
      "outputs": [
        {
          "internalType": "address[]",
          "name": "",
          "type": "address[]"
        }
      ],
      "stateMutability": "nonpayable",
      "type": "function"
    },
    {
      "inputs": [
        {
          "internalType": "address",
          "name": "_owner",
          "type": "address"
        },
        {
          "internalType": "address",
          "name": "_emittedToken",
          "type": "address"
        },
        {
          "internalType": "address",
          "name": "_timelockAddress",
          "type": "address"
        },
        {
          "internalType": "address",
          "name": "_veShnAddress",
          "type": "address"
        }
      ],
      "name": "deployNewRewardContract",
      "outputs": [],
      "stateMutability": "nonpayable",
      "type": "function"
    },
    {
      "inputs": [],
      "name": "getCount",
      "outputs": [
        {
          "internalType": "uint256",
          "name": "count",
          "type": "uint256"
        }
      ],
      "stateMutability": "view",
      "type": "function"
    },
    {
      "inputs": [],
      "name": "owner",
      "outputs": [
        {
          "internalType": "address",
          "name": "",
          "type": "address"
        }
      ],
      "stateMutability": "view",
      "type": "function"
    },
    {
      "inputs": [],
      "name": "renounceOwnership",
      "outputs": [],
      "stateMutability": "nonpayable",
      "type": "function"
    },
    {
      "inputs": [
        {
          "internalType": "address",
          "name": "newOwner",
          "type": "address"
        }
      ],
      "name": "transferOwnership",
      "outputs": [],
      "stateMutability": "nonpayable",
      "type": "function"
    }
  ],
  "bytecode": "0x608060405234801561001057600080fd5b506040516136af3803806136af83398101604081905261002f916100c4565b600080546001600160a01b031916339081178255604051909182917f8be0079c531659141344cd1fd0a4f28419497f9722a3daafe3b4186f6b6457e0908290a3506001805480820182556000919091527fb10e2d527612073b26eecdfd717e6a320cf44b4afac2b0732d9fcbe2b7fa0cf60180546001600160a01b0319166001600160a01b03929092169190911790556100f4565b6000602082840312156100d657600080fd5b81516001600160a01b03811681146100ed57600080fd5b9392505050565b6135ac806101036000396000f3fe60806040523480156200001157600080fd5b5060043610620000b05760003560e01c8063a87d942c116200007f578063d24e53391162000062578063d24e5339146200016b578063f0ba84401462000182578063f2fde38b146200019957600080fd5b8063a87d942c1462000142578063b4be506e146200015457600080fd5b80636b435e9c14620000b5578063715018a614620000ce5780638da5cb5b14620000d857806397ddbd5c146200011c575b600080fd5b620000cc620000c636600462000c7b565b620001b0565b005b620000cc62000284565b60005473ffffffffffffffffffffffffffffffffffffffff165b60405173ffffffffffffffffffffffffffffffffffffffff90911681526020015b60405180910390f35b620001336200012d36600462000c7b565b6200037a565b60405162000113919062000ca0565b60015460405190815260200162000113565b620001336200016536600462000c7b565b620006e5565b620000cc6200017c36600462000cfc565b6200095c565b620000f26200019336600462000d59565b62000a5b565b620000cc620001aa36600462000c7b565b62000a93565b60005b6001548110156200028057600060018281548110620001d657620001d662000d73565b6000918252602090912001546040517f9f8a835a00000000000000000000000000000000000000000000000000000000815273ffffffffffffffffffffffffffffffffffffffff858116600483015290911691508190639f8a835a90602401600060405180830381600087803b1580156200025057600080fd5b505af115801562000265573d6000803e3d6000fd5b50505050508080620002779062000dd1565b915050620001b3565b5050565b60005473ffffffffffffffffffffffffffffffffffffffff1633146200030b576040517f08c379a000000000000000000000000000000000000000000000000000000000815260206004820181905260248201527f4f776e61626c653a2063616c6c6572206973206e6f7420746865206f776e657260448201526064015b60405180910390fd5b6000805460405173ffffffffffffffffffffffffffffffffffffffff909116907f8be0079c531659141344cd1fd0a4f28419497f9722a3daafe3b4186f6b6457e0908390a3600080547fffffffffffffffffffffffff0000000000000000000000000000000000000000169055565b60005460609073ffffffffffffffffffffffffffffffffffffffff16331462000400576040517f08c379a000000000000000000000000000000000000000000000000000000000815260206004820181905260248201527f4f776e61626c653a2063616c6c6572206973206e6f7420746865206f776e6572604482015260640162000302565b60005b60015481101562000672578273ffffffffffffffffffffffffffffffffffffffff16600182815481106200043b576200043b62000d73565b60009182526020909120015473ffffffffffffffffffffffffffffffffffffffff1614156200065d577f6621d567d44a618275066b55f8a00757c0b69c28aa30a30522dc0b67b74f43b1600182815481106200049b576200049b62000d73565b6000918252602091829020015460405173ffffffffffffffffffffffffffffffffffffffff90911681520160405180910390a160018181548110620004e457620004e462000d73565b600091825260209091200180547fffffffffffffffffffffffff0000000000000000000000000000000000000000169055805b6001805462000527919062000e0d565b811015620005ef5760016200053d838262000e27565b8154811062000550576200055062000d73565b6000918252602090912001546001805473ffffffffffffffffffffffffffffffffffffffff90921691839081106200058c576200058c62000d73565b600091825260209091200180547fffffffffffffffffffffffff00000000000000000000000000000000000000001673ffffffffffffffffffffffffffffffffffffffff9290921691909117905580620005e68162000dd1565b91505062000517565b50600180548062000604576200060462000e42565b60008281526020902081017fffffffffffffffffffffffffffffffffffffffffffffffffffffffffffffffff90810180547fffffffffffffffffffffffff00000000000000000000000000000000000000001690550190555b80620006698162000dd1565b91505062000403565b506001805480602002602001604051908101604052809291908181526020018280548015620006d857602002820191906000526020600020905b815473ffffffffffffffffffffffffffffffffffffffff168152600190910190602001808311620006ac575b505050505090505b919050565b60005460609073ffffffffffffffffffffffffffffffffffffffff1633146200076b576040517f08c379a000000000000000000000000000000000000000000000000000000000815260206004820181905260248201527f4f776e61626c653a2063616c6c6572206973206e6f7420746865206f776e6572604482015260640162000302565b60005b60015481101562000847578273ffffffffffffffffffffffffffffffffffffffff1660018281548110620007a657620007a662000d73565b60009182526020909120015473ffffffffffffffffffffffffffffffffffffffff16141562000832576040517f08c379a000000000000000000000000000000000000000000000000000000000815260206004820152601760248201527f6164647265737320616c72656164792070726573656e74000000000000000000604482015260640162000302565b806200083e8162000dd1565b9150506200076e565b506001805480820182556000919091527fb10e2d527612073b26eecdfd717e6a320cf44b4afac2b0732d9fcbe2b7fa0cf60180547fffffffffffffffffffffffff00000000000000000000000000000000000000001673ffffffffffffffffffffffffffffffffffffffff84169081179091556040519081527f119545c6b18ffc48d6bdc36794ae7c32b6b4031c6cb72d84f9a1d429a7c570449060200160405180910390a16001805480602002602001604051908101604052809291908181526020018280548015620006d85760200282019190600052602060002090815473ffffffffffffffffffffffffffffffffffffffff168152600190910190602001808311620006ac5750505050509050919050565b60005473ffffffffffffffffffffffffffffffffffffffff163314620009df576040517f08c379a000000000000000000000000000000000000000000000000000000000815260206004820181905260248201527f4f776e61626c653a2063616c6c6572206973206e6f7420746865206f776e6572604482015260640162000302565b600084848484604051620009f39062000c48565b73ffffffffffffffffffffffffffffffffffffffff9485168152928416602084015290831660408301529091166060820152608001604051809103906000f08015801562000a45573d6000803e3d6000fd5b50905062000a5381620006e5565b505050505050565b6001818154811062000a6c57600080fd5b60009182526020909120015473ffffffffffffffffffffffffffffffffffffffff16905081565b60005473ffffffffffffffffffffffffffffffffffffffff16331462000b16576040517f08c379a000000000000000000000000000000000000000000000000000000000815260206004820181905260248201527f4f776e61626c653a2063616c6c6572206973206e6f7420746865206f776e6572604482015260640162000302565b73ffffffffffffffffffffffffffffffffffffffff811662000bbb576040517f08c379a000000000000000000000000000000000000000000000000000000000815260206004820152602660248201527f4f776e61626c653a206e6577206f776e657220697320746865207a65726f206160448201527f6464726573730000000000000000000000000000000000000000000000000000606482015260840162000302565b6000805460405173ffffffffffffffffffffffffffffffffffffffff808516939216917f8be0079c531659141344cd1fd0a4f28419497f9722a3daafe3b4186f6b6457e091a3600080547fffffffffffffffffffffffff00000000000000000000000000000000000000001673ffffffffffffffffffffffffffffffffffffffff92909216919091179055565b6127058062000e7283390190565b803573ffffffffffffffffffffffffffffffffffffffff81168114620006e057600080fd5b60006020828403121562000c8e57600080fd5b62000c998262000c56565b9392505050565b6020808252825182820181905260009190848201906040850190845b8181101562000cf057835173ffffffffffffffffffffffffffffffffffffffff168352928401929184019160010162000cbc565b50909695505050505050565b6000806000806080858703121562000d1357600080fd5b62000d1e8562000c56565b935062000d2e6020860162000c56565b925062000d3e6040860162000c56565b915062000d4e6060860162000c56565b905092959194509250565b60006020828403121562000d6c57600080fd5b5035919050565b7f4e487b7100000000000000000000000000000000000000000000000000000000600052603260045260246000fd5b7f4e487b7100000000000000000000000000000000000000000000000000000000600052601160045260246000fd5b60007fffffffffffffffffffffffffffffffffffffffffffffffffffffffffffffffff82141562000e065762000e0662000da2565b5060010190565b60008282101562000e225762000e2262000da2565b500390565b6000821982111562000e3d5762000e3d62000da2565b500190565b7f4e487b7100000000000000000000000000000000000000000000000000000000600052603160045260246000fdfe608060405262093a80600a556000600c819055600f8190556010556016805460ff191690553480156200003157600080fd5b50604051620027053803806200270583398101604081905262000054916200019e565b836001600160a01b038116620000b05760405162461bcd60e51b815260206004820152601960248201527f4f776e657220616464726573732063616e6e6f74206265203000000000000000604482015260640160405180910390fd5b600080546001600160a01b0319166001600160a01b03831690811782556040805192835260208301919091527fb532073b38c83145e3e5135377a08bf9aab55bc0fd7c1179cd4fb995d2a5159c910160405180910390a15060016002819055600580546001600160a01b03199081166001600160a01b0396871690811790925560048054821690921790915560038054821693861693909317909255426008556006805490921692841692909217905591166000908152600b60205260409020805460ff19169091179055620001fb565b80516001600160a01b03811681146200019957600080fd5b919050565b60008060008060808587031215620001b557600080fd5b620001c08562000181565b9350620001d06020860162000181565b9250620001e06040860162000181565b9150620001f06060860162000181565b905092959194509250565b6124fa806200020b6000396000f3fe608060405234801561001057600080fd5b50600436106102c75760003560e01c806380a761d11161017b578063ad1148cb116100d8578063e172cf211161008c578063ebe2b12b11610071578063ebe2b12b1461060b578063fc939bb114610614578063fff6cae91461061c57600080fd5b8063e172cf21146105e2578063e9218ff6146105eb57600080fd5b8063c2c4c5c1116100bd578063c2c4c5c1146105b1578063c8f33c91146105b9578063dc6663c7146105c257600080fd5b8063ad1148cb14610591578063bdacb3031461059e57600080fd5b8063941d9f651161012f5780639f8a835a116101145780639f8a835a1461053b578063a4bc8dd51461054e578063a875f4721461057157600080fd5b8063941d9f6514610515578063948e25a21461052857600080fd5b80638980f11f116101605780638980f11f146104cf5780638da5cb5b146104e257806391519bda1461050257600080fd5b806380a761d1146104bd578063819abfcd146104c657600080fd5b806353a47bb7116102295780636999ac93116101dd57806374ea0b98116101c257806374ea0b981461049a57806379ba5097146104ad5780637c262871146104b557600080fd5b80636999ac931461046957806373f22f741461047257600080fd5b806356d9fff31161020e57806356d9fff314610439578063681b5ffa146104415780636869f42f1461046157600080fd5b806353a47bb71461041057806354e04d151461043057600080fd5b806338359fc21161028057806342c92f6e1161026557806342c92f6e146103bd57806345ff83cb146103d057806350fe98ac146103f057600080fd5b806338359fc2146103655780633c6b16ab146103aa57600080fd5b80631627540c116102b15780631627540c1461032557806319aec6d21461033a57806331ca208c1461034257600080fd5b80628cc262146102cc57806314b30537146102f2575b600080fd5b6102df6102da3660046121e0565b610624565b6040519081526020015b60405180910390f35b6103156103003660046121e0565b60116020526000908152604090205460ff1681565b60405190151581526020016102e9565b6103386103333660046121e0565b610818565b005b6102df61093e565b6103156103503660046121e0565b60156020526000908152604090205460ff1681565b6005546103859073ffffffffffffffffffffffffffffffffffffffff1681565b60405173ffffffffffffffffffffffffffffffffffffffff90911681526020016102e9565b6103386103b83660046121fb565b61095c565b6103386103cb3660046121e0565b610ab4565b6102df6103de3660046121e0565b60126020526000908152604090205481565b6102df6103fe3660046121e0565b600e6020526000908152604090205481565b6001546103859073ffffffffffffffffffffffffffffffffffffffff1681565b6102df600c5481565b6102df610bab565b6102df61044f3660046121e0565b60136020526000908152604090205481565b6102df610bb9565b6102df60095481565b6104856104803660046121e0565b610bff565b604080519283526020830191909152016102e9565b6103386104a83660046121fb565b610cfb565b610338610e95565b6102df610fe0565b6102df60105481565b6102df600f5481565b6103386104dd366004612214565b611201565b6000546103859073ffffffffffffffffffffffffffffffffffffffff1681565b61033861051036600461224c565b61131c565b6103386105233660046121e0565b6113d6565b61033861053636600461227c565b6114cd565b6103386105493660046121e0565b6115a1565b61031561055c3660046121e0565b600b6020526000908152604090205460ff1681565b6102df61057f3660046121e0565b600d6020526000908152604090205481565b6016546103159060ff1681565b6103386105ac3660046121e0565b6115ad565b610338611697565b6102df60085481565b6006546103859073ffffffffffffffffffffffffffffffffffffffff1681565b6102df600a5481565b6004546103859073ffffffffffffffffffffffffffffffffffffffff1681565b6102df60075481565b6102df6116a2565b6103386116c2565b73ffffffffffffffffffffffffffffffffffffffff811660009081526011602052604081205460ff1661065957506000919050565b60008061066584610bff565b9092509050620f42408261072e5773ffffffffffffffffffffffffffffffffffffffff851660009081526014602052604090205482116106aa57506000949350505050565b73ffffffffffffffffffffffffffffffffffffffff85166000908152601460205260408120546106db908490611771565b73ffffffffffffffffffffffffffffffffffffffff871660009081526014602052604081205491925090610710904290611771565b905061072981610723620f4240856117bc565b90611871565b925050505b73ffffffffffffffffffffffffffffffffffffffff85166000908152601260205260408120548085111561076457809150610776565b610773600261072387846118b3565b91505b5073ffffffffffffffffffffffffffffffffffffffff86166000908152600e602052604090205461080e906108086107b9620f4240670de0b6b3a76400006122c8565b73ffffffffffffffffffffffffffffffffffffffff8a166000908152600d6020526040902054610723908790610802906107fb906107f5610bb9565b90611771565b88906117bc565b906117bc565b906118b3565b9695505050505050565b60005473ffffffffffffffffffffffffffffffffffffffff1633146108c4576040517f08c379a000000000000000000000000000000000000000000000000000000000815260206004820152602f60248201527f4f6e6c792074686520636f6e7472616374206f776e6572206d6179207065726660448201527f6f726d207468697320616374696f6e000000000000000000000000000000000060648201526084015b60405180910390fd5b600180547fffffffffffffffffffffffff00000000000000000000000000000000000000001673ffffffffffffffffffffffffffffffffffffffff83169081179091556040519081527f906a1c6bd7e3091ea86693dd029a831c19049ce77f1dce2ce0bab1cacbabce22906020015b60405180910390a150565b6000610957600a546009546117bc90919063ffffffff16565b905090565b336000908152600b602052604090205460ff166109d5576040517f08c379a000000000000000000000000000000000000000000000000000000000815260206004820152601660248201527f53656e646572206e6f742077686974656c69737465640000000000000000000060448201526064016108bb565b6004546109fa9073ffffffffffffffffffffffffffffffffffffffff1633308461192c565b610a026116c2565b6007544210610a2157600a54610a19908290611871565b600955610a64565b600754600090610a319042611771565b90506000610a4a600954836117bc90919063ffffffff16565b600a54909150610a5e9061072385846118b3565b60095550505b426008819055600a54610a7791906118b3565b6007556009546040805183815260208101929092527f6c07ee05dcf262f13abf9d87b846ee789d2f90fe991d495acd7d7fc109ee1f559101610933565b60005473ffffffffffffffffffffffffffffffffffffffff16331480610af1575060065473ffffffffffffffffffffffffffffffffffffffff1633145b610b57576040517f08c379a000000000000000000000000000000000000000000000000000000000815260206004820152601560248201527f4e6f74206f776e6572206f722074696d656c6f636b000000000000000000000060448201526064016108bb565b73ffffffffffffffffffffffffffffffffffffffff166000908152600b6020526040902080547fffffffffffffffffffffffffffffffffffffffffffffffffffffffffffffff00811660ff90911615179055565b6000610957426007546119c7565b600060105460001415610bcd5750600c5490565b610957610bf6601054610723670de0b6b3a76400006108026009546108026008546107f5610bab565b600c54906118b3565b6003546040517f70a0823100000000000000000000000000000000000000000000000000000000815273ffffffffffffffffffffffffffffffffffffffff838116600483015260009283928392909116906370a0823190602401602060405180830381865afa158015610c76573d6000803e3d6000fd5b505050506040513d601f19601f82011682018060405250810190610c9a9190612305565b73ffffffffffffffffffffffffffffffffffffffff8516600090815260136020526040902054925090508115801590610cd35750814210155b15610ce15760009250610cf5565b814210610cf15760009250610cf5565b8092505b50915091565b60005473ffffffffffffffffffffffffffffffffffffffff16331480610d38575060065473ffffffffffffffffffffffffffffffffffffffff1633145b610d9e576040517f08c379a000000000000000000000000000000000000000000000000000000000815260206004820152601560248201527f4e6f74206f776e6572206f722074696d656c6f636b000000000000000000000060448201526064016108bb565b6007541580610dae575060075442115b610e60576040517f08c379a000000000000000000000000000000000000000000000000000000000815260206004820152605660248201527f50726576696f7573207969656c6420706572696f64206d75737420626520636f60448201527f6d706c657465206265666f7265206368616e67696e672074686520647572617460648201527f696f6e20666f7220746865206e657720706572696f6400000000000000000000608482015260a4016108bb565b600a8190556040518181527fce653f06b9044b00e7d9d01b9b4228e84812092cb6a38371889bef19370d21f790602001610933565b60015473ffffffffffffffffffffffffffffffffffffffff163314610f3c576040517f08c379a000000000000000000000000000000000000000000000000000000000815260206004820152603560248201527f596f75206d757374206265206e6f6d696e61746564206265666f726520796f7560448201527f2063616e20616363657074206f776e657273686970000000000000000000000060648201526084016108bb565b6000546001546040805173ffffffffffffffffffffffffffffffffffffffff93841681529290911660208301527fb532073b38c83145e3e5135377a08bf9aab55bc0fd7c1179cd4fb995d2a5159c910160405180910390a160018054600080547fffffffffffffffffffffffff000000000000000000000000000000000000000090811673ffffffffffffffffffffffffffffffffffffffff841617909155169055565b600060028054141561104e576040517f08c379a000000000000000000000000000000000000000000000000000000000815260206004820152601f60248201527f5265656e7472616e637947756172643a207265656e7472616e742063616c6c0060448201526064016108bb565b6002805560165460ff16156110bf576040517f08c379a000000000000000000000000000000000000000000000000000000000815260206004820152601a60248201527f5969656c6420636f6c6c656374696f6e2069732070617573656400000000000060448201526064016108bb565b336110c9816119dd565b3360009081526015602052604090205460ff1615611143576040517f08c379a000000000000000000000000000000000000000000000000000000000815260206004820152601b60248201527f4164647265737320686173206265656e20677265796c6973746564000000000060448201526064016108bb565b336000908152600e6020526040902054915081156111e657336000818152600e60205260408120556005546111919173ffffffffffffffffffffffffffffffffffffffff9091169084611c4b565b6005546040805184815273ffffffffffffffffffffffffffffffffffffffff909216602083015233917f3998039806f6db7e5d83a5371638cc47dd2e9ae500d5d561d95ec6381f53e3cd910160405180910390a25b50336000908152601460205260409020429055600160025590565b60005473ffffffffffffffffffffffffffffffffffffffff1633148061123e575060065473ffffffffffffffffffffffffffffffffffffffff1633145b6112a4576040517f08c379a000000000000000000000000000000000000000000000000000000000815260206004820152601560248201527f4e6f74206f776e6572206f722074696d656c6f636b000000000000000000000060448201526064016108bb565b6000546112c990839073ffffffffffffffffffffffffffffffffffffffff1683611c4b565b6040805173ffffffffffffffffffffffffffffffffffffffff84168152602081018390527f55350610fe57096d8c0ffa30beede987326bccfcb0b4415804164d0dd50ce8b1910160405180910390a15050565b60005473ffffffffffffffffffffffffffffffffffffffff16331480611359575060065473ffffffffffffffffffffffffffffffffffffffff1633145b6113bf576040517f08c379a000000000000000000000000000000000000000000000000000000000815260206004820152601560248201527f4e6f74206f776e6572206f722074696d656c6f636b000000000000000000000060448201526064016108bb565b600982905580156113d2576113d26116c2565b5050565b60005473ffffffffffffffffffffffffffffffffffffffff16331480611413575060065473ffffffffffffffffffffffffffffffffffffffff1633145b611479576040517f08c379a000000000000000000000000000000000000000000000000000000000815260206004820152601560248201527f4e6f74206f776e6572206f722074696d656c6f636b000000000000000000000060448201526064016108bb565b73ffffffffffffffffffffffffffffffffffffffff16600090815260156020526040902080547fffffffffffffffffffffffffffffffffffffffffffffffffffffffffffffff00811660ff90911615179055565b60005473ffffffffffffffffffffffffffffffffffffffff1633148061150a575060065473ffffffffffffffffffffffffffffffffffffffff1633145b611570576040517f08c379a000000000000000000000000000000000000000000000000000000000815260206004820152601560248201527f4e6f74206f776e6572206f722074696d656c6f636b000000000000000000000060448201526064016108bb565b601680547fffffffffffffffffffffffffffffffffffffffffffffffffffffffffffffff0016911515919091179055565b6115aa816119dd565b50565b60005473ffffffffffffffffffffffffffffffffffffffff163314806115ea575060065473ffffffffffffffffffffffffffffffffffffffff1633145b611650576040517f08c379a000000000000000000000000000000000000000000000000000000000815260206004820152601560248201527f4e6f74206f776e6572206f722074696d656c6f636b000000000000000000000060448201526064016108bb565b600680547fffffffffffffffffffffffff00000000000000000000000000000000000000001673ffffffffffffffffffffffffffffffffffffffff92909216919091179055565b6116a0336119dd565b565b6000610957601054610723620f4240600f546117bc90919063ffffffff16565b6116ca610bb9565b600c55600354604080517f18160ddd000000000000000000000000000000000000000000000000000000008152905173ffffffffffffffffffffffffffffffffffffffff909216916318160ddd916004808201926020929091908290030181865afa15801561173d573d6000803e3d6000fd5b505050506040513d601f19601f820116820180604052508101906117619190612305565b60105561176c610bab565b600855565b60006117b383836040518060400160405280601e81526020017f536166654d6174683a207375627472616374696f6e206f766572666c6f770000815250611dbb565b90505b92915050565b6000826117cb575060006117b6565b60006117d783856122c8565b9050826117e4858361231e565b146117b3576040517f08c379a000000000000000000000000000000000000000000000000000000000815260206004820152602160248201527f536166654d6174683a206d756c7469706c69636174696f6e206f766572666c6f60448201527f770000000000000000000000000000000000000000000000000000000000000060648201526084016108bb565b60006117b383836040518060400160405280601a81526020017f536166654d6174683a206469766973696f6e206279207a65726f000000000000815250611e11565b6000806118c08385612359565b9050838110156117b3576040517f08c379a000000000000000000000000000000000000000000000000000000000815260206004820152601b60248201527f536166654d6174683a206164646974696f6e206f766572666c6f77000000000060448201526064016108bb565b6040805173ffffffffffffffffffffffffffffffffffffffff85811660248301528416604482015260648082018490528251808303909101815260849091019091526020810180517bffffffffffffffffffffffffffffffffffffffffffffffffffffffff167f23b872dd000000000000000000000000000000000000000000000000000000001790526119c1908590611e59565b50505050565b60008183106119d657816117b3565b5090919050565b6119e56116c2565b6119ee81611f6a565b73ffffffffffffffffffffffffffffffffffffffff8181166000818152601260205260408082205460035491517f70a0823100000000000000000000000000000000000000000000000000000000815260048101949094529391929116906370a0823190602401602060405180830381865afa158015611a72573d6000803e3d6000fd5b505050506040513d601f19601f82011682018060405250810190611a969190612305565b73ffffffffffffffffffffffffffffffffffffffff84811660008181526012602052604080822085905560035490517fcbf9fe5f0000000000000000000000000000000000000000000000000000000081526004810193909352939450929091169063cbf9fe5f906024016040805180830381865afa158015611b1d573d6000803e3d6000fd5b505050506040513d601f19601f82011682018060405250810190611b419190612371565b60208082015173ffffffffffffffffffffffffffffffffffffffff8716600090815260139092526040909120559050828210611b9c576000611b838385611771565b600f54909150611b9390826118b3565b600f5550611bbd565b6000611ba88484611771565b600f54909150611bb89082611771565b600f55505b73ffffffffffffffffffffffffffffffffffffffff841660009081526011602052604090205460ff166119c15773ffffffffffffffffffffffffffffffffffffffff8416600090815260116020908152604080832080547fffffffffffffffffffffffffffffffffffffffffffffffffffffffffffffff001660011790556014909152902042905550505050565b6040805173ffffffffffffffffffffffffffffffffffffffff8481166024830152604480830185905283518084039091018152606490920183526020820180517bffffffffffffffffffffffffffffffffffffffffffffffffffffffff167fa9059cbb000000000000000000000000000000000000000000000000000000001790529151600092839290871691611ce29190612423565b6000604051808303816000865af19150503d8060008114611d1f576040519150601f19603f3d011682016040523d82523d6000602084013e611d24565b606091505b5091509150818015611d4e575080511580611d4e575080806020019051810190611d4e919061243f565b611db4576040517f08c379a000000000000000000000000000000000000000000000000000000000815260206004820152601f60248201527f5472616e7366657248656c7065723a205452414e534645525f4641494c45440060448201526064016108bb565b5050505050565b60008184841115611df9576040517f08c379a00000000000000000000000000000000000000000000000000000000081526004016108bb919061245c565b506000611e0684866124ad565b9150505b9392505050565b60008183611e4c576040517f08c379a00000000000000000000000000000000000000000000000000000000081526004016108bb919061245c565b506000611e06848661231e565b6000611ebb826040518060400160405280602081526020017f5361666545524332303a206c6f772d6c6576656c2063616c6c206661696c65648152508573ffffffffffffffffffffffffffffffffffffffff16611fcd9092919063ffffffff16565b805190915015611f655780806020019051810190611ed9919061243f565b611f65576040517f08c379a000000000000000000000000000000000000000000000000000000000815260206004820152602a60248201527f5361666545524332303a204552433230206f7065726174696f6e20646964206e60448201527f6f7420737563636565640000000000000000000000000000000000000000000060648201526084016108bb565b505050565b73ffffffffffffffffffffffffffffffffffffffff8116156115aa576000611f9182610624565b73ffffffffffffffffffffffffffffffffffffffff83166000908152600e6020908152604080832093909355600c54600d909152919020555050565b6060611fdc8484600085611fe4565b949350505050565b606082471015612076576040517f08c379a000000000000000000000000000000000000000000000000000000000815260206004820152602660248201527f416464726573733a20696e73756666696369656e742062616c616e636520666f60448201527f722063616c6c000000000000000000000000000000000000000000000000000060648201526084016108bb565b843b6120de576040517f08c379a000000000000000000000000000000000000000000000000000000000815260206004820152601d60248201527f416464726573733a2063616c6c20746f206e6f6e2d636f6e747261637400000060448201526064016108bb565b6000808673ffffffffffffffffffffffffffffffffffffffff1685876040516121079190612423565b60006040518083038185875af1925050503d8060008114612144576040519150601f19603f3d011682016040523d82523d6000602084013e612149565b606091505b5091509150612159828286612164565b979650505050505050565b60608315612173575081611e0a565b8251156121835782518084602001fd5b816040517f08c379a00000000000000000000000000000000000000000000000000000000081526004016108bb919061245c565b803573ffffffffffffffffffffffffffffffffffffffff811681146121db57600080fd5b919050565b6000602082840312156121f257600080fd5b6117b3826121b7565b60006020828403121561220d57600080fd5b5035919050565b6000806040838503121561222757600080fd5b612230836121b7565b946020939093013593505050565b80151581146115aa57600080fd5b6000806040838503121561225f57600080fd5b8235915060208301356122718161223e565b809150509250929050565b60006020828403121561228e57600080fd5b81356117b38161223e565b7f4e487b7100000000000000000000000000000000000000000000000000000000600052601160045260246000fd5b6000817fffffffffffffffffffffffffffffffffffffffffffffffffffffffffffffffff048311821515161561230057612300612299565b500290565b60006020828403121561231757600080fd5b5051919050565b600082612354577f4e487b7100000000000000000000000000000000000000000000000000000000600052601260045260246000fd5b500490565b6000821982111561236c5761236c612299565b500190565b60006040828403121561238357600080fd5b6040516040810181811067ffffffffffffffff821117156123cd577f4e487b7100000000000000000000000000000000000000000000000000000000600052604160045260246000fd5b6040528251600f81900b81146123e257600080fd5b81526020928301519281019290925250919050565b60005b838110156124125781810151838201526020016123fa565b838111156119c15750506000910152565b600082516124358184602087016123f7565b9190910192915050565b60006020828403121561245157600080fd5b81516117b38161223e565b602081526000825180602084015261247b8160408501602087016123f7565b601f017fffffffffffffffffffffffffffffffffffffffffffffffffffffffffffffffe0169190910160400192915050565b6000828210156124bf576124bf612299565b50039056fea2646970667358221220b29856c32461cd29226de2c84fd277a094c29135bfd18022935df7b8221d166464736f6c634300080a0033a2646970667358221220e848882616d293d188804a3a0d6e7baae50b17d5272c9acb0c31a180c4e8b8fa64736f6c634300080a0033",
  "linkReferences": {},
  "deployedLinkReferences": {}
}