{
  "_format": "hh-sol-artifact-1",
  "contractName": "SeedFactory",
  "sourceName": "contracts/SeedFactory.sol",
  "abi": [
    {
      "inputs": [],
      "stateMutability": "nonpayable",
      "type": "constructor"
    },
    {
      "anonymous": false,
      "inputs": [
        {
          "indexed": false,
          "internalType": "address",
          "name": "newAddress",
          "type": "address"
        }
      ],
      "name": "AddedNewRewardAddress",
      "type": "event"
    },
    {
      "anonymous": false,
      "inputs": [
        {
          "indexed": true,
          "internalType": "address",
          "name": "previousOwner",
          "type": "address"
        },
        {
          "indexed": true,
          "internalType": "address",
          "name": "newOwner",
          "type": "address"
        }
      ],
      "name": "OwnershipTransferred",
      "type": "event"
    },
    {
      "inputs": [
        {
          "internalType": "address",
          "name": "newAddress",
          "type": "address"
        }
      ],
      "name": "addRewardAddress",
      "outputs": [
        {
          "internalType": "address[]",
          "name": "",
          "type": "address[]"
        }
      ],
      "stateMutability": "nonpayable",
      "type": "function"
    },
    {
      "inputs": [],
      "name": "calculateRaisingFee",
      "outputs": [
        {
          "internalType": "uint256",
          "name": "",
          "type": "uint256"
        }
      ],
      "stateMutability": "view",
      "type": "function"
    },
    {
      "inputs": [
        {
          "internalType": "uint256",
          "name": "",
          "type": "uint256"
        }
      ],
      "name": "data",
      "outputs": [
        {
          "internalType": "address",
          "name": "",
          "type": "address"
        }
      ],
      "stateMutability": "view",
      "type": "function"
    },
    {
      "inputs": [
        {
          "internalType": "uint256",
          "name": "_rate",
          "type": "uint256"
        },
        {
          "internalType": "address payable",
          "name": "_wallet",
          "type": "address"
        },
        {
          "internalType": "contract IERC20",
          "name": "_emittedToken",
          "type": "address"
        },
        {
          "internalType": "contract IERC20",
          "name": "_acceptedToken",
          "type": "address"
        },
        {
          "internalType": "uint256",
          "name": "_startTime",
          "type": "uint256"
        },
        {
          "internalType": "uint256",
          "name": "_endTime",
          "type": "uint256"
        },
        {
          "internalType": "string",
          "name": "_name",
          "type": "string"
        }
      ],
      "name": "deployNewSeed",
      "outputs": [],
      "stateMutability": "payable",
      "type": "function"
    },
    {
      "inputs": [
        {
          "internalType": "address",
          "name": "",
          "type": "address"
        }
      ],
      "name": "deploymentFeeForAddress",
      "outputs": [
        {
          "internalType": "uint256",
          "name": "",
          "type": "uint256"
        }
      ],
      "stateMutability": "view",
      "type": "function"
    },
    {
      "inputs": [],
      "name": "deploymentFeeRecipient",
      "outputs": [
        {
          "internalType": "address payable",
          "name": "",
          "type": "address"
        }
      ],
      "stateMutability": "view",
      "type": "function"
    },
    {
      "inputs": [],
      "name": "getCount",
      "outputs": [
        {
          "internalType": "uint256",
          "name": "count",
          "type": "uint256"
        }
      ],
      "stateMutability": "view",
      "type": "function"
    },
    {
      "inputs": [],
      "name": "owner",
      "outputs": [
        {
          "internalType": "address",
          "name": "",
          "type": "address"
        }
      ],
      "stateMutability": "view",
      "type": "function"
    },
    {
      "inputs": [
        {
          "internalType": "address",
          "name": "",
          "type": "address"
        }
      ],
      "name": "raisingFeeForAddress",
      "outputs": [
        {
          "internalType": "uint256",
          "name": "",
          "type": "uint256"
        }
      ],
      "stateMutability": "view",
      "type": "function"
    },
    {
      "inputs": [],
      "name": "raisingFeeRecipient",
      "outputs": [
        {
          "internalType": "address payable",
          "name": "",
          "type": "address"
        }
      ],
      "stateMutability": "view",
      "type": "function"
    },
    {
      "inputs": [],
      "name": "renounceOwnership",
      "outputs": [],
      "stateMutability": "nonpayable",
      "type": "function"
    },
    {
      "inputs": [
        {
          "internalType": "address",
          "name": "_addr",
          "type": "address"
        }
      ],
      "name": "retrieveIndex",
      "outputs": [
        {
          "internalType": "uint256",
          "name": "",
          "type": "uint256"
        }
      ],
      "stateMutability": "view",
      "type": "function"
    },
    {
      "inputs": [
        {
          "internalType": "uint256",
          "name": "_newDeploymentFee",
          "type": "uint256"
        }
      ],
      "name": "setDefaultDeploymentFee",
      "outputs": [],
      "stateMutability": "nonpayable",
      "type": "function"
    },
    {
      "inputs": [
        {
          "internalType": "uint256",
          "name": "_newRaisingFee",
          "type": "uint256"
        }
      ],
      "name": "setDefaultRaisingFee",
      "outputs": [],
      "stateMutability": "nonpayable",
      "type": "function"
    },
    {
      "inputs": [
        {
          "internalType": "uint256",
          "name": "_newTokenFee",
          "type": "uint256"
        }
      ],
      "name": "setDefaultTokenFee",
      "outputs": [],
      "stateMutability": "nonpayable",
      "type": "function"
    },
    {
      "inputs": [
        {
          "internalType": "address",
          "name": "addr",
          "type": "address"
        },
        {
          "internalType": "uint256",
          "name": "_newDeploymentFee",
          "type": "uint256"
        }
      ],
      "name": "setDeploymentFeeForAddress",
      "outputs": [],
      "stateMutability": "nonpayable",
      "type": "function"
    },
    {
      "inputs": [
        {
          "internalType": "address payable",
          "name": "addr",
          "type": "address"
        }
      ],
      "name": "setDeploymentFeeRecipient",
      "outputs": [],
      "stateMutability": "nonpayable",
      "type": "function"
    },
    {
      "inputs": [
        {
          "internalType": "address",
          "name": "addr",
          "type": "address"
        },
        {
          "internalType": "uint256",
          "name": "_newRaisingFee",
          "type": "uint256"
        }
      ],
      "name": "setRaisingFeeForAddress",
      "outputs": [],
      "stateMutability": "nonpayable",
      "type": "function"
    },
    {
      "inputs": [
        {
          "internalType": "address payable",
          "name": "addr",
          "type": "address"
        }
      ],
      "name": "setRaisingFeeRecipient",
      "outputs": [],
      "stateMutability": "nonpayable",
      "type": "function"
    },
    {
      "inputs": [
        {
          "internalType": "address",
          "name": "addr",
          "type": "address"
        },
        {
          "internalType": "uint256",
          "name": "_newTokenFee",
          "type": "uint256"
        }
      ],
      "name": "setTokenFeeForAddress",
      "outputs": [],
      "stateMutability": "nonpayable",
      "type": "function"
    },
    {
      "inputs": [
        {
          "internalType": "address",
          "name": "addr",
          "type": "address"
        }
      ],
      "name": "setTokenFeeRecipient",
      "outputs": [],
      "stateMutability": "nonpayable",
      "type": "function"
    },
    {
      "inputs": [
        {
          "internalType": "address",
          "name": "",
          "type": "address"
        }
      ],
      "name": "tokenFeeForAddress",
      "outputs": [
        {
          "internalType": "uint256",
          "name": "",
          "type": "uint256"
        }
      ],
      "stateMutability": "view",
      "type": "function"
    },
    {
      "inputs": [],
      "name": "tokenFeeRecipient",
      "outputs": [
        {
          "internalType": "address",
          "name": "",
          "type": "address"
        }
      ],
      "stateMutability": "view",
      "type": "function"
    },
    {
      "inputs": [
        {
          "internalType": "address",
          "name": "newOwner",
          "type": "address"
        }
      ],
      "name": "transferOwnership",
      "outputs": [],
      "stateMutability": "nonpayable",
      "type": "function"
    }
  ],
  "bytecode": "0x608060405234801561001057600080fd5b5061001a3361004b565b60088054336001600160a01b0319918216811790925560098054821683179055600a8054909116909117905561009b565b600080546001600160a01b038381166001600160a01b0319831681178455604051919092169283917f8be0079c531659141344cd1fd0a4f28419497f9722a3daafe3b4186f6b6457e09190a35050565b61154f806100aa6000396000f3fe60806040526004361061018b5760003560e01c80638da5cb5b116100d6578063db3f12201161007f578063f2fde38b11610059578063f2fde38b146104a2578063f6f415cb146104c2578063f87ca9f7146104e257600080fd5b8063db3f122014610442578063e9a9f68a14610462578063f0ba84401461048257600080fd5b8063a87d942c116100b0578063a87d942c146103d3578063b4be506e146103e8578063c62cabd21461041557600080fd5b80638da5cb5b146103685780639e9c2d4214610393578063a6e34510146103b357600080fd5b806356c93073116101385780637bed748a116101125780637bed748a146103065780637ddfe1781461031b5780638770d6a31461033b57600080fd5b806356c93073146102a4578063574c3e84146102d1578063715018a6146102f157600080fd5b80632d857e98116101695780632d857e981461020557806334451f22146102255780633b9acce11461027757600080fd5b806302158bc61461019057806311564b86146101d05780632977f0ba146101e5575b600080fd5b34801561019c57600080fd5b506101bd6101ab366004611172565b60046020526000908152604090205481565b6040519081526020015b60405180910390f35b6101e36101de3660046111c5565b610502565b005b3480156101f157600080fd5b506101e36102003660046112e9565b610838565b34801561021157600080fd5b506101e3610220366004611172565b610845565b34801561023157600080fd5b506008546102529073ffffffffffffffffffffffffffffffffffffffff1681565b60405173ffffffffffffffffffffffffffffffffffffffff90911681526020016101c7565b34801561028357600080fd5b50600a546102529073ffffffffffffffffffffffffffffffffffffffff1681565b3480156102b057600080fd5b506101bd6102bf366004611172565b60036020526000908152604090205481565b3480156102dd57600080fd5b506101e36102ec366004611302565b610894565b3480156102fd57600080fd5b506101e36108c5565b34801561031257600080fd5b506101bd6108d9565b34801561032757600080fd5b506101e3610336366004611302565b61092b565b34801561034757600080fd5b506009546102529073ffffffffffffffffffffffffffffffffffffffff1681565b34801561037457600080fd5b5060005473ffffffffffffffffffffffffffffffffffffffff16610252565b34801561039f57600080fd5b506101bd6103ae366004611172565b6109ee565b3480156103bf57600080fd5b506101e36103ce3660046112e9565b610a6c565b3480156103df57600080fd5b506001546101bd565b3480156103f457600080fd5b50610408610403366004611172565b610b0b565b6040516101c7919061132e565b34801561042157600080fd5b506101bd610430366004611172565b60026020526000908152604090205481565b34801561044e57600080fd5b506101e361045d366004611172565b610cfd565b34801561046e57600080fd5b506101e361047d366004611302565b610d4c565b34801561048e57600080fd5b5061025261049d3660046112e9565b610e0f565b3480156104ae57600080fd5b506101e36104bd366004611172565b610e46565b3480156104ce57600080fd5b506101e36104dd3660046112e9565b610efd565b3480156104ee57600080fd5b506101e36104fd366004611172565b610f9c565b33600090815260026020526040902054156106c157336000908152600260205260409020543410156105bb576040517f08c379a000000000000000000000000000000000000000000000000000000000815260206004820152602660248201527f596f75206e65656420746f2070726f7669646520746865206465706c6f796d6560448201527f6e7420666565000000000000000000000000000000000000000000000000000060648201526084015b60405180910390fd5b6105c3610feb565b60006105cd611031565b905060006105d96108d9565b9050600073__$e7afaab436e08fd88a264d583599531b70$__63a3c362398b8b8b8b8b8b8a8a600960009054906101000a900473ffffffffffffffffffffffffffffffffffffffff16600a60009054906101000a900473ffffffffffffffffffffffffffffffffffffffff168f6040518c63ffffffff1660e01b815260040161066c9b9a99989796959493929190611388565b602060405180830381865af4158015610689573d6000803e3d6000fd5b505050506040513d601f19601f820116820180604052508101906106ad919061146d565b90506106b881610b0b565b5050505061082f565b60055434101561072d576040517f08c379a000000000000000000000000000000000000000000000000000000000815260206004820152601f60248201527f4465706c6f796d656e742066656520776173206e6f742070726f76696465640060448201526064016105b2565b610735610feb565b600061073f611031565b9050600061074b6108d9565b9050600073__$e7afaab436e08fd88a264d583599531b70$__63a3c362398b8b8b8b8b8b8a8a600960009054906101000a900473ffffffffffffffffffffffffffffffffffffffff16600a60009054906101000a900473ffffffffffffffffffffffffffffffffffffffff168f6040518c63ffffffff1660e01b81526004016107de9b9a99989796959493929190611388565b602060405180830381865af41580156107fb573d6000803e3d6000fd5b505050506040513d601f19601f8201168201806040525081019061081f919061146d565b905061082a81610b0b565b505050505b50505050505050565b61084061105a565b600555565b61084d61105a565b600a80547fffffffffffffffffffffffff00000000000000000000000000000000000000001673ffffffffffffffffffffffffffffffffffffffff92909216919091179055565b61089c61105a565b73ffffffffffffffffffffffffffffffffffffffff909116600090815260026020526040902055565b6108cd61105a565b6108d760006110db565b565b336000908152600460205260408120548190156109235760046000335b73ffffffffffffffffffffffffffffffffffffffff16815260208101919091526040016000205492915050565b505060075490565b61093361105a565b6127108111156109c5576040517f08c379a000000000000000000000000000000000000000000000000000000000815260206004820152602360248201527f546f6b656e206665652073686f756c64206265206c6f776572207468616e203160448201527f303025000000000000000000000000000000000000000000000000000000000060648201526084016105b2565b73ffffffffffffffffffffffffffffffffffffffff909116600090815260036020526040902055565b6000805b600154811015610a66578273ffffffffffffffffffffffffffffffffffffffff1660018281548110610a2657610a2661148a565b60009182526020909120015473ffffffffffffffffffffffffffffffffffffffff161415610a545792915050565b80610a5e816114b9565b9150506109f2565b50919050565b610a7461105a565b612710811115610b06576040517f08c379a000000000000000000000000000000000000000000000000000000000815260206004820152602360248201527f546f6b656e206665652073686f756c64206265206c6f776572207468616e203160448201527f303025000000000000000000000000000000000000000000000000000000000060648201526084016105b2565b600655565b6060610b1561105a565b60005b600154811015610be8578273ffffffffffffffffffffffffffffffffffffffff1660018281548110610b4c57610b4c61148a565b60009182526020909120015473ffffffffffffffffffffffffffffffffffffffff161415610bd6576040517f08c379a000000000000000000000000000000000000000000000000000000000815260206004820152601760248201527f6164647265737320616c72656164792070726573656e7400000000000000000060448201526064016105b2565b80610be0816114b9565b915050610b18565b506001805480820182556000919091527fb10e2d527612073b26eecdfd717e6a320cf44b4afac2b0732d9fcbe2b7fa0cf60180547fffffffffffffffffffffffff00000000000000000000000000000000000000001673ffffffffffffffffffffffffffffffffffffffff84169081179091556040519081527f119545c6b18ffc48d6bdc36794ae7c32b6b4031c6cb72d84f9a1d429a7c570449060200160405180910390a16001805480602002602001604051908101604052809291908181526020018280548015610cf157602002820191906000526020600020905b815473ffffffffffffffffffffffffffffffffffffffff168152600190910190602001808311610cc6575b50505050509050919050565b610d0561105a565b600980547fffffffffffffffffffffffff00000000000000000000000000000000000000001673ffffffffffffffffffffffffffffffffffffffff92909216919091179055565b610d5461105a565b612710811115610de6576040517f08c379a000000000000000000000000000000000000000000000000000000000815260206004820152602360248201527f546f6b656e206665652073686f756c64206265206c6f776572207468616e203160448201527f303025000000000000000000000000000000000000000000000000000000000060648201526084016105b2565b73ffffffffffffffffffffffffffffffffffffffff909116600090815260046020526040902055565b60018181548110610e1f57600080fd5b60009182526020909120015473ffffffffffffffffffffffffffffffffffffffff16905081565b610e4e61105a565b73ffffffffffffffffffffffffffffffffffffffff8116610ef1576040517f08c379a000000000000000000000000000000000000000000000000000000000815260206004820152602660248201527f4f776e61626c653a206e6577206f776e657220697320746865207a65726f206160448201527f646472657373000000000000000000000000000000000000000000000000000060648201526084016105b2565b610efa816110db565b50565b610f0561105a565b612710811115610f97576040517f08c379a000000000000000000000000000000000000000000000000000000000815260206004820152602360248201527f546f6b656e206665652073686f756c64206265206c6f776572207468616e203160448201527f303025000000000000000000000000000000000000000000000000000000000060648201526084016105b2565b600755565b610fa461105a565b600880547fffffffffffffffffffffffff00000000000000000000000000000000000000001673ffffffffffffffffffffffffffffffffffffffff92909216919091179055565b60085460405173ffffffffffffffffffffffffffffffffffffffff909116903480156108fc02916000818181858888f19350505050158015610efa573d6000803e3d6000fd5b336000908152600360205260408120548190156110525760036000336108f6565b505060065490565b60005473ffffffffffffffffffffffffffffffffffffffff1633146108d7576040517f08c379a000000000000000000000000000000000000000000000000000000000815260206004820181905260248201527f4f776e61626c653a2063616c6c6572206973206e6f7420746865206f776e657260448201526064016105b2565b6000805473ffffffffffffffffffffffffffffffffffffffff8381167fffffffffffffffffffffffff0000000000000000000000000000000000000000831681178455604051919092169283917f8be0079c531659141344cd1fd0a4f28419497f9722a3daafe3b4186f6b6457e09190a35050565b73ffffffffffffffffffffffffffffffffffffffff81168114610efa57600080fd5b60006020828403121561118457600080fd5b813561118f81611150565b9392505050565b7f4e487b7100000000000000000000000000000000000000000000000000000000600052604160045260246000fd5b600080600080600080600060e0888a0312156111e057600080fd5b8735965060208801356111f281611150565b9550604088013561120281611150565b9450606088013561121281611150565b93506080880135925060a0880135915060c088013567ffffffffffffffff8082111561123d57600080fd5b818a0191508a601f83011261125157600080fd5b81358181111561126357611263611196565b604051601f82017fffffffffffffffffffffffffffffffffffffffffffffffffffffffffffffffe0908116603f011681019083821181831017156112a9576112a9611196565b816040528281528d60208487010111156112c257600080fd5b82602086016020830137600060208483010152809550505050505092959891949750929550565b6000602082840312156112fb57600080fd5b5035919050565b6000806040838503121561131557600080fd5b823561132081611150565b946020939093013593505050565b6020808252825182820181905260009190848201906040850190845b8181101561137c57835173ffffffffffffffffffffffffffffffffffffffff168352928401929184019160010161134a565b50909695505050505050565b60006101608d8352602073ffffffffffffffffffffffffffffffffffffffff808f1682860152808e166040860152808d1660608601528b60808601528a60a08601528960c08601528860e0860152808816610100860152808716610120860152508161014085015284518083860152600092505b8083101561141b578583018201518584016101800152918101916113fc565b8083111561142e57600061018082870101525b601f017fffffffffffffffffffffffffffffffffffffffffffffffffffffffffffffffe01693909301610180019e9d5050505050505050505050505050565b60006020828403121561147f57600080fd5b815161118f81611150565b7f4e487b7100000000000000000000000000000000000000000000000000000000600052603260045260246000fd5b60007fffffffffffffffffffffffffffffffffffffffffffffffffffffffffffffffff821415611512577f4e487b7100000000000000000000000000000000000000000000000000000000600052601160045260246000fd5b506001019056fea26469706673582212206ccb9d87d254830a97d59555b7c985b3b726d782a06457d68f9e238c7d3e77c864736f6c634300080a0033",
  "linkReferences": {
    "contracts/SeedFactory.sol": {
      "SeedDeployer": [
        {
          "length": 20,
          "start": 1673
        },
        {
          "length": 20,
          "start": 2043
        }
      ]
    }
  },
  "deployedLinkReferences": {
    "contracts/SeedFactory.sol": {
      "SeedDeployer": [
        {
          "length": 20,
          "start": 1503
        },
        {
          "length": 20,
          "start": 1873
        }
      ]
    }
  }
}