{
  "_format": "hh-sol-artifact-1",
  "contractName": "SeedFactory",
  "sourceName": "contracts/SeedFactory.sol",
  "abi": [
    {
      "inputs": [],
      "stateMutability": "nonpayable",
      "type": "constructor"
    },
    {
      "anonymous": false,
      "inputs": [
        {
          "indexed": false,
          "internalType": "address",
          "name": "newAddress",
          "type": "address"
        }
      ],
      "name": "AddedNewRewardAddress",
      "type": "event"
    },
    {
      "anonymous": false,
      "inputs": [
        {
          "indexed": false,
          "internalType": "address",
          "name": "oldAddress",
          "type": "address"
        }
      ],
      "name": "DeletedRewardAddress",
      "type": "event"
    },
    {
      "anonymous": false,
      "inputs": [
        {
          "indexed": true,
          "internalType": "address",
          "name": "previousOwner",
          "type": "address"
        },
        {
          "indexed": true,
          "internalType": "address",
          "name": "newOwner",
          "type": "address"
        }
      ],
      "name": "OwnershipTransferred",
      "type": "event"
    },
    {
      "inputs": [
        {
          "internalType": "address",
          "name": "newAddress",
          "type": "address"
        }
      ],
      "name": "addRewardAddress",
      "outputs": [
        {
          "internalType": "address[]",
          "name": "",
          "type": "address[]"
        }
      ],
      "stateMutability": "nonpayable",
      "type": "function"
    },
    {
      "inputs": [],
      "name": "calculateRaisingFee",
      "outputs": [
        {
          "internalType": "uint256",
          "name": "",
          "type": "uint256"
        }
      ],
      "stateMutability": "view",
      "type": "function"
    },
    {
      "inputs": [
        {
          "internalType": "uint256",
          "name": "",
          "type": "uint256"
        }
      ],
      "name": "data",
      "outputs": [
        {
          "internalType": "address",
          "name": "",
          "type": "address"
        }
      ],
      "stateMutability": "view",
      "type": "function"
    },
    {
      "inputs": [
        {
          "internalType": "address",
          "name": "oldAddress",
          "type": "address"
        }
      ],
      "name": "deleteRewardAddress",
      "outputs": [
        {
          "internalType": "address[]",
          "name": "",
          "type": "address[]"
        }
      ],
      "stateMutability": "nonpayable",
      "type": "function"
    },
    {
      "inputs": [
        {
          "internalType": "uint256",
          "name": "_rate",
          "type": "uint256"
        },
        {
          "internalType": "address payable",
          "name": "_wallet",
          "type": "address"
        },
        {
          "internalType": "contract IERC20",
          "name": "_emittedToken",
          "type": "address"
        },
        {
          "internalType": "contract IERC20",
          "name": "_acceptedToken",
          "type": "address"
        },
        {
          "internalType": "uint256",
          "name": "_startTime",
          "type": "uint256"
        },
        {
          "internalType": "uint256",
          "name": "_endTime",
          "type": "uint256"
        },
        {
          "internalType": "string",
          "name": "_name",
          "type": "string"
        }
      ],
      "name": "deployNewSeed",
      "outputs": [],
      "stateMutability": "payable",
      "type": "function"
    },
    {
      "inputs": [
        {
          "internalType": "address",
          "name": "",
          "type": "address"
        }
      ],
      "name": "deploymentFeeForAddress",
      "outputs": [
        {
          "internalType": "uint256",
          "name": "",
          "type": "uint256"
        }
      ],
      "stateMutability": "view",
      "type": "function"
    },
    {
      "inputs": [],
      "name": "deploymentFeeRecipient",
      "outputs": [
        {
          "internalType": "address payable",
          "name": "",
          "type": "address"
        }
      ],
      "stateMutability": "view",
      "type": "function"
    },
    {
      "inputs": [],
      "name": "getCount",
      "outputs": [
        {
          "internalType": "uint256",
          "name": "count",
          "type": "uint256"
        }
      ],
      "stateMutability": "view",
      "type": "function"
    },
    {
      "inputs": [],
      "name": "owner",
      "outputs": [
        {
          "internalType": "address",
          "name": "",
          "type": "address"
        }
      ],
      "stateMutability": "view",
      "type": "function"
    },
    {
      "inputs": [
        {
          "internalType": "address",
          "name": "",
          "type": "address"
        }
      ],
      "name": "raisingFeeForAddress",
      "outputs": [
        {
          "internalType": "uint256",
          "name": "",
          "type": "uint256"
        }
      ],
      "stateMutability": "view",
      "type": "function"
    },
    {
      "inputs": [],
      "name": "raisingFeeRecipient",
      "outputs": [
        {
          "internalType": "address payable",
          "name": "",
          "type": "address"
        }
      ],
      "stateMutability": "view",
      "type": "function"
    },
    {
      "inputs": [],
      "name": "renounceOwnership",
      "outputs": [],
      "stateMutability": "nonpayable",
      "type": "function"
    },
    {
      "inputs": [
        {
          "internalType": "uint256",
          "name": "_newDeploymentFee",
          "type": "uint256"
        }
      ],
      "name": "setDefaultDeploymentFee",
      "outputs": [],
      "stateMutability": "nonpayable",
      "type": "function"
    },
    {
      "inputs": [
        {
          "internalType": "uint256",
          "name": "_newRaisingFee",
          "type": "uint256"
        }
      ],
      "name": "setDefaultRaisingFee",
      "outputs": [],
      "stateMutability": "nonpayable",
      "type": "function"
    },
    {
      "inputs": [
        {
          "internalType": "uint256",
          "name": "_newTokenFee",
          "type": "uint256"
        }
      ],
      "name": "setDefaultTokenFee",
      "outputs": [],
      "stateMutability": "nonpayable",
      "type": "function"
    },
    {
      "inputs": [
        {
          "internalType": "address",
          "name": "addr",
          "type": "address"
        },
        {
          "internalType": "uint256",
          "name": "_newDeploymentFee",
          "type": "uint256"
        }
      ],
      "name": "setDeploymentFeeForAddress",
      "outputs": [],
      "stateMutability": "nonpayable",
      "type": "function"
    },
    {
      "inputs": [
        {
          "internalType": "address payable",
          "name": "addr",
          "type": "address"
        }
      ],
      "name": "setDeploymentFeeRecipient",
      "outputs": [],
      "stateMutability": "nonpayable",
      "type": "function"
    },
    {
      "inputs": [
        {
          "internalType": "address",
          "name": "addr",
          "type": "address"
        },
        {
          "internalType": "uint256",
          "name": "_newRaisingFee",
          "type": "uint256"
        }
      ],
      "name": "setRaisingFeeForAddress",
      "outputs": [],
      "stateMutability": "nonpayable",
      "type": "function"
    },
    {
      "inputs": [
        {
          "internalType": "address payable",
          "name": "addr",
          "type": "address"
        }
      ],
      "name": "setRaisingFeeRecipient",
      "outputs": [],
      "stateMutability": "nonpayable",
      "type": "function"
    },
    {
      "inputs": [
        {
          "internalType": "address",
          "name": "addr",
          "type": "address"
        },
        {
          "internalType": "uint256",
          "name": "_newTokenFee",
          "type": "uint256"
        }
      ],
      "name": "setTokenFeeForAddress",
      "outputs": [],
      "stateMutability": "nonpayable",
      "type": "function"
    },
    {
      "inputs": [
        {
          "internalType": "address",
          "name": "addr",
          "type": "address"
        }
      ],
      "name": "setTokenFeeRecipient",
      "outputs": [],
      "stateMutability": "nonpayable",
      "type": "function"
    },
    {
      "inputs": [
        {
          "internalType": "address",
          "name": "",
          "type": "address"
        }
      ],
      "name": "tokenFeeForAddress",
      "outputs": [
        {
          "internalType": "uint256",
          "name": "",
          "type": "uint256"
        }
      ],
      "stateMutability": "view",
      "type": "function"
    },
    {
      "inputs": [],
      "name": "tokenFeeRecipient",
      "outputs": [
        {
          "internalType": "address",
          "name": "",
          "type": "address"
        }
      ],
      "stateMutability": "view",
      "type": "function"
    },
    {
      "inputs": [
        {
          "internalType": "address",
          "name": "newOwner",
          "type": "address"
        }
      ],
      "name": "transferOwnership",
      "outputs": [],
      "stateMutability": "nonpayable",
      "type": "function"
    }
  ],
  "bytecode": "0x608060405234801561001057600080fd5b5061001a3361004b565b60088054336001600160a01b0319918216811790925560098054821683179055600a8054909116909117905561009b565b600080546001600160a01b038381166001600160a01b0319831681178455604051919092169283917f8be0079c531659141344cd1fd0a4f28419497f9722a3daafe3b4186f6b6457e09190a35050565b61180a806100aa6000396000f3fe60806040526004361061018b5760003560e01c80638da5cb5b116100d6578063db3f12201161007f578063f2fde38b11610059578063f2fde38b146104a2578063f6f415cb146104c2578063f87ca9f7146104e257600080fd5b8063db3f122014610442578063e9a9f68a14610462578063f0ba84401461048257600080fd5b8063a87d942c116100b0578063a87d942c146103e0578063b4be506e146103f5578063c62cabd21461041557600080fd5b80638da5cb5b1461036857806397ddbd5c14610393578063a6e34510146103c057600080fd5b806356c93073116101385780637bed748a116101125780637bed748a146103065780637ddfe1781461031b5780638770d6a31461033b57600080fd5b806356c93073146102a4578063574c3e84146102d1578063715018a6146102f157600080fd5b80632d857e98116101695780632d857e981461020557806334451f22146102255780633b9acce11461027757600080fd5b806302158bc61461019057806311564b86146101d05780632977f0ba146101e5575b600080fd5b34801561019c57600080fd5b506101bd6101ab3660046113c7565b60046020526000908152604090205481565b6040519081526020015b60405180910390f35b6101e36101de36600461141a565b610502565b005b3480156101f157600080fd5b506101e361020036600461153e565b610840565b34801561021157600080fd5b506101e36102203660046113c7565b61084d565b34801561023157600080fd5b506008546102529073ffffffffffffffffffffffffffffffffffffffff1681565b60405173ffffffffffffffffffffffffffffffffffffffff90911681526020016101c7565b34801561028357600080fd5b50600a546102529073ffffffffffffffffffffffffffffffffffffffff1681565b3480156102b057600080fd5b506101bd6102bf3660046113c7565b60036020526000908152604090205481565b3480156102dd57600080fd5b506101e36102ec366004611557565b61089c565b3480156102fd57600080fd5b506101e36108cd565b34801561031257600080fd5b506101bd6108e1565b34801561032757600080fd5b506101e3610336366004611557565b610933565b34801561034757600080fd5b506009546102529073ffffffffffffffffffffffffffffffffffffffff1681565b34801561037457600080fd5b5060005473ffffffffffffffffffffffffffffffffffffffff16610252565b34801561039f57600080fd5b506103b36103ae3660046113c7565b6109f6565b6040516101c79190611583565b3480156103cc57600080fd5b506101e36103db36600461153e565b610cc3565b3480156103ec57600080fd5b506001546101bd565b34801561040157600080fd5b506103b36104103660046113c7565b610d62565b34801561042157600080fd5b506101bd6104303660046113c7565b60026020526000908152604090205481565b34801561044e57600080fd5b506101e361045d3660046113c7565b610f52565b34801561046e57600080fd5b506101e361047d366004611557565b610fa1565b34801561048e57600080fd5b5061025261049d36600461153e565b611064565b3480156104ae57600080fd5b506101e36104bd3660046113c7565b61109b565b3480156104ce57600080fd5b506101e36104dd36600461153e565b611152565b3480156104ee57600080fd5b506101e36104fd3660046113c7565b6111f1565b61050a611240565b33600090815260026020526040902054156106c957336000908152600260205260409020543410156105c3576040517f08c379a000000000000000000000000000000000000000000000000000000000815260206004820152602660248201527f596f75206e65656420746f2070726f7669646520746865206465706c6f796d6560448201527f6e7420666565000000000000000000000000000000000000000000000000000060648201526084015b60405180910390fd5b6105cb6112c1565b60006105d5611307565b905060006105e16108e1565b9050600073__$e7afaab436e08fd88a264d583599531b70$__63a3c362398b8b8b8b8b8b8a8a600960009054906101000a900473ffffffffffffffffffffffffffffffffffffffff16600a60009054906101000a900473ffffffffffffffffffffffffffffffffffffffff168f6040518c63ffffffff1660e01b81526004016106749b9a999897969594939291906115dd565b602060405180830381865af4158015610691573d6000803e3d6000fd5b505050506040513d601f19601f820116820180604052508101906106b591906116c2565b90506106c081610d62565b50505050610837565b600554341015610735576040517f08c379a000000000000000000000000000000000000000000000000000000000815260206004820152601f60248201527f4465706c6f796d656e742066656520776173206e6f742070726f76696465640060448201526064016105ba565b61073d6112c1565b6000610747611307565b905060006107536108e1565b9050600073__$e7afaab436e08fd88a264d583599531b70$__63a3c362398b8b8b8b8b8b8a8a600960009054906101000a900473ffffffffffffffffffffffffffffffffffffffff16600a60009054906101000a900473ffffffffffffffffffffffffffffffffffffffff168f6040518c63ffffffff1660e01b81526004016107e69b9a999897969594939291906115dd565b602060405180830381865af4158015610803573d6000803e3d6000fd5b505050506040513d601f19601f8201168201806040525081019061082791906116c2565b905061083281610d62565b505050505b50505050505050565b610848611240565b600555565b610855611240565b600a80547fffffffffffffffffffffffff00000000000000000000000000000000000000001673ffffffffffffffffffffffffffffffffffffffff92909216919091179055565b6108a4611240565b73ffffffffffffffffffffffffffffffffffffffff909116600090815260026020526040902055565b6108d5611240565b6108df6000611330565b565b3360009081526004602052604081205481901561092b5760046000335b73ffffffffffffffffffffffffffffffffffffffff16815260208101919091526040016000205492915050565b505060075490565b61093b611240565b6127108111156109cd576040517f08c379a000000000000000000000000000000000000000000000000000000000815260206004820152602360248201527f546f6b656e206665652073686f756c64206265206c6f776572207468616e203160448201527f303025000000000000000000000000000000000000000000000000000000000060648201526084016105ba565b73ffffffffffffffffffffffffffffffffffffffff909116600090815260036020526040902055565b6060610a00611240565b60005b600154811015610c53578273ffffffffffffffffffffffffffffffffffffffff1660018281548110610a3757610a376116df565b60009182526020909120015473ffffffffffffffffffffffffffffffffffffffff161415610c41577f6621d567d44a618275066b55f8a00757c0b69c28aa30a30522dc0b67b74f43b160018281548110610a9357610a936116df565b6000918252602091829020015460405173ffffffffffffffffffffffffffffffffffffffff90911681520160405180910390a160018181548110610ad957610ad96116df565b600091825260209091200180547fffffffffffffffffffffffff0000000000000000000000000000000000000000169055805b60018054610b1a919061173d565b811015610bd6576001610b2d8382611754565b81548110610b3d57610b3d6116df565b6000918252602090912001546001805473ffffffffffffffffffffffffffffffffffffffff9092169183908110610b7657610b766116df565b600091825260209091200180547fffffffffffffffffffffffff00000000000000000000000000000000000000001673ffffffffffffffffffffffffffffffffffffffff9290921691909117905580610bce8161176c565b915050610b0c565b506001805480610be857610be86117a5565b60008281526020902081017fffffffffffffffffffffffffffffffffffffffffffffffffffffffffffffffff90810180547fffffffffffffffffffffffff00000000000000000000000000000000000000001690550190555b80610c4b8161176c565b915050610a03565b506001805480602002602001604051908101604052809291908181526020018280548015610cb757602002820191906000526020600020905b815473ffffffffffffffffffffffffffffffffffffffff168152600190910190602001808311610c8c575b50505050509050919050565b610ccb611240565b612710811115610d5d576040517f08c379a000000000000000000000000000000000000000000000000000000000815260206004820152602360248201527f546f6b656e206665652073686f756c64206265206c6f776572207468616e203160448201527f303025000000000000000000000000000000000000000000000000000000000060648201526084016105ba565b600655565b6060610d6c611240565b60005b600154811015610e3f578273ffffffffffffffffffffffffffffffffffffffff1660018281548110610da357610da36116df565b60009182526020909120015473ffffffffffffffffffffffffffffffffffffffff161415610e2d576040517f08c379a000000000000000000000000000000000000000000000000000000000815260206004820152601760248201527f6164647265737320616c72656164792070726573656e7400000000000000000060448201526064016105ba565b80610e378161176c565b915050610d6f565b506001805480820182556000919091527fb10e2d527612073b26eecdfd717e6a320cf44b4afac2b0732d9fcbe2b7fa0cf60180547fffffffffffffffffffffffff00000000000000000000000000000000000000001673ffffffffffffffffffffffffffffffffffffffff84169081179091556040519081527f119545c6b18ffc48d6bdc36794ae7c32b6b4031c6cb72d84f9a1d429a7c570449060200160405180910390a16001805480602002602001604051908101604052809291908181526020018280548015610cb75760200282019190600052602060002090815473ffffffffffffffffffffffffffffffffffffffff168152600190910190602001808311610c8c5750505050509050919050565b610f5a611240565b600980547fffffffffffffffffffffffff00000000000000000000000000000000000000001673ffffffffffffffffffffffffffffffffffffffff92909216919091179055565b610fa9611240565b61271081111561103b576040517f08c379a000000000000000000000000000000000000000000000000000000000815260206004820152602360248201527f546f6b656e206665652073686f756c64206265206c6f776572207468616e203160448201527f303025000000000000000000000000000000000000000000000000000000000060648201526084016105ba565b73ffffffffffffffffffffffffffffffffffffffff909116600090815260046020526040902055565b6001818154811061107457600080fd5b60009182526020909120015473ffffffffffffffffffffffffffffffffffffffff16905081565b6110a3611240565b73ffffffffffffffffffffffffffffffffffffffff8116611146576040517f08c379a000000000000000000000000000000000000000000000000000000000815260206004820152602660248201527f4f776e61626c653a206e6577206f776e657220697320746865207a65726f206160448201527f646472657373000000000000000000000000000000000000000000000000000060648201526084016105ba565b61114f81611330565b50565b61115a611240565b6127108111156111ec576040517f08c379a000000000000000000000000000000000000000000000000000000000815260206004820152602360248201527f546f6b656e206665652073686f756c64206265206c6f776572207468616e203160448201527f303025000000000000000000000000000000000000000000000000000000000060648201526084016105ba565b600755565b6111f9611240565b600880547fffffffffffffffffffffffff00000000000000000000000000000000000000001673ffffffffffffffffffffffffffffffffffffffff92909216919091179055565b60005473ffffffffffffffffffffffffffffffffffffffff1633146108df576040517f08c379a000000000000000000000000000000000000000000000000000000000815260206004820181905260248201527f4f776e61626c653a2063616c6c6572206973206e6f7420746865206f776e657260448201526064016105ba565b60085460405173ffffffffffffffffffffffffffffffffffffffff909116903480156108fc02916000818181858888f1935050505015801561114f573d6000803e3d6000fd5b336000908152600360205260408120548190156113285760036000336108fe565b505060065490565b6000805473ffffffffffffffffffffffffffffffffffffffff8381167fffffffffffffffffffffffff0000000000000000000000000000000000000000831681178455604051919092169283917f8be0079c531659141344cd1fd0a4f28419497f9722a3daafe3b4186f6b6457e09190a35050565b73ffffffffffffffffffffffffffffffffffffffff8116811461114f57600080fd5b6000602082840312156113d957600080fd5b81356113e4816113a5565b9392505050565b7f4e487b7100000000000000000000000000000000000000000000000000000000600052604160045260246000fd5b600080600080600080600060e0888a03121561143557600080fd5b873596506020880135611447816113a5565b95506040880135611457816113a5565b94506060880135611467816113a5565b93506080880135925060a0880135915060c088013567ffffffffffffffff8082111561149257600080fd5b818a0191508a601f8301126114a657600080fd5b8135818111156114b8576114b86113eb565b604051601f82017fffffffffffffffffffffffffffffffffffffffffffffffffffffffffffffffe0908116603f011681019083821181831017156114fe576114fe6113eb565b816040528281528d602084870101111561151757600080fd5b82602086016020830137600060208483010152809550505050505092959891949750929550565b60006020828403121561155057600080fd5b5035919050565b6000806040838503121561156a57600080fd5b8235611575816113a5565b946020939093013593505050565b6020808252825182820181905260009190848201906040850190845b818110156115d157835173ffffffffffffffffffffffffffffffffffffffff168352928401929184019160010161159f565b50909695505050505050565b60006101608d8352602073ffffffffffffffffffffffffffffffffffffffff808f1682860152808e166040860152808d1660608601528b60808601528a60a08601528960c08601528860e0860152808816610100860152808716610120860152508161014085015284518083860152600092505b8083101561167057858301820151858401610180015291810191611651565b8083111561168357600061018082870101525b601f017fffffffffffffffffffffffffffffffffffffffffffffffffffffffffffffffe01693909301610180019e9d5050505050505050505050505050565b6000602082840312156116d457600080fd5b81516113e4816113a5565b7f4e487b7100000000000000000000000000000000000000000000000000000000600052603260045260246000fd5b7f4e487b7100000000000000000000000000000000000000000000000000000000600052601160045260246000fd5b60008282101561174f5761174f61170e565b500390565b600082198211156117675761176761170e565b500190565b60007fffffffffffffffffffffffffffffffffffffffffffffffffffffffffffffffff82141561179e5761179e61170e565b5060010190565b7f4e487b7100000000000000000000000000000000000000000000000000000000600052603160045260246000fdfea26469706673582212201f7a21398d1d88664e34fed9bb5c0b00f079895f2ca57e2bc0ab72679968ca5c64736f6c634300080a0033",
  "linkReferences": {
    "contracts/SeedFactory.sol": {
      "SeedDeployer": [
        {
          "length": 20,
          "start": 1681
        },
        {
          "length": 20,
          "start": 2051
        }
      ]
    }
  },
  "deployedLinkReferences": {
    "contracts/SeedFactory.sol": {
      "SeedDeployer": [
        {
          "length": 20,
          "start": 1511
        },
        {
          "length": 20,
          "start": 1881
        }
      ]
    }
  }
}