{
  "_format": "hh-sol-artifact-1",
  "contractName": "Seed",
  "sourceName": "contracts/Seed.sol",
  "abi": [
    {
      "inputs": [
        {
          "internalType": "uint256",
          "name": "rate",
          "type": "uint256"
        },
        {
          "internalType": "address payable",
          "name": "wallet",
          "type": "address"
        },
        {
          "internalType": "contract IERC20",
          "name": "token",
          "type": "address"
        },
        {
          "internalType": "contract IERC20",
          "name": "acceptedToken",
          "type": "address"
        },
        {
          "internalType": "uint256",
          "name": "_startTime",
          "type": "uint256"
        },
        {
          "internalType": "uint256",
          "name": "_endTime",
          "type": "uint256"
        },
        {
          "internalType": "uint256",
          "name": "_tokenFee",
          "type": "uint256"
        },
        {
          "internalType": "uint256",
          "name": "_raisingFee",
          "type": "uint256"
        },
        {
          "internalType": "address",
          "name": "_tokenFeeRecipient",
          "type": "address"
        },
        {
          "internalType": "address payable",
          "name": "_raisingFeeRecipient",
          "type": "address"
        },
        {
          "internalType": "string",
          "name": "_name",
          "type": "string"
        }
      ],
      "stateMutability": "nonpayable",
      "type": "constructor"
    },
    {
      "anonymous": false,
      "inputs": [
        {
          "indexed": true,
          "internalType": "address",
          "name": "previousOwner",
          "type": "address"
        },
        {
          "indexed": true,
          "internalType": "address",
          "name": "newOwner",
          "type": "address"
        }
      ],
      "name": "OwnershipTransferred",
      "type": "event"
    },
    {
      "anonymous": false,
      "inputs": [
        {
          "indexed": false,
          "internalType": "address",
          "name": "token",
          "type": "address"
        },
        {
          "indexed": false,
          "internalType": "uint256",
          "name": "amount",
          "type": "uint256"
        }
      ],
      "name": "Recovered",
      "type": "event"
    },
    {
      "anonymous": false,
      "inputs": [
        {
          "indexed": true,
          "internalType": "address",
          "name": "purchaser",
          "type": "address"
        },
        {
          "indexed": true,
          "internalType": "address",
          "name": "beneficiary",
          "type": "address"
        },
        {
          "indexed": false,
          "internalType": "uint256",
          "name": "value",
          "type": "uint256"
        },
        {
          "indexed": false,
          "internalType": "uint256",
          "name": "amount",
          "type": "uint256"
        }
      ],
      "name": "TokensPurchased",
      "type": "event"
    },
    {
      "stateMutability": "payable",
      "type": "fallback"
    },
    {
      "inputs": [],
      "name": "acceptedToken",
      "outputs": [
        {
          "internalType": "contract IERC20",
          "name": "",
          "type": "address"
        }
      ],
      "stateMutability": "view",
      "type": "function"
    },
    {
      "inputs": [],
      "name": "accessNFT",
      "outputs": [
        {
          "internalType": "contract ERC721",
          "name": "",
          "type": "address"
        }
      ],
      "stateMutability": "view",
      "type": "function"
    },
    {
      "inputs": [],
      "name": "accessNTT",
      "outputs": [
        {
          "internalType": "contract IERC4671",
          "name": "",
          "type": "address"
        }
      ],
      "stateMutability": "view",
      "type": "function"
    },
    {
      "inputs": [],
      "name": "accessToken",
      "outputs": [
        {
          "internalType": "contract IERC20",
          "name": "",
          "type": "address"
        }
      ],
      "stateMutability": "view",
      "type": "function"
    },
    {
      "inputs": [
        {
          "internalType": "address",
          "name": "_emittedToken",
          "type": "address"
        },
        {
          "internalType": "address",
          "name": "_from",
          "type": "address"
        },
        {
          "internalType": "uint256",
          "name": "_amount",
          "type": "uint256"
        }
      ],
      "name": "addTokens",
      "outputs": [],
      "stateMutability": "nonpayable",
      "type": "function"
    },
    {
      "inputs": [
        {
          "internalType": "bool",
          "name": "_isSaleOpenForAllTiers",
          "type": "bool"
        }
      ],
      "name": "allowAllTierAccess",
      "outputs": [],
      "stateMutability": "nonpayable",
      "type": "function"
    },
    {
      "inputs": [
        {
          "internalType": "address",
          "name": "beneficiary",
          "type": "address"
        }
      ],
      "name": "buyTokens",
      "outputs": [],
      "stateMutability": "payable",
      "type": "function"
    },
    {
      "inputs": [
        {
          "internalType": "address",
          "name": "beneficiary",
          "type": "address"
        },
        {
          "internalType": "uint256",
          "name": "acceptedTokenAmount",
          "type": "uint256"
        }
      ],
      "name": "buyTokensWithToken",
      "outputs": [],
      "stateMutability": "nonpayable",
      "type": "function"
    },
    {
      "inputs": [],
      "name": "capForNFT",
      "outputs": [
        {
          "internalType": "uint256",
          "name": "",
          "type": "uint256"
        }
      ],
      "stateMutability": "view",
      "type": "function"
    },
    {
      "inputs": [],
      "name": "capForNTT",
      "outputs": [
        {
          "internalType": "uint256",
          "name": "",
          "type": "uint256"
        }
      ],
      "stateMutability": "view",
      "type": "function"
    },
    {
      "inputs": [
        {
          "internalType": "address",
          "name": "",
          "type": "address"
        }
      ],
      "name": "capPerAddress",
      "outputs": [
        {
          "internalType": "uint256",
          "name": "",
          "type": "uint256"
        }
      ],
      "stateMutability": "view",
      "type": "function"
    },
    {
      "inputs": [],
      "name": "capPerAddressEnabled",
      "outputs": [
        {
          "internalType": "bool",
          "name": "",
          "type": "bool"
        }
      ],
      "stateMutability": "view",
      "type": "function"
    },
    {
      "inputs": [],
      "name": "cliffDuration",
      "outputs": [
        {
          "internalType": "uint256",
          "name": "",
          "type": "uint256"
        }
      ],
      "stateMutability": "view",
      "type": "function"
    },
    {
      "inputs": [
        {
          "internalType": "address",
          "name": "",
          "type": "address"
        }
      ],
      "name": "cliffPeriod",
      "outputs": [
        {
          "internalType": "uint256",
          "name": "",
          "type": "uint256"
        }
      ],
      "stateMutability": "view",
      "type": "function"
    },
    {
      "inputs": [
        {
          "internalType": "address",
          "name": "",
          "type": "address"
        }
      ],
      "name": "contributions",
      "outputs": [
        {
          "internalType": "uint256",
          "name": "",
          "type": "uint256"
        }
      ],
      "stateMutability": "view",
      "type": "function"
    },
    {
      "inputs": [],
      "name": "createdTimestamp",
      "outputs": [
        {
          "internalType": "uint256",
          "name": "",
          "type": "uint256"
        }
      ],
      "stateMutability": "view",
      "type": "function"
    },
    {
      "inputs": [],
      "name": "dealVisibility",
      "outputs": [
        {
          "internalType": "bool",
          "name": "",
          "type": "bool"
        }
      ],
      "stateMutability": "view",
      "type": "function"
    },
    {
      "inputs": [],
      "name": "endTime",
      "outputs": [
        {
          "internalType": "uint256",
          "name": "",
          "type": "uint256"
        }
      ],
      "stateMutability": "view",
      "type": "function"
    },
    {
      "inputs": [],
      "name": "fixed1",
      "outputs": [
        {
          "internalType": "uint256",
          "name": "",
          "type": "uint256"
        }
      ],
      "stateMutability": "pure",
      "type": "function"
    },
    {
      "inputs": [
        {
          "internalType": "address",
          "name": "beneficiary",
          "type": "address"
        }
      ],
      "name": "getAccessTokenBalance",
      "outputs": [
        {
          "internalType": "uint256",
          "name": "",
          "type": "uint256"
        }
      ],
      "stateMutability": "view",
      "type": "function"
    },
    {
      "inputs": [
        {
          "internalType": "address",
          "name": "beneficiary",
          "type": "address"
        }
      ],
      "name": "getContribution",
      "outputs": [
        {
          "internalType": "uint256",
          "name": "",
          "type": "uint256"
        }
      ],
      "stateMutability": "view",
      "type": "function"
    },
    {
      "inputs": [
        {
          "internalType": "uint256",
          "name": "accessTokenBalance",
          "type": "uint256"
        }
      ],
      "name": "getTier",
      "outputs": [
        {
          "internalType": "enum Seed.Tiers",
          "name": "",
          "type": "uint8"
        }
      ],
      "stateMutability": "view",
      "type": "function"
    },
    {
      "inputs": [],
      "name": "isSaleOpenForAllTiers",
      "outputs": [
        {
          "internalType": "bool",
          "name": "",
          "type": "bool"
        }
      ],
      "stateMutability": "view",
      "type": "function"
    },
    {
      "inputs": [],
      "name": "name",
      "outputs": [
        {
          "internalType": "string",
          "name": "",
          "type": "string"
        }
      ],
      "stateMutability": "view",
      "type": "function"
    },
    {
      "inputs": [],
      "name": "owner",
      "outputs": [
        {
          "internalType": "address",
          "name": "",
          "type": "address"
        }
      ],
      "stateMutability": "view",
      "type": "function"
    },
    {
      "inputs": [],
      "name": "percentageVested",
      "outputs": [
        {
          "internalType": "uint8",
          "name": "",
          "type": "uint8"
        }
      ],
      "stateMutability": "view",
      "type": "function"
    },
    {
      "inputs": [],
      "name": "raisingFee",
      "outputs": [
        {
          "internalType": "uint256",
          "name": "",
          "type": "uint256"
        }
      ],
      "stateMutability": "view",
      "type": "function"
    },
    {
      "inputs": [],
      "name": "rate",
      "outputs": [
        {
          "internalType": "uint256",
          "name": "",
          "type": "uint256"
        }
      ],
      "stateMutability": "view",
      "type": "function"
    },
    {
      "inputs": [
        {
          "internalType": "address",
          "name": "tokenAddress",
          "type": "address"
        },
        {
          "internalType": "uint256",
          "name": "tokenAmount",
          "type": "uint256"
        }
      ],
      "name": "recoverERC20",
      "outputs": [],
      "stateMutability": "nonpayable",
      "type": "function"
    },
    {
      "inputs": [],
      "name": "renounceOwnership",
      "outputs": [],
      "stateMutability": "nonpayable",
      "type": "function"
    },
    {
      "inputs": [],
      "name": "seedUpdateable",
      "outputs": [
        {
          "internalType": "bool",
          "name": "",
          "type": "bool"
        }
      ],
      "stateMutability": "view",
      "type": "function"
    },
    {
      "inputs": [
        {
          "internalType": "contract ERC721",
          "name": "_accessNFT",
          "type": "address"
        },
        {
          "internalType": "uint256",
          "name": "_capForNFT",
          "type": "uint256"
        }
      ],
      "name": "setAccessNFT",
      "outputs": [],
      "stateMutability": "nonpayable",
      "type": "function"
    },
    {
      "inputs": [
        {
          "internalType": "contract IERC4671",
          "name": "_accessNTT",
          "type": "address"
        },
        {
          "internalType": "uint256",
          "name": "_capForNTT",
          "type": "uint256"
        }
      ],
      "name": "setAccessNTT",
      "outputs": [],
      "stateMutability": "nonpayable",
      "type": "function"
    },
    {
      "inputs": [
        {
          "internalType": "contract IERC20",
          "name": "_accessToken",
          "type": "address"
        },
        {
          "internalType": "uint256",
          "name": "_tier1",
          "type": "uint256"
        },
        {
          "internalType": "uint256",
          "name": "_tier2",
          "type": "uint256"
        },
        {
          "internalType": "uint256",
          "name": "_tier3",
          "type": "uint256"
        },
        {
          "internalType": "uint256",
          "name": "_tier4",
          "type": "uint256"
        },
        {
          "internalType": "uint256",
          "name": "_tier1Cap",
          "type": "uint256"
        },
        {
          "internalType": "uint256",
          "name": "_tier2Cap",
          "type": "uint256"
        },
        {
          "internalType": "uint256",
          "name": "_tier3Cap",
          "type": "uint256"
        },
        {
          "internalType": "uint256",
          "name": "_tier4Cap",
          "type": "uint256"
        }
      ],
      "name": "setAccessToken",
      "outputs": [],
      "stateMutability": "nonpayable",
      "type": "function"
    },
    {
      "inputs": [
        {
          "internalType": "bool",
          "name": "_dealVisibility",
          "type": "bool"
        }
      ],
      "name": "setDealVisiblity",
      "outputs": [],
      "stateMutability": "nonpayable",
      "type": "function"
    },
    {
      "inputs": [],
      "name": "setNonUpdateable",
      "outputs": [],
      "stateMutability": "nonpayable",
      "type": "function"
    },
    {
      "inputs": [
        {
          "internalType": "bool",
          "name": "_vestingEnabled",
          "type": "bool"
        },
        {
          "internalType": "uint256",
          "name": "_cliffDuration",
          "type": "uint256"
        },
        {
          "internalType": "uint256",
          "name": "_vestingDuration",
          "type": "uint256"
        },
        {
          "internalType": "uint8",
          "name": "_percentageVested",
          "type": "uint8"
        }
      ],
      "name": "setVesting",
      "outputs": [],
      "stateMutability": "nonpayable",
      "type": "function"
    },
    {
      "inputs": [
        {
          "internalType": "address[]",
          "name": "_addresses",
          "type": "address[]"
        },
        {
          "internalType": "uint256[]",
          "name": "_caps",
          "type": "uint256[]"
        },
        {
          "internalType": "bool",
          "name": "_enabled",
          "type": "bool"
        }
      ],
      "name": "setWhitelistedAddresses",
      "outputs": [],
      "stateMutability": "nonpayable",
      "type": "function"
    },
    {
      "inputs": [],
      "name": "startTime",
      "outputs": [
        {
          "internalType": "uint256",
          "name": "",
          "type": "uint256"
        }
      ],
      "stateMutability": "view",
      "type": "function"
    },
    {
      "inputs": [],
      "name": "tier1",
      "outputs": [
        {
          "internalType": "uint256",
          "name": "",
          "type": "uint256"
        }
      ],
      "stateMutability": "view",
      "type": "function"
    },
    {
      "inputs": [],
      "name": "tier1Cap",
      "outputs": [
        {
          "internalType": "uint256",
          "name": "",
          "type": "uint256"
        }
      ],
      "stateMutability": "view",
      "type": "function"
    },
    {
      "inputs": [],
      "name": "tier2",
      "outputs": [
        {
          "internalType": "uint256",
          "name": "",
          "type": "uint256"
        }
      ],
      "stateMutability": "view",
      "type": "function"
    },
    {
      "inputs": [],
      "name": "tier2Cap",
      "outputs": [
        {
          "internalType": "uint256",
          "name": "",
          "type": "uint256"
        }
      ],
      "stateMutability": "view",
      "type": "function"
    },
    {
      "inputs": [],
      "name": "tier3",
      "outputs": [
        {
          "internalType": "uint256",
          "name": "",
          "type": "uint256"
        }
      ],
      "stateMutability": "view",
      "type": "function"
    },
    {
      "inputs": [],
      "name": "tier3Cap",
      "outputs": [
        {
          "internalType": "uint256",
          "name": "",
          "type": "uint256"
        }
      ],
      "stateMutability": "view",
      "type": "function"
    },
    {
      "inputs": [],
      "name": "tier4",
      "outputs": [
        {
          "internalType": "uint256",
          "name": "",
          "type": "uint256"
        }
      ],
      "stateMutability": "view",
      "type": "function"
    },
    {
      "inputs": [],
      "name": "tier4Cap",
      "outputs": [
        {
          "internalType": "uint256",
          "name": "",
          "type": "uint256"
        }
      ],
      "stateMutability": "view",
      "type": "function"
    },
    {
      "inputs": [],
      "name": "token",
      "outputs": [
        {
          "internalType": "contract IERC20",
          "name": "",
          "type": "address"
        }
      ],
      "stateMutability": "view",
      "type": "function"
    },
    {
      "inputs": [],
      "name": "tokenFee",
      "outputs": [
        {
          "internalType": "uint256",
          "name": "",
          "type": "uint256"
        }
      ],
      "stateMutability": "view",
      "type": "function"
    },
    {
      "inputs": [],
      "name": "totalOffered",
      "outputs": [
        {
          "internalType": "uint256",
          "name": "",
          "type": "uint256"
        }
      ],
      "stateMutability": "view",
      "type": "function"
    },
    {
      "inputs": [
        {
          "internalType": "address",
          "name": "newOwner",
          "type": "address"
        }
      ],
      "name": "transferOwnership",
      "outputs": [],
      "stateMutability": "nonpayable",
      "type": "function"
    },
    {
      "inputs": [],
      "name": "vault",
      "outputs": [
        {
          "internalType": "contract TokenVault",
          "name": "",
          "type": "address"
        }
      ],
      "stateMutability": "view",
      "type": "function"
    },
    {
      "inputs": [
        {
          "internalType": "address",
          "name": "",
          "type": "address"
        }
      ],
      "name": "vestedBalances",
      "outputs": [
        {
          "internalType": "uint256",
          "name": "",
          "type": "uint256"
        }
      ],
      "stateMutability": "view",
      "type": "function"
    },
    {
      "inputs": [],
      "name": "vestingDuration",
      "outputs": [
        {
          "internalType": "uint256",
          "name": "",
          "type": "uint256"
        }
      ],
      "stateMutability": "view",
      "type": "function"
    },
    {
      "inputs": [],
      "name": "vestingEnabled",
      "outputs": [
        {
          "internalType": "bool",
          "name": "",
          "type": "bool"
        }
      ],
      "stateMutability": "view",
      "type": "function"
    },
    {
      "inputs": [
        {
          "internalType": "address",
          "name": "",
          "type": "address"
        }
      ],
      "name": "vestingPeriod",
      "outputs": [
        {
          "internalType": "uint256",
          "name": "",
          "type": "uint256"
        }
      ],
      "stateMutability": "view",
      "type": "function"
    },
    {
      "inputs": [],
      "name": "wallet",
      "outputs": [
        {
          "internalType": "address payable",
          "name": "",
          "type": "address"
        }
      ],
      "stateMutability": "view",
      "type": "function"
    },
    {
      "inputs": [],
      "name": "weiRaised",
      "outputs": [
        {
          "internalType": "uint256",
          "name": "",
          "type": "uint256"
        }
      ],
      "stateMutability": "view",
      "type": "function"
    },
    {
      "inputs": [
        {
          "internalType": "address",
          "name": "beneficiary",
          "type": "address"
        }
      ],
      "name": "withdrawTokens",
      "outputs": [],
      "stateMutability": "nonpayable",
      "type": "function"
    },
    {
      "stateMutability": "payable",
      "type": "receive"
    }
  ],
  "bytecode": "0x60806040526011805462ffffff19166101001790556021805460ff191660011790553480156200002e57600080fd5b5060405162004def38038062004def83398101604081905262000051916200068d565b6001600055898b86868686858f8f612710871115620000b75760405162461bcd60e51b815260206004820152601e60248201527f546f6b656e206665652073686f756c642062652062656c6f772031303025000060448201526064015b60405180910390fd5b6127108611156200010b5760405162461bcd60e51b815260206004820152601e60248201527f546f6b656e206665652073686f756c642062652062656c6f77203130302500006044820152606401620000ae565b600088116200015d5760405162461bcd60e51b815260206004820152601460248201527f43726f776473616c653a207261746520697320300000000000000000000000006044820152606401620000ae565b6001600160a01b038316620001c35760405162461bcd60e51b815260206004820152602560248201527f43726f776473616c653a2077616c6c657420697320746865207a65726f206164604482015264647265737360d81b6064820152608401620000ae565b6001600160a01b038216620002275760405162461bcd60e51b8152602060048201526024808201527f43726f776473616c653a20746f6b656e20697320746865207a65726f206164646044820152637265737360e01b6064820152608401620000ae565b600497909755600880546001600160a01b03199081166001600160a01b03968716179091556009805482169486169490941790935560069590955560079390935560038054821693831693909317909255600180548316938216939093179092556002805490911691909216179055620002a1816200048f565b506000815111620002e55760405162461bcd60e51b815260206004820152600d60248201526c5469746c65206d697373696e6760981b6044820152606401620000ae565b8051620002fa906010906020840190620004e1565b50604051620003099062000570565b604051809103906000f08015801562000326573d6000803e3d6000fd5b50602180546001600160a01b039290921661010002610100600160a81b03199092169190911790554260165586620003625742601f55620003c5565b42871015620003bf5760405162461bcd60e51b815260206004820152602260248201527f53746172742074696d652073686f756c6420626520696e207468652066757475604482015261726560f01b6064820152608401620000ae565b601f8790555b428611620004165760405162461bcd60e51b815260206004820181905260248201527f456e642074696d652073686f756c6420626520696e20746865206675747572656044820152606401620000ae565b60208690558686116200047e5760405162461bcd60e51b815260206004820152602960248201527f456e642074696d652073686f756c6420626520686967686572207468616e2073604482015268746172742074696d6560b81b6064820152608401620000ae565b5050505050505050505050620007a1565b600a80546001600160a01b038381166001600160a01b0319831681179093556040519116919082907f8be0079c531659141344cd1fd0a4f28419497f9722a3daafe3b4186f6b6457e090600090a35050565b828054620004ef9062000764565b90600052602060002090601f0160209004810192826200051357600085556200055e565b82601f106200052e57805160ff19168380011785556200055e565b828001600101855582156200055e579182015b828111156200055e57825182559160200191906001019062000541565b506200056c9291506200057e565b5090565b610462806200498d83390190565b5b808211156200056c57600081556001016200057f565b6001600160a01b0381168114620005ab57600080fd5b50565b8051620005bb8162000595565b919050565b634e487b7160e01b600052604160045260246000fd5b600082601f830112620005e857600080fd5b81516001600160401b0380821115620006055762000605620005c0565b604051601f8301601f19908116603f01168101908282118183101715620006305762000630620005c0565b816040528381526020925086838588010111156200064d57600080fd5b600091505b8382101562000671578582018301518183018401529082019062000652565b83821115620006835760008385830101525b9695505050505050565b60008060008060008060008060008060006101608c8e031215620006b057600080fd5b8b519a5060208c0151620006c48162000595565b60408d0151909a50620006d78162000595565b9850620006e760608d01620005ae565b975060808c0151965060a08c0151955060c08c0151945060e08c01519350620007146101008d01620005ae565b9250620007256101208d01620005ae565b6101408d01519092506001600160401b038111156200074357600080fd5b620007518e828f01620005d6565b9150509295989b509295989b9093969950565b600181811c908216806200077957607f821691505b602082108114156200079b57634e487b7160e01b600052602260045260246000fd5b50919050565b6141dc80620007b16000396000f3fe6080604052600436106103905760003560e01c80637367341c116101dc578063b9352c5111610102578063e243c5fb116100a0578063f08094551161006f578063f080945514610aa4578063f2fde38b14610aba578063fbfa77cf14610ada578063fc0c546a14610b0c576103a5565b8063e243c5fb14610a33578063e96e5b8714610a60578063ead2a93114610a76578063ec8ac4d814610a96576103a5565b8063cb3fdb61116100dc578063cb3fdb61146109b6578063d6e4e100146109e3578063d85349f7146109fd578063e009854314610a13576103a5565b8063b9352c5114610953578063bb6b13a114610980578063bc03555214610996576103a5565b80638daaf0a21161017a578063a9a356d411610149578063a9a356d4146108d0578063aaf3675f146108fd578063b6d7b9d21461091d578063b9046ec114610933576103a5565b80638daaf0a21461084257806394bebfbb14610862578063959cb78a1461088e578063a790aaf3146108bb576103a5565b80637e631682116101b65780637e631682146107b65780637f87bbd6146107d65780638980f11f146107f75780638da5cb5b14610817576103a5565b80637367341c1461077557806373e7ea3e1461078a57806378e97925146107a0576103a5565b80633806153e116102c1578063455991361161025f5780634f062c5a1161022e5780634f062c5a146106f2578063521eb2731461071f5780635c90d3181461074a578063715018a614610760576103a5565b80634559913614610688578063484d52711461069d57806349df728c146106bc5780634b1740ad146106dc576103a5565b80634042b66f1161029b5780634042b66f146105d057806342b2981c146105e557806342e94c901461060f578063451c3d801461063c576103a5565b80633806153e1461056d57806339d208b5146105835780633d78ed70146105b0576103a5565b80632c4e722e1161032e5780632ead72c4116103085780632ead72c41461050b5780633197cbb61461052b5780633243c5cc1461054157806333ae716614610557576103a5565b80632c4e722e146104a95780632cb452ce146104be5780632dc3fe6f146104de576103a5565b80631cf8e2081161036a5780631cf8e208146104135780632179bb6c1461043357806321eff7fc146104505780632897743314610493576103a5565b806306fdde03146103ae57806310309781146103d95780631514617e146103fd576103a5565b366103a5576103a333610b37565b610b37565b005b6103a333610b37565b3480156103ba57600080fd5b506103c3610cd5565b6040516103d09190613c66565b60405180910390f35b3480156103e557600080fd5b506103ef60165481565b6040519081526020016103d0565b34801561040957600080fd5b506103ef60135481565b34801561041f57600080fd5b506103a361042e366004613cc5565b610d63565b34801561043f57600080fd5b5069d3c21bcecceda10000006103ef565b34801561045c57600080fd5b506103ef61046b366004613d04565b73ffffffffffffffffffffffffffffffffffffffff166000908152600c602052604090205490565b34801561049f57600080fd5b506103ef601e5481565b3480156104b557600080fd5b506004546103ef565b3480156104ca57600080fd5b506103a36104d9366004613d21565b610e19565b3480156104ea57600080fd5b506103ef6104f9366004613d04565b600b6020526000908152604090205481565b34801561051757600080fd5b506103a3610526366004613d89565b61130d565b34801561053757600080fd5b506103ef60205481565b34801561054d57600080fd5b506103ef601c5481565b34801561056357600080fd5b506103ef601a5481565b34801561057957600080fd5b506103ef60185481565b34801561058f57600080fd5b506103ef61059e366004613d04565b600f6020526000908152604090205481565b3480156105bc57600080fd5b506103a36105cb366004613cc5565b611482565b3480156105dc57600080fd5b506005546103ef565b3480156105f157600080fd5b506021546105ff9060ff1681565b60405190151581526020016103d0565b34801561061b57600080fd5b506103ef61062a366004613d04565b600c6020526000908152604090205481565b34801561064857600080fd5b5060025473ffffffffffffffffffffffffffffffffffffffff165b60405173ffffffffffffffffffffffffffffffffffffffff90911681526020016103d0565b34801561069457600080fd5b506006546103ef565b3480156106a957600080fd5b506011546105ff90610100900460ff1681565b3480156106c857600080fd5b506103a36106d7366004613d04565b611532565b3480156106e857600080fd5b506103ef60195481565b3480156106fe57600080fd5b5061071261070d366004613db5565b611a02565b6040516103d09190613dfd565b34801561072b57600080fd5b5060035473ffffffffffffffffffffffffffffffffffffffff16610663565b34801561075657600080fd5b506103ef60265481565b34801561076c57600080fd5b506103a3611a8c565b34801561078157600080fd5b506103a3611aa0565b34801561079657600080fd5b506103ef601b5481565b3480156107ac57600080fd5b506103ef601f5481565b3480156107c257600080fd5b506103ef6107d1366004613d04565b611ad2565b3480156107e257600080fd5b506011546105ff906301000000900460ff1681565b34801561080357600080fd5b506103a3610812366004613d89565b611c14565b34801561082357600080fd5b50600a5473ffffffffffffffffffffffffffffffffffffffff16610663565b34801561084e57600080fd5b506103a361085d366004613e3e565b611dd3565b34801561086e57600080fd5b5060145461087c9060ff1681565b60405160ff90911681526020016103d0565b34801561089a57600080fd5b506103ef6108a9366004613d04565b600e6020526000908152604090205481565b3480156108c757600080fd5b506007546103ef565b3480156108dc57600080fd5b506024546106639073ffffffffffffffffffffffffffffffffffffffff1681565b34801561090957600080fd5b506011546105ff9062010000900460ff1681565b34801561092957600080fd5b506103ef601d5481565b34801561093f57600080fd5b506103a361094e366004613d89565b611e0d565b34801561095f57600080fd5b506023546106639073ffffffffffffffffffffffffffffffffffffffff1681565b34801561098c57600080fd5b506103ef60175481565b3480156109a257600080fd5b506103a36109b1366004613d89565b612062565b3480156109c257600080fd5b506103ef6109d1366004613d04565b600d6020526000908152604090205481565b3480156109ef57600080fd5b506011546105ff9060ff1681565b348015610a0957600080fd5b506103ef60125481565b348015610a1f57600080fd5b506103a3610a2e366004613ecb565b6121d7565b348015610a3f57600080fd5b506022546106639073ffffffffffffffffffffffffffffffffffffffff1681565b348015610a6c57600080fd5b506103ef60255481565b348015610a8257600080fd5b506103a3610a91366004613f4f565b6123d2565b6103a361039e366004613d04565b348015610ab057600080fd5b506103ef60155481565b348015610ac657600080fd5b506103a3610ad5366004613d04565b612619565b348015610ae657600080fd5b5060215461066390610100900473ffffffffffffffffffffffffffffffffffffffff1681565b348015610b1857600080fd5b5060015473ffffffffffffffffffffffffffffffffffffffff16610663565b610b3f6126cd565b6000610b62612710610b5c6007543461274190919063ffffffff16565b90612754565b90506000610b86612710610b5c600754612710610b7f9190613fce565b3490612741565b9050610b928382612760565b6000610b9d8261286a565b90506000610bbc612710610b5c6006548561274190919063ffffffff16565b90506000610be0612710610b5c600654612710610bd99190613fce565b8690612741565b600554909150610bf09085612889565b600555600854610c169073ffffffffffffffffffffffffffffffffffffffff1683612895565b610c2086826128b9565b604080518581526020810183905273ffffffffffffffffffffffffffffffffffffffff88169133917f6faf93231a456e552dbc9961f58d9713ee4f2e69d15f1975b050ef0911053a7b910160405180910390a3610c7d8685612bec565b600954610ca09073ffffffffffffffffffffffffffffffffffffffff1686613687565b600354610cc39073ffffffffffffffffffffffffffffffffffffffff1685613687565b5050505050610cd26001600055565b50565b60108054610ce290613fe5565b80601f0160208091040260200160405190810160405280929190818152602001828054610d0e90613fe5565b8015610d5b5780601f10610d3057610100808354040283529160200191610d5b565b820191906000526020600020905b815481529060010190602001808311610d3e57829003601f168201915b505050505081565b610d6b6136ca565b60215460ff161515600114610de1576040517f08c379a000000000000000000000000000000000000000000000000000000000815260206004820152601e60248201527f53656564206973206e6f742075706461746561626c6520616e796d6f7265000060448201526064015b60405180910390fd5b6011805491151562010000027fffffffffffffffffffffffffffffffffffffffffffffffffffffffffff00ffff909216919091179055565b610e216136ca565b60215460ff161515600114610e92576040517f08c379a000000000000000000000000000000000000000000000000000000000815260206004820152601e60248201527f53656564206973206e6f742075706461746561626c6520616e796d6f726500006044820152606401610dd8565b60235473ffffffffffffffffffffffffffffffffffffffff16158015610ece575060235473ffffffffffffffffffffffffffffffffffffffff16155b8015610edd575060115460ff16155b610f43576040517f08c379a000000000000000000000000000000000000000000000000000000000815260206004820152601460248201527f556e61626c6520746f20736574206163636573730000000000000000000000006044820152606401610dd8565b868810610fd2576040517f08c379a000000000000000000000000000000000000000000000000000000000815260206004820152602260248201527f5469657220312073686f756c64206265206c6f776572207468616e207469657260448201527f20320000000000000000000000000000000000000000000000000000000000006064820152608401610dd8565b858710611061576040517f08c379a000000000000000000000000000000000000000000000000000000000815260206004820152602260248201527f5469657220322073686f756c64206265206c6f776572207468616e207469657260448201527f20330000000000000000000000000000000000000000000000000000000000006064820152608401610dd8565b8486106110f0576040517f08c379a000000000000000000000000000000000000000000000000000000000815260206004820152602260248201527f5469657220332073686f756c64206265206c6f776572207468616e207469657260448201527f20340000000000000000000000000000000000000000000000000000000000006064820152608401610dd8565b60008411611180576040517f08c379a000000000000000000000000000000000000000000000000000000000815260206004820152602260248201527f546965722031206361702073686f756c6420626520686967686572207468616e60448201527f20300000000000000000000000000000000000000000000000000000000000006064820152608401610dd8565b81831061120f576040517f08c379a000000000000000000000000000000000000000000000000000000000815260206004820152602a60248201527f546965722032206361702073686f756c64206265206c6f776572207468616e2060448201527f74696572203320636170000000000000000000000000000000000000000000006064820152608401610dd8565b80821061129e576040517f08c379a000000000000000000000000000000000000000000000000000000000815260206004820152602a60248201527f546965722033206361702073686f756c64206265206c6f776572207468616e2060448201527f74696572203420636170000000000000000000000000000000000000000000006064820152608401610dd8565b602280547fffffffffffffffffffffffff00000000000000000000000000000000000000001673ffffffffffffffffffffffffffffffffffffffff9a909a1699909917909855601b92909255601795909555601893909355601991909155601a55601c91909155601d55601e55565b6113156136ca565b60215460ff161515600114611386576040517f08c379a000000000000000000000000000000000000000000000000000000000815260206004820152601e60248201527f53656564206973206e6f742075706461746561626c6520616e796d6f726500006044820152606401610dd8565b60245473ffffffffffffffffffffffffffffffffffffffff161580156113af575060115460ff16155b80156113d1575060225473ffffffffffffffffffffffffffffffffffffffff16155b611437576040517f08c379a000000000000000000000000000000000000000000000000000000000815260206004820152601460248201527f556e61626c6520746f20736574206163636573730000000000000000000000006044820152606401610dd8565b602380547fffffffffffffffffffffffff00000000000000000000000000000000000000001673ffffffffffffffffffffffffffffffffffffffff9390931692909217909155602555565b61148a6136ca565b60215460ff1615156001146114fb576040517f08c379a000000000000000000000000000000000000000000000000000000000815260206004820152601e60248201527f53656564206973206e6f742075706461746561626c6520616e796d6f726500006044820152606401610dd8565b60118054911515610100027fffffffffffffffffffffffffffffffffffffffffffffffffffffffffffff00ff909216919091179055565b61153a6126cd565b73ffffffffffffffffffffffffffffffffffffffff81166000908152600d6020526040902054806115ed576040517f08c379a000000000000000000000000000000000000000000000000000000000815260206004820152603860248201527f506f737444656c697665727943726f776473616c653a2062656e65666963696160448201527f7279206973206e6f742064756520616e7920746f6b656e7300000000000000006064820152608401610dd8565b73ffffffffffffffffffffffffffffffffffffffff82166000908152600f60205260409020544210156116a2576040517f08c379a000000000000000000000000000000000000000000000000000000000815260206004820152603160248201527f56657374696e673a2054686520636c69666620706572696f6420686173206e6f60448201527f74206265656e20706173736564207965740000000000000000000000000000006064820152608401610dd8565b73ffffffffffffffffffffffffffffffffffffffff82166000908152600f6020908152604080832054600e909252909120541015611762576040517f08c379a000000000000000000000000000000000000000000000000000000000815260206004820152603360248201527f56657374696e6720706572696f64206e6565647320746f206265206c6f6e676560448201527f72207468616e20636c69666620706572696f64000000000000000000000000006064820152608401610dd8565b73ffffffffffffffffffffffffffffffffffffffff82166000908152600f6020908152604080832054600e90925282205461179d9190613fce565b6118015773ffffffffffffffffffffffffffffffffffffffff83166000908152600e602052604090205442116117d5575060006118e1565b5073ffffffffffffffffffffffffffffffffffffffff82166000908152600d60205260409020546118e1565b73ffffffffffffffffffffffffffffffffffffffff83166000908152600f6020908152604080832054600e90925282205461183c9190613fce565b6118469084614039565b73ffffffffffffffffffffffffffffffffffffffff85166000908152600e602052604090205490915042116118b65773ffffffffffffffffffffffffffffffffffffffff84166000908152600f60205260409020546118a59042613fce565b6118af9082614074565b91506118df565b73ffffffffffffffffffffffffffffffffffffffff84166000908152600d602052604090205491505b505b73ffffffffffffffffffffffffffffffffffffffff83166000908152600d6020526040902054611912908290613fce565b73ffffffffffffffffffffffffffffffffffffffff8085166000908152600d602052604090209190915560215461010090041663beabacc861196960015473ffffffffffffffffffffffffffffffffffffffff1690565b6040517fffffffff0000000000000000000000000000000000000000000000000000000060e084901b16815273ffffffffffffffffffffffffffffffffffffffff9182166004820152908616602482015260448101849052606401600060405180830381600087803b1580156119de57600080fd5b505af11580156119f2573d6000803e3d6000fd5b505050505050610cd26001600055565b6000601754821015611a1657506000919050565b6017548210158015611a29575060185482105b15611a3657506001919050565b6018548210158015611a49575060195482105b15611a5657506002919050565b6019548210158015611a695750601a5482105b15611a7657506003919050565b601a548210611a8757506004919050565b919050565b611a946136ca565b611a9e600061374b565b565b611aa86136ca565b602180547fffffffffffffffffffffffffffffffffffffffffffffffffffffffffffffff00169055565b60225460009073ffffffffffffffffffffffffffffffffffffffff16611b7a576040517f08c379a000000000000000000000000000000000000000000000000000000000815260206004820152602e60248201527f5265666572656e636520746f207468652041636365737320546f6b656e20686160448201527f73206e6f74206265656e207365740000000000000000000000000000000000006064820152608401610dd8565b6022546040517f70a0823100000000000000000000000000000000000000000000000000000000815273ffffffffffffffffffffffffffffffffffffffff8481166004830152909116906370a0823190602401602060405180830381865afa158015611bea573d6000803e3d6000fd5b505050506040513d601f19601f82011682018060405250810190611c0e91906140b1565b92915050565b611c1c6136ca565b602054421015611cae576040517f08c379a000000000000000000000000000000000000000000000000000000000815260206004820152602f60248201527f546f6b656e732063616e206265207265636f7665726564206f6e6c792061667460448201527f65722074686520656e642074696d6500000000000000000000000000000000006064820152608401610dd8565b8173ffffffffffffffffffffffffffffffffffffffff1663a9059cbb611ce9600a5473ffffffffffffffffffffffffffffffffffffffff1690565b6040517fffffffff0000000000000000000000000000000000000000000000000000000060e084901b16815273ffffffffffffffffffffffffffffffffffffffff9091166004820152602481018490526044016020604051808303816000875af1158015611d5b573d6000803e3d6000fd5b505050506040513d601f19601f82011682018060405250810190611d7f91906140ca565b506040805173ffffffffffffffffffffffffffffffffffffffff84168152602081018390527f8c1256b8896378cd5044f80c202f9772b9d77dc85c8a6eb51967210b09bfaa28910160405180910390a15050565b82611df673ffffffffffffffffffffffffffffffffffffffff82168430856137c2565b81601554611e0491906140e7565b60155550505050565b611e156126cd565b60025473ffffffffffffffffffffffffffffffffffffffff16611eba576040517f08c379a000000000000000000000000000000000000000000000000000000000815260206004820152602360248201527f416363657074656420746f6b656e732068617320696e76616c6964206164647260448201527f65737300000000000000000000000000000000000000000000000000000000006064820152608401610dd8565b600254611edf9073ffffffffffffffffffffffffffffffffffffffff168330846137c2565b6000611efc612710610b5c6007548561274190919063ffffffff16565b90506000611f19612710610b5c600754612710610bd99190613fce565b9050611f258482612760565b6000611f308261286a565b90506000611f4f612710610b5c6006548561274190919063ffffffff16565b90506000611f6c612710610b5c600654612710610bd99190613fce565b600554909150611f7c9085612889565b600555600854611fa29073ffffffffffffffffffffffffffffffffffffffff1683612895565b611fac87826128b9565b604080518581526020810183905273ffffffffffffffffffffffffffffffffffffffff89169133917f6faf93231a456e552dbc9961f58d9713ee4f2e69d15f1975b050ef0911053a7b910160405180910390a36120098785612bec565b60095461202c9073ffffffffffffffffffffffffffffffffffffffff168661389e565b60035461204f9073ffffffffffffffffffffffffffffffffffffffff168561389e565b505050505061205e6001600055565b5050565b61206a6136ca565b60215460ff1615156001146120db576040517f08c379a000000000000000000000000000000000000000000000000000000000815260206004820152601e60248201527f53656564206973206e6f742075706461746561626c6520616e796d6f726500006044820152606401610dd8565b60235473ffffffffffffffffffffffffffffffffffffffff16158015612104575060115460ff16155b8015612126575060225473ffffffffffffffffffffffffffffffffffffffff16155b61218c576040517f08c379a000000000000000000000000000000000000000000000000000000000815260206004820152601460248201527f556e61626c6520746f20736574206163636573730000000000000000000000006044820152606401610dd8565b602480547fffffffffffffffffffffffff00000000000000000000000000000000000000001673ffffffffffffffffffffffffffffffffffffffff9390931692909217909155602655565b6121df6136ca565b60215460ff161515600114612250576040517f08c379a000000000000000000000000000000000000000000000000000000000815260206004820152601e60248201527f53656564206973206e6f742075706461746561626c6520616e796d6f726500006044820152606401610dd8565b60235473ffffffffffffffffffffffffffffffffffffffff1615801561228c575060235473ffffffffffffffffffffffffffffffffffffffff16155b80156122ae575060225473ffffffffffffffffffffffffffffffffffffffff16155b612314576040517f08c379a000000000000000000000000000000000000000000000000000000000815260206004820152601460248201527f556e61626c6520746f20736574206163636573730000000000000000000000006044820152606401610dd8565b60005b8481101561239c57838382818110612331576123316140ff565b90506020020135600b600088888581811061234e5761234e6140ff565b90506020020160208101906123639190613d04565b73ffffffffffffffffffffffffffffffffffffffff168152602081019190915260400160002055806123948161412e565b915050612317565b50601180547fffffffffffffffffffffffffffffffffffffffffffffffffffffffffffffff001691151591909117905550505050565b6123da6136ca565b60215460ff16151560011461244b576040517f08c379a000000000000000000000000000000000000000000000000000000000815260206004820152601e60248201527f53656564206973206e6f742075706461746561626c6520616e796d6f726500006044820152606401610dd8565b83156125e057816124de576040517f08c379a000000000000000000000000000000000000000000000000000000000815260206004820152602360248201527f56657374696e67206475726174696f6e2073686f756c64206265206e6f6e207a60448201527f65726f00000000000000000000000000000000000000000000000000000000006064820152608401610dd8565b60648160ff161115612572576040517f08c379a000000000000000000000000000000000000000000000000000000000815260206004820152603160248201527f596f752063616e206f6e6c79207665737420757020746f20313030207065726360448201527f656e74206f662074686520616d6f756e740000000000000000000000000000006064820152608401610dd8565b601180547fffffffffffffffffffffffffffffffffffffffffffffffffffffffff00ffffff1663010000008615150217905560128390556013829055601480547fffffffffffffffffffffffffffffffffffffffffffffffffffffffffffffff001660ff8316179055612613565b601180547fffffffffffffffffffffffffffffffffffffffffffffffffffffffff00ffffff166301000000861515021790555b50505050565b6126216136ca565b73ffffffffffffffffffffffffffffffffffffffff81166126c4576040517f08c379a000000000000000000000000000000000000000000000000000000000815260206004820152602660248201527f4f776e61626c653a206e6577206f776e657220697320746865207a65726f206160448201527f64647265737300000000000000000000000000000000000000000000000000006064820152608401610dd8565b610cd28161374b565b6002600054141561273a576040517f08c379a000000000000000000000000000000000000000000000000000000000815260206004820152601f60248201527f5265656e7472616e637947756172643a207265656e7472616e742063616c6c006044820152606401610dd8565b6002600055565b600061274d8284614074565b9392505050565b600061274d8284614039565b73ffffffffffffffffffffffffffffffffffffffff8216612803576040517f08c379a000000000000000000000000000000000000000000000000000000000815260206004820152602a60248201527f43726f776473616c653a2062656e656669636961727920697320746865207a6560448201527f726f2061646472657373000000000000000000000000000000000000000000006064820152608401610dd8565b8061205e576040517f08c379a000000000000000000000000000000000000000000000000000000000815260206004820152601960248201527f43726f776473616c653a20776569416d6f756e742069732030000000000000006044820152606401610dd8565b6000611c0e6128846004548461274190919063ffffffff16565b6138c2565b600061274d82846140e7565b60015461205e9073ffffffffffffffffffffffffffffffffffffffff1683836138d8565b601f54421015612925576040517f08c379a000000000000000000000000000000000000000000000000000000000815260206004820152601860248201527f53616c6520686173206e6f7420737461727465642079657400000000000000006044820152606401610dd8565b602054421115612991576040517f08c379a000000000000000000000000000000000000000000000000000000000815260206004820152601160248201527f53616c65206861732066696e69736865640000000000000000000000000000006044820152606401610dd8565b6011546301000000900460ff1615612be257806129b960646129b38382612754565b90612741565b14612a20576040517f08c379a000000000000000000000000000000000000000000000000000000000815260206004820152601060248201527f416d6f756e7420746f6f20736d616c6c000000000000000000000000000000006044820152606401610dd8565b6012544290612a2f90826140e7565b73ffffffffffffffffffffffffffffffffffffffff84166000908152600f6020526040902055601354612a6290826140e7565b73ffffffffffffffffffffffffffffffffffffffff84166000908152600e602052604090205560145460ff1660641415612b095773ffffffffffffffffffffffffffffffffffffffff83166000908152600d6020526040902054612ac69083612889565b73ffffffffffffffffffffffffffffffffffffffff8085166000908152600d6020526040902091909155602154612b04916101009091041683612895565b505050565b601454612b5190612b2590606490610b5c90869060ff16612741565b73ffffffffffffffffffffffffffffffffffffffff85166000908152600d602052604090205490612889565b73ffffffffffffffffffffffffffffffffffffffff84166000908152600d6020526040902055601454612ba7908490612ba290606490610b5c90612b989060ff1683614167565b879060ff16612741565b612895565b602154601454612b0491610100900473ffffffffffffffffffffffffffffffffffffffff1690612ba290606490610b5c90879060ff16612741565b61205e8282612895565b60225473ffffffffffffffffffffffffffffffffffffffff1615613214576000612c1583611ad2565b90506000612c2282611a02565b90506000816004811115612c3857612c38613dce565b1415612d12576040517f08c379a000000000000000000000000000000000000000000000000000000000815260206004820152607060248201527f43757272656e746c7920796f75206172652062656c6f7720546965722031206c60448201527f6576656c2c2062757420796f75206e65656420746f206265206174206c65617360648201527f7420546965723320696e206f7264657220746f2070617274696369706174652060848201527f696e2074686520736565642073616c650000000000000000000000000000000060a482015260c401610dd8565b6001816004811115612d2657612d26613dce565b141580612d3a5750601154610100900460ff165b612dec576040517f08c379a000000000000000000000000000000000000000000000000000000000815260206004820152605160248201527f596f7520617265205469657220312c2062757420796f75206e65656420746f2060448201527f626520546965723320696e206f7264657220746f20706172746963697061746560648201527f20696e2074686520736565642073616c65000000000000000000000000000000608482015260a401610dd8565b6002816004811115612e0057612e00613dce565b141580612e145750601154610100900460ff165b612ec6576040517f08c379a000000000000000000000000000000000000000000000000000000000815260206004820152605160248201527f596f7520617265205469657220322c2062757420596f75206e65656420746f2060448201527f626520546965723320696e206f7264657220746f20706172746963697061746560648201527f20696e2074686520736565642073616c65000000000000000000000000000000608482015260a401610dd8565b6001816004811115612eda57612eda613dce565b1415612fa657601b5473ffffffffffffffffffffffffffffffffffffffff85166000908152600c6020526040902054612f139085612889565b1115612fa1576040517f08c379a000000000000000000000000000000000000000000000000000000000815260206004820152603c60248201527f43617020657863656564656420666f72205469657220312c20636f6e7369646560448201527f722067657474696e6720696e746f20746865206e6578742074696572000000006064820152608401610dd8565b613211565b6002816004811115612fba57612fba613dce565b141561308157601c5473ffffffffffffffffffffffffffffffffffffffff85166000908152600c6020526040902054612ff39085612889565b1115612fa1576040517f08c379a000000000000000000000000000000000000000000000000000000000815260206004820152603c60248201527f43617020657863656564656420666f72205469657220322c20636f6e7369646560448201527f722067657474696e6720696e746f20746865206e6578742074696572000000006064820152608401610dd8565b600381600481111561309557613095613dce565b141561315c57601d5473ffffffffffffffffffffffffffffffffffffffff85166000908152600c60205260409020546130ce9085612889565b1115612fa1576040517f08c379a000000000000000000000000000000000000000000000000000000000815260206004820152603c60248201527f43617020657863656564656420666f72205469657220332c20636f6e7369646560448201527f722067657474696e6720696e746f20746865206e6578742074696572000000006064820152608401610dd8565b600481600481111561317057613170613dce565b141561321157601e5473ffffffffffffffffffffffffffffffffffffffff85166000908152600c60205260409020546131a99085612889565b1115613211576040517f08c379a000000000000000000000000000000000000000000000000000000000815260206004820152601760248201527f43617020657863656564656420666f72205469657220340000000000000000006044820152606401610dd8565b50505b60115460ff16156132c35773ffffffffffffffffffffffffffffffffffffffff82166000908152600b6020908152604080832054600c9092529091205461325b9083612889565b11156132c3576040517f08c379a000000000000000000000000000000000000000000000000000000000815260206004820152601860248201527f43617020706572206164647265737320657863656564656400000000000000006044820152606401610dd8565b60235473ffffffffffffffffffffffffffffffffffffffff1615613478576023546040517f70a0823100000000000000000000000000000000000000000000000000000000815273ffffffffffffffffffffffffffffffffffffffff848116600483015260009216906370a0823190602401602060405180830381865afa158015613352573d6000803e3d6000fd5b505050506040513d601f19601f8201168201806040525081019061337691906140b1565b116133dd576040517f08c379a000000000000000000000000000000000000000000000000000000000815260206004820152601960248201527f416363657373204e4654206973206e6f742070726573656e74000000000000006044820152606401610dd8565b60255473ffffffffffffffffffffffffffffffffffffffff83166000908152600c60205260409020546134109083612889565b1115613478576040517f08c379a000000000000000000000000000000000000000000000000000000000815260206004820152601060248201527f4e465420436170206578636565646564000000000000000000000000000000006044820152606401610dd8565b60245473ffffffffffffffffffffffffffffffffffffffff161561362a57602480546040517f4394551200000000000000000000000000000000000000000000000000000000815273ffffffffffffffffffffffffffffffffffffffff85811660048301529091169163439455129101602060405180830381865afa158015613505573d6000803e3d6000fd5b505050506040513d601f19601f8201168201806040525081019061352991906140ca565b61358f576040517f08c379a000000000000000000000000000000000000000000000000000000000815260206004820152601960248201527f416363657373204e5454206973206e6f742070726573656e74000000000000006044820152606401610dd8565b60265473ffffffffffffffffffffffffffffffffffffffff83166000908152600c60205260409020546135c29083612889565b111561362a576040517f08c379a000000000000000000000000000000000000000000000000000000000815260206004820152601060248201527f4e545420436170206578636565646564000000000000000000000000000000006044820152606401610dd8565b73ffffffffffffffffffffffffffffffffffffffff82166000908152600c602052604090205461365a9082612889565b73ffffffffffffffffffffffffffffffffffffffff9092166000908152600c602052604090209190915550565b60405173ffffffffffffffffffffffffffffffffffffffff83169082156108fc029083906000818181858888f19350505050158015612b04573d6000803e3d6000fd5b600a5473ffffffffffffffffffffffffffffffffffffffff163314611a9e576040517f08c379a000000000000000000000000000000000000000000000000000000000815260206004820181905260248201527f4f776e61626c653a2063616c6c6572206973206e6f7420746865206f776e65726044820152606401610dd8565b600a805473ffffffffffffffffffffffffffffffffffffffff8381167fffffffffffffffffffffffff0000000000000000000000000000000000000000831681179093556040519116919082907f8be0079c531659141344cd1fd0a4f28419497f9722a3daafe3b4186f6b6457e090600090a35050565b60405173ffffffffffffffffffffffffffffffffffffffff808516602483015283166044820152606481018290526126139085907f23b872dd00000000000000000000000000000000000000000000000000000000906084015b604080517fffffffffffffffffffffffffffffffffffffffffffffffffffffffffffffffe08184030181529190526020810180517bffffffffffffffffffffffffffffffffffffffffffffffffffffffff167fffffffff000000000000000000000000000000000000000000000000000000009093169290921790915261392e565b60025461205e9073ffffffffffffffffffffffffffffffffffffffff1683836138d8565b6000611c0e69d3c21bcecceda100000083614039565b60405173ffffffffffffffffffffffffffffffffffffffff8316602482015260448101829052612b049084907fa9059cbb000000000000000000000000000000000000000000000000000000009060640161381c565b6000613990826040518060400160405280602081526020017f5361666545524332303a206c6f772d6c6576656c2063616c6c206661696c65648152508573ffffffffffffffffffffffffffffffffffffffff16613a3a9092919063ffffffff16565b805190915015612b0457808060200190518101906139ae91906140ca565b612b04576040517f08c379a000000000000000000000000000000000000000000000000000000000815260206004820152602a60248201527f5361666545524332303a204552433230206f7065726174696f6e20646964206e60448201527f6f742073756363656564000000000000000000000000000000000000000000006064820152608401610dd8565b6060613a498484600085613a51565b949350505050565b606082471015613ae3576040517f08c379a000000000000000000000000000000000000000000000000000000000815260206004820152602660248201527f416464726573733a20696e73756666696369656e742062616c616e636520666f60448201527f722063616c6c00000000000000000000000000000000000000000000000000006064820152608401610dd8565b73ffffffffffffffffffffffffffffffffffffffff85163b613b61576040517f08c379a000000000000000000000000000000000000000000000000000000000815260206004820152601d60248201527f416464726573733a2063616c6c20746f206e6f6e2d636f6e74726163740000006044820152606401610dd8565b6000808673ffffffffffffffffffffffffffffffffffffffff168587604051613b8a919061418a565b60006040518083038185875af1925050503d8060008114613bc7576040519150601f19603f3d011682016040523d82523d6000602084013e613bcc565b606091505b5091509150613bdc828286613be7565b979650505050505050565b60608315613bf657508161274d565b825115613c065782518084602001fd5b816040517f08c379a0000000000000000000000000000000000000000000000000000000008152600401610dd89190613c66565b60005b83811015613c55578181015183820152602001613c3d565b838111156126135750506000910152565b6020815260008251806020840152613c85816040850160208701613c3a565b601f017fffffffffffffffffffffffffffffffffffffffffffffffffffffffffffffffe0169190910160400192915050565b8015158114610cd257600080fd5b600060208284031215613cd757600080fd5b813561274d81613cb7565b73ffffffffffffffffffffffffffffffffffffffff81168114610cd257600080fd5b600060208284031215613d1657600080fd5b813561274d81613ce2565b60008060008060008060008060006101208a8c031215613d4057600080fd5b8935613d4b81613ce2565b9b60208b01359b5060408b01359a60608101359a506080810135995060a0810135985060c0810135975060e081013596506101000135945092505050565b60008060408385031215613d9c57600080fd5b8235613da781613ce2565b946020939093013593505050565b600060208284031215613dc757600080fd5b5035919050565b7f4e487b7100000000000000000000000000000000000000000000000000000000600052602160045260246000fd5b6020810160058310613e38577f4e487b7100000000000000000000000000000000000000000000000000000000600052602160045260246000fd5b91905290565b600080600060608486031215613e5357600080fd5b8335613e5e81613ce2565b92506020840135613e6e81613ce2565b929592945050506040919091013590565b60008083601f840112613e9157600080fd5b50813567ffffffffffffffff811115613ea957600080fd5b6020830191508360208260051b8501011115613ec457600080fd5b9250929050565b600080600080600060608688031215613ee357600080fd5b853567ffffffffffffffff80821115613efb57600080fd5b613f0789838a01613e7f565b90975095506020880135915080821115613f2057600080fd5b50613f2d88828901613e7f565b9094509250506040860135613f4181613cb7565b809150509295509295909350565b60008060008060808587031215613f6557600080fd5b8435613f7081613cb7565b93506020850135925060408501359150606085013560ff81168114613f9457600080fd5b939692955090935050565b7f4e487b7100000000000000000000000000000000000000000000000000000000600052601160045260246000fd5b600082821015613fe057613fe0613f9f565b500390565b600181811c90821680613ff957607f821691505b60208210811415614033577f4e487b7100000000000000000000000000000000000000000000000000000000600052602260045260246000fd5b50919050565b60008261406f577f4e487b7100000000000000000000000000000000000000000000000000000000600052601260045260246000fd5b500490565b6000817fffffffffffffffffffffffffffffffffffffffffffffffffffffffffffffffff04831182151516156140ac576140ac613f9f565b500290565b6000602082840312156140c357600080fd5b5051919050565b6000602082840312156140dc57600080fd5b815161274d81613cb7565b600082198211156140fa576140fa613f9f565b500190565b7f4e487b7100000000000000000000000000000000000000000000000000000000600052603260045260246000fd5b60007fffffffffffffffffffffffffffffffffffffffffffffffffffffffffffffffff82141561416057614160613f9f565b5060010190565b600060ff821660ff84168082101561418157614181613f9f565b90039392505050565b6000825161419c818460208701613c3a565b919091019291505056fea2646970667358221220746feae7f6acdb5dcce421c2d035f52ebd159f164ebde8d87f9a6a54200727d264736f6c634300080a0033608060405234801561001057600080fd5b50600080546001600160a01b031916339081179091556040805182815290517f4101e71e974f68df5e9730cc223280b41654676bbb052cdcc735c3337e64d2d99181900360200190a1506103f9806100696000396000f3fe608060405234801561001057600080fd5b50600436106100415760003560e01c80632348238c14610046578063beabacc81461005b578063c6dbdf611461006e575b600080fd5b61005961005436600461033c565b61009a565b005b610059610069366004610360565b610278565b6000546040805173ffffffffffffffffffffffffffffffffffffffff9092168252519081900360200190f35b60005473ffffffffffffffffffffffffffffffffffffffff163373ffffffffffffffffffffffffffffffffffffffff161461015c576040517f08c379a000000000000000000000000000000000000000000000000000000000815260206004820152602c60248201527f5365636f6e646172793a2063616c6c6572206973206e6f74207468652070726960448201527f6d617279206163636f756e74000000000000000000000000000000000000000060648201526084015b60405180910390fd5b73ffffffffffffffffffffffffffffffffffffffff81166101ff576040517f08c379a000000000000000000000000000000000000000000000000000000000815260206004820152602a60248201527f5365636f6e646172793a206e6577207072696d61727920697320746865207a6560448201527f726f2061646472657373000000000000000000000000000000000000000000006064820152608401610153565b600080547fffffffffffffffffffffffff00000000000000000000000000000000000000001673ffffffffffffffffffffffffffffffffffffffff83169081179091556040519081527f4101e71e974f68df5e9730cc223280b41654676bbb052cdcc735c3337e64d2d99060200160405180910390a150565b6040517fa9059cbb00000000000000000000000000000000000000000000000000000000815273ffffffffffffffffffffffffffffffffffffffff83811660048301526024820183905284169063a9059cbb906044016020604051808303816000875af11580156102ed573d6000803e3d6000fd5b505050506040513d601f19601f8201168201806040525081019061031191906103a1565b50505050565b73ffffffffffffffffffffffffffffffffffffffff8116811461033957600080fd5b50565b60006020828403121561034e57600080fd5b813561035981610317565b9392505050565b60008060006060848603121561037557600080fd5b833561038081610317565b9250602084013561039081610317565b929592945050506040919091013590565b6000602082840312156103b357600080fd5b8151801515811461035957600080fdfea26469706673582212205a2c82bfdc3a1d08d0ec2aa8f133a67cbb54274fe81631c56f9a85243820d60564736f6c634300080a0033",
  "linkReferences": {},
  "deployedLinkReferences": {}
}