{
  "_format": "hh-sol-artifact-1",
  "contractName": "SeedFactory",
  "sourceName": "contracts/SeedFactory.sol",
  "abi": [
    {
      "inputs": [],
      "stateMutability": "nonpayable",
      "type": "constructor"
    },
    {
      "anonymous": false,
      "inputs": [
        {
          "indexed": false,
          "internalType": "address",
          "name": "newAddress",
          "type": "address"
        }
      ],
      "name": "AddedNewRewardAddress",
      "type": "event"
    },
    {
      "anonymous": false,
      "inputs": [
        {
          "indexed": false,
          "internalType": "address",
          "name": "oldAddress",
          "type": "address"
        }
      ],
      "name": "DeletedRewardAddress",
      "type": "event"
    },
    {
      "anonymous": false,
      "inputs": [
        {
          "indexed": true,
          "internalType": "address",
          "name": "previousOwner",
          "type": "address"
        },
        {
          "indexed": true,
          "internalType": "address",
          "name": "newOwner",
          "type": "address"
        }
      ],
      "name": "OwnershipTransferred",
      "type": "event"
    },
    {
      "inputs": [
        {
          "internalType": "address",
          "name": "newAddress",
          "type": "address"
        }
      ],
      "name": "addRewardAddress",
      "outputs": [
        {
          "internalType": "address[]",
          "name": "",
          "type": "address[]"
        }
      ],
      "stateMutability": "nonpayable",
      "type": "function"
    },
    {
      "inputs": [],
      "name": "calculateRaisingFee",
      "outputs": [
        {
          "internalType": "uint256",
          "name": "",
          "type": "uint256"
        }
      ],
      "stateMutability": "view",
      "type": "function"
    },
    {
      "inputs": [
        {
          "internalType": "uint256",
          "name": "",
          "type": "uint256"
        }
      ],
      "name": "data",
      "outputs": [
        {
          "internalType": "address",
          "name": "",
          "type": "address"
        }
      ],
      "stateMutability": "view",
      "type": "function"
    },
    {
      "inputs": [
        {
          "internalType": "address",
          "name": "oldAddress",
          "type": "address"
        }
      ],
      "name": "deleteRewardAddress",
      "outputs": [
        {
          "internalType": "address[]",
          "name": "",
          "type": "address[]"
        }
      ],
      "stateMutability": "nonpayable",
      "type": "function"
    },
    {
      "inputs": [
        {
          "internalType": "uint256",
          "name": "_rate",
          "type": "uint256"
        },
        {
          "internalType": "address payable",
          "name": "_wallet",
          "type": "address"
        },
        {
          "internalType": "contract IERC20",
          "name": "_emittedToken",
          "type": "address"
        },
        {
          "internalType": "contract IERC20",
          "name": "_acceptedToken",
          "type": "address"
        },
        {
          "internalType": "uint256",
          "name": "_startTime",
          "type": "uint256"
        },
        {
          "internalType": "uint256",
          "name": "_endTime",
          "type": "uint256"
        },
        {
          "internalType": "string",
          "name": "_name",
          "type": "string"
        }
      ],
      "name": "deployNewSeed",
      "outputs": [],
      "stateMutability": "payable",
      "type": "function"
    },
    {
      "inputs": [
        {
          "internalType": "address",
          "name": "",
          "type": "address"
        }
      ],
      "name": "deploymentFeeForAddress",
      "outputs": [
        {
          "internalType": "uint256",
          "name": "",
          "type": "uint256"
        }
      ],
      "stateMutability": "view",
      "type": "function"
    },
    {
      "inputs": [],
      "name": "deploymentFeeRecipient",
      "outputs": [
        {
          "internalType": "address payable",
          "name": "",
          "type": "address"
        }
      ],
      "stateMutability": "view",
      "type": "function"
    },
    {
      "inputs": [],
      "name": "getCount",
      "outputs": [
        {
          "internalType": "uint256",
          "name": "count",
          "type": "uint256"
        }
      ],
      "stateMutability": "view",
      "type": "function"
    },
    {
      "inputs": [],
      "name": "owner",
      "outputs": [
        {
          "internalType": "address",
          "name": "",
          "type": "address"
        }
      ],
      "stateMutability": "view",
      "type": "function"
    },
    {
      "inputs": [
        {
          "internalType": "address",
          "name": "",
          "type": "address"
        }
      ],
      "name": "raisingFeeForAddress",
      "outputs": [
        {
          "internalType": "uint256",
          "name": "",
          "type": "uint256"
        }
      ],
      "stateMutability": "view",
      "type": "function"
    },
    {
      "inputs": [],
      "name": "raisingFeeRecipient",
      "outputs": [
        {
          "internalType": "address payable",
          "name": "",
          "type": "address"
        }
      ],
      "stateMutability": "view",
      "type": "function"
    },
    {
      "inputs": [],
      "name": "renounceOwnership",
      "outputs": [],
      "stateMutability": "nonpayable",
      "type": "function"
    },
    {
      "inputs": [
        {
          "internalType": "address",
          "name": "_addr",
          "type": "address"
        }
      ],
      "name": "retrieveIndex",
      "outputs": [
        {
          "internalType": "uint256",
          "name": "",
          "type": "uint256"
        }
      ],
      "stateMutability": "view",
      "type": "function"
    },
    {
      "inputs": [
        {
          "internalType": "uint256",
          "name": "_newDeploymentFee",
          "type": "uint256"
        }
      ],
      "name": "setDefaultDeploymentFee",
      "outputs": [],
      "stateMutability": "nonpayable",
      "type": "function"
    },
    {
      "inputs": [
        {
          "internalType": "uint256",
          "name": "_newRaisingFee",
          "type": "uint256"
        }
      ],
      "name": "setDefaultRaisingFee",
      "outputs": [],
      "stateMutability": "nonpayable",
      "type": "function"
    },
    {
      "inputs": [
        {
          "internalType": "uint256",
          "name": "_newTokenFee",
          "type": "uint256"
        }
      ],
      "name": "setDefaultTokenFee",
      "outputs": [],
      "stateMutability": "nonpayable",
      "type": "function"
    },
    {
      "inputs": [
        {
          "internalType": "address",
          "name": "addr",
          "type": "address"
        },
        {
          "internalType": "uint256",
          "name": "_newDeploymentFee",
          "type": "uint256"
        }
      ],
      "name": "setDeploymentFeeForAddress",
      "outputs": [],
      "stateMutability": "nonpayable",
      "type": "function"
    },
    {
      "inputs": [
        {
          "internalType": "address payable",
          "name": "addr",
          "type": "address"
        }
      ],
      "name": "setDeploymentFeeRecipient",
      "outputs": [],
      "stateMutability": "nonpayable",
      "type": "function"
    },
    {
      "inputs": [
        {
          "internalType": "address",
          "name": "addr",
          "type": "address"
        },
        {
          "internalType": "uint256",
          "name": "_newRaisingFee",
          "type": "uint256"
        }
      ],
      "name": "setRaisingFeeForAddress",
      "outputs": [],
      "stateMutability": "nonpayable",
      "type": "function"
    },
    {
      "inputs": [
        {
          "internalType": "address payable",
          "name": "addr",
          "type": "address"
        }
      ],
      "name": "setRaisingFeeRecipient",
      "outputs": [],
      "stateMutability": "nonpayable",
      "type": "function"
    },
    {
      "inputs": [
        {
          "internalType": "address",
          "name": "addr",
          "type": "address"
        },
        {
          "internalType": "uint256",
          "name": "_newTokenFee",
          "type": "uint256"
        }
      ],
      "name": "setTokenFeeForAddress",
      "outputs": [],
      "stateMutability": "nonpayable",
      "type": "function"
    },
    {
      "inputs": [
        {
          "internalType": "address",
          "name": "addr",
          "type": "address"
        }
      ],
      "name": "setTokenFeeRecipient",
      "outputs": [],
      "stateMutability": "nonpayable",
      "type": "function"
    },
    {
      "inputs": [
        {
          "internalType": "address",
          "name": "",
          "type": "address"
        }
      ],
      "name": "tokenFeeForAddress",
      "outputs": [
        {
          "internalType": "uint256",
          "name": "",
          "type": "uint256"
        }
      ],
      "stateMutability": "view",
      "type": "function"
    },
    {
      "inputs": [],
      "name": "tokenFeeRecipient",
      "outputs": [
        {
          "internalType": "address",
          "name": "",
          "type": "address"
        }
      ],
      "stateMutability": "view",
      "type": "function"
    },
    {
      "inputs": [
        {
          "internalType": "address",
          "name": "newOwner",
          "type": "address"
        }
      ],
      "name": "transferOwnership",
      "outputs": [],
      "stateMutability": "nonpayable",
      "type": "function"
    }
  ],
  "bytecode": "0x608060405234801561001057600080fd5b5061001a3361004b565b60088054336001600160a01b0319918216811790925560098054821683179055600a8054909116909117905561009b565b600080546001600160a01b038381166001600160a01b0319831681178455604051919092169283917f8be0079c531659141344cd1fd0a4f28419497f9722a3daafe3b4186f6b6457e09190a35050565b611980806100aa6000396000f3fe6080604052600436106101965760003560e01c80638da5cb5b116100e1578063c62cabd21161008a578063f0ba844011610064578063f0ba8440146104ad578063f2fde38b146104cd578063f6f415cb146104ed578063f87ca9f71461050d57600080fd5b8063c62cabd214610440578063db3f12201461046d578063e9a9f68a1461048d57600080fd5b8063a6e34510116100bb578063a6e34510146103eb578063a87d942c1461040b578063b4be506e1461042057600080fd5b80638da5cb5b1461037357806397ddbd5c1461039e5780639e9c2d42146103cb57600080fd5b806356c93073116101435780637bed748a1161011d5780637bed748a146103115780637ddfe178146103265780638770d6a31461034657600080fd5b806356c93073146102af578063574c3e84146102dc578063715018a6146102fc57600080fd5b80632d857e98116101745780632d857e981461021057806334451f22146102305780633b9acce11461028257600080fd5b806302158bc61461019b57806311564b86146101db5780632977f0ba146101f0575b600080fd5b3480156101a757600080fd5b506101c86101b636600461153d565b60046020526000908152604090205481565b6040519081526020015b60405180910390f35b6101ee6101e9366004611590565b61052d565b005b3480156101fc57600080fd5b506101ee61020b3660046116b4565b610863565b34801561021c57600080fd5b506101ee61022b36600461153d565b610870565b34801561023c57600080fd5b5060085461025d9073ffffffffffffffffffffffffffffffffffffffff1681565b60405173ffffffffffffffffffffffffffffffffffffffff90911681526020016101d2565b34801561028e57600080fd5b50600a5461025d9073ffffffffffffffffffffffffffffffffffffffff1681565b3480156102bb57600080fd5b506101c86102ca36600461153d565b60036020526000908152604090205481565b3480156102e857600080fd5b506101ee6102f73660046116cd565b6108bf565b34801561030857600080fd5b506101ee6108f0565b34801561031d57600080fd5b506101c8610904565b34801561033257600080fd5b506101ee6103413660046116cd565b610956565b34801561035257600080fd5b5060095461025d9073ffffffffffffffffffffffffffffffffffffffff1681565b34801561037f57600080fd5b5060005473ffffffffffffffffffffffffffffffffffffffff1661025d565b3480156103aa57600080fd5b506103be6103b936600461153d565b610a19565b6040516101d291906116f9565b3480156103d757600080fd5b506101c86103e636600461153d565b610ce6565b3480156103f757600080fd5b506101ee6104063660046116b4565b610d64565b34801561041757600080fd5b506001546101c8565b34801561042c57600080fd5b506103be61043b36600461153d565b610e03565b34801561044c57600080fd5b506101c861045b36600461153d565b60026020526000908152604090205481565b34801561047957600080fd5b506101ee61048836600461153d565b610ff3565b34801561049957600080fd5b506101ee6104a83660046116cd565b611042565b3480156104b957600080fd5b5061025d6104c83660046116b4565b611105565b3480156104d957600080fd5b506101ee6104e836600461153d565b61113c565b3480156104f957600080fd5b506101ee6105083660046116b4565b6111f3565b34801561051957600080fd5b506101ee61052836600461153d565b611292565b33600090815260026020526040902054156106ec57336000908152600260205260409020543410156105e6576040517f08c379a000000000000000000000000000000000000000000000000000000000815260206004820152602660248201527f596f75206e65656420746f2070726f7669646520746865206465706c6f796d6560448201527f6e7420666565000000000000000000000000000000000000000000000000000060648201526084015b60405180910390fd5b6105ee6112e1565b60006105f8611327565b90506000610604610904565b9050600073__$e7afaab436e08fd88a264d583599531b70$__63a3c362398b8b8b8b8b8b8a8a600960009054906101000a900473ffffffffffffffffffffffffffffffffffffffff16600a60009054906101000a900473ffffffffffffffffffffffffffffffffffffffff168f6040518c63ffffffff1660e01b81526004016106979b9a99989796959493929190611753565b602060405180830381865af41580156106b4573d6000803e3d6000fd5b505050506040513d601f19601f820116820180604052508101906106d89190611838565b90506106e381611350565b5050505061085a565b600554341015610758576040517f08c379a000000000000000000000000000000000000000000000000000000000815260206004820152601f60248201527f4465706c6f796d656e742066656520776173206e6f742070726f76696465640060448201526064016105dd565b6107606112e1565b600061076a611327565b90506000610776610904565b9050600073__$e7afaab436e08fd88a264d583599531b70$__63a3c362398b8b8b8b8b8b8a8a600960009054906101000a900473ffffffffffffffffffffffffffffffffffffffff16600a60009054906101000a900473ffffffffffffffffffffffffffffffffffffffff168f6040518c63ffffffff1660e01b81526004016108099b9a99989796959493929190611753565b602060405180830381865af4158015610826573d6000803e3d6000fd5b505050506040513d601f19601f8201168201806040525081019061084a9190611838565b905061085581611350565b505050505b50505050505050565b61086b611425565b600555565b610878611425565b600a80547fffffffffffffffffffffffff00000000000000000000000000000000000000001673ffffffffffffffffffffffffffffffffffffffff92909216919091179055565b6108c7611425565b73ffffffffffffffffffffffffffffffffffffffff909116600090815260026020526040902055565b6108f8611425565b61090260006114a6565b565b3360009081526004602052604081205481901561094e5760046000335b73ffffffffffffffffffffffffffffffffffffffff16815260208101919091526040016000205492915050565b505060075490565b61095e611425565b6127108111156109f0576040517f08c379a000000000000000000000000000000000000000000000000000000000815260206004820152602360248201527f546f6b656e206665652073686f756c64206265206c6f776572207468616e203160448201527f303025000000000000000000000000000000000000000000000000000000000060648201526084016105dd565b73ffffffffffffffffffffffffffffffffffffffff909116600090815260036020526040902055565b6060610a23611425565b60005b600154811015610c76578273ffffffffffffffffffffffffffffffffffffffff1660018281548110610a5a57610a5a611855565b60009182526020909120015473ffffffffffffffffffffffffffffffffffffffff161415610c64577f6621d567d44a618275066b55f8a00757c0b69c28aa30a30522dc0b67b74f43b160018281548110610ab657610ab6611855565b6000918252602091829020015460405173ffffffffffffffffffffffffffffffffffffffff90911681520160405180910390a160018181548110610afc57610afc611855565b600091825260209091200180547fffffffffffffffffffffffff0000000000000000000000000000000000000000169055805b60018054610b3d91906118b3565b811015610bf9576001610b5083826118ca565b81548110610b6057610b60611855565b6000918252602090912001546001805473ffffffffffffffffffffffffffffffffffffffff9092169183908110610b9957610b99611855565b600091825260209091200180547fffffffffffffffffffffffff00000000000000000000000000000000000000001673ffffffffffffffffffffffffffffffffffffffff9290921691909117905580610bf1816118e2565b915050610b2f565b506001805480610c0b57610c0b61191b565b60008281526020902081017fffffffffffffffffffffffffffffffffffffffffffffffffffffffffffffffff90810180547fffffffffffffffffffffffff00000000000000000000000000000000000000001690550190555b80610c6e816118e2565b915050610a26565b506001805480602002602001604051908101604052809291908181526020018280548015610cda57602002820191906000526020600020905b815473ffffffffffffffffffffffffffffffffffffffff168152600190910190602001808311610caf575b50505050509050919050565b6000805b600154811015610d5e578273ffffffffffffffffffffffffffffffffffffffff1660018281548110610d1e57610d1e611855565b60009182526020909120015473ffffffffffffffffffffffffffffffffffffffff161415610d4c5792915050565b80610d56816118e2565b915050610cea565b50919050565b610d6c611425565b612710811115610dfe576040517f08c379a000000000000000000000000000000000000000000000000000000000815260206004820152602360248201527f546f6b656e206665652073686f756c64206265206c6f776572207468616e203160448201527f303025000000000000000000000000000000000000000000000000000000000060648201526084016105dd565b600655565b6060610e0d611425565b60005b600154811015610ee0578273ffffffffffffffffffffffffffffffffffffffff1660018281548110610e4457610e44611855565b60009182526020909120015473ffffffffffffffffffffffffffffffffffffffff161415610ece576040517f08c379a000000000000000000000000000000000000000000000000000000000815260206004820152601760248201527f6164647265737320616c72656164792070726573656e7400000000000000000060448201526064016105dd565b80610ed8816118e2565b915050610e10565b506001805480820182556000919091527fb10e2d527612073b26eecdfd717e6a320cf44b4afac2b0732d9fcbe2b7fa0cf60180547fffffffffffffffffffffffff00000000000000000000000000000000000000001673ffffffffffffffffffffffffffffffffffffffff84169081179091556040519081527f119545c6b18ffc48d6bdc36794ae7c32b6b4031c6cb72d84f9a1d429a7c570449060200160405180910390a16001805480602002602001604051908101604052809291908181526020018280548015610cda5760200282019190600052602060002090815473ffffffffffffffffffffffffffffffffffffffff168152600190910190602001808311610caf5750505050509050919050565b610ffb611425565b600980547fffffffffffffffffffffffff00000000000000000000000000000000000000001673ffffffffffffffffffffffffffffffffffffffff92909216919091179055565b61104a611425565b6127108111156110dc576040517f08c379a000000000000000000000000000000000000000000000000000000000815260206004820152602360248201527f546f6b656e206665652073686f756c64206265206c6f776572207468616e203160448201527f303025000000000000000000000000000000000000000000000000000000000060648201526084016105dd565b73ffffffffffffffffffffffffffffffffffffffff909116600090815260046020526040902055565b6001818154811061111557600080fd5b60009182526020909120015473ffffffffffffffffffffffffffffffffffffffff16905081565b611144611425565b73ffffffffffffffffffffffffffffffffffffffff81166111e7576040517f08c379a000000000000000000000000000000000000000000000000000000000815260206004820152602660248201527f4f776e61626c653a206e6577206f776e657220697320746865207a65726f206160448201527f646472657373000000000000000000000000000000000000000000000000000060648201526084016105dd565b6111f0816114a6565b50565b6111fb611425565b61271081111561128d576040517f08c379a000000000000000000000000000000000000000000000000000000000815260206004820152602360248201527f546f6b656e206665652073686f756c64206265206c6f776572207468616e203160448201527f303025000000000000000000000000000000000000000000000000000000000060648201526084016105dd565b600755565b61129a611425565b600880547fffffffffffffffffffffffff00000000000000000000000000000000000000001673ffffffffffffffffffffffffffffffffffffffff92909216919091179055565b60085460405173ffffffffffffffffffffffffffffffffffffffff909116903480156108fc02916000818181858888f193505050501580156111f0573d6000803e3d6000fd5b33600090815260036020526040812054819015611348576003600033610921565b505060065490565b606060005b600154811015610ee0578273ffffffffffffffffffffffffffffffffffffffff166001828154811061138957611389611855565b60009182526020909120015473ffffffffffffffffffffffffffffffffffffffff161415611413576040517f08c379a000000000000000000000000000000000000000000000000000000000815260206004820152601760248201527f6164647265737320616c72656164792070726573656e7400000000000000000060448201526064016105dd565b8061141d816118e2565b915050611355565b60005473ffffffffffffffffffffffffffffffffffffffff163314610902576040517f08c379a000000000000000000000000000000000000000000000000000000000815260206004820181905260248201527f4f776e61626c653a2063616c6c6572206973206e6f7420746865206f776e657260448201526064016105dd565b6000805473ffffffffffffffffffffffffffffffffffffffff8381167fffffffffffffffffffffffff0000000000000000000000000000000000000000831681178455604051919092169283917f8be0079c531659141344cd1fd0a4f28419497f9722a3daafe3b4186f6b6457e09190a35050565b73ffffffffffffffffffffffffffffffffffffffff811681146111f057600080fd5b60006020828403121561154f57600080fd5b813561155a8161151b565b9392505050565b7f4e487b7100000000000000000000000000000000000000000000000000000000600052604160045260246000fd5b600080600080600080600060e0888a0312156115ab57600080fd5b8735965060208801356115bd8161151b565b955060408801356115cd8161151b565b945060608801356115dd8161151b565b93506080880135925060a0880135915060c088013567ffffffffffffffff8082111561160857600080fd5b818a0191508a601f83011261161c57600080fd5b81358181111561162e5761162e611561565b604051601f82017fffffffffffffffffffffffffffffffffffffffffffffffffffffffffffffffe0908116603f0116810190838211818310171561167457611674611561565b816040528281528d602084870101111561168d57600080fd5b82602086016020830137600060208483010152809550505050505092959891949750929550565b6000602082840312156116c657600080fd5b5035919050565b600080604083850312156116e057600080fd5b82356116eb8161151b565b946020939093013593505050565b6020808252825182820181905260009190848201906040850190845b8181101561174757835173ffffffffffffffffffffffffffffffffffffffff1683529284019291840191600101611715565b50909695505050505050565b60006101608d8352602073ffffffffffffffffffffffffffffffffffffffff808f1682860152808e166040860152808d1660608601528b60808601528a60a08601528960c08601528860e0860152808816610100860152808716610120860152508161014085015284518083860152600092505b808310156117e6578583018201518584016101800152918101916117c7565b808311156117f957600061018082870101525b601f017fffffffffffffffffffffffffffffffffffffffffffffffffffffffffffffffe01693909301610180019e9d5050505050505050505050505050565b60006020828403121561184a57600080fd5b815161155a8161151b565b7f4e487b7100000000000000000000000000000000000000000000000000000000600052603260045260246000fd5b7f4e487b7100000000000000000000000000000000000000000000000000000000600052601160045260246000fd5b6000828210156118c5576118c5611884565b500390565b600082198211156118dd576118dd611884565b500190565b60007fffffffffffffffffffffffffffffffffffffffffffffffffffffffffffffffff82141561191457611914611884565b5060010190565b7f4e487b7100000000000000000000000000000000000000000000000000000000600052603160045260246000fdfea2646970667358221220e28c89da42b93769dd63676449e99ba354c14c7419ee1baaeb8d98878489ab1264736f6c634300080a0033",
  "linkReferences": {
    "contracts/SeedFactory.sol": {
      "SeedDeployer": [
        {
          "length": 20,
          "start": 1716
        },
        {
          "length": 20,
          "start": 2086
        }
      ]
    }
  },
  "deployedLinkReferences": {
    "contracts/SeedFactory.sol": {
      "SeedDeployer": [
        {
          "length": 20,
          "start": 1546
        },
        {
          "length": 20,
          "start": 1916
        }
      ]
    }
  }
}