{
  "_format": "hh-sol-artifact-1",
  "contractName": "SeedFactory",
  "sourceName": "contracts/SeedFactory.sol",
  "abi": [
    {
      "inputs": [],
      "stateMutability": "nonpayable",
      "type": "constructor"
    },
    {
      "anonymous": false,
      "inputs": [
        {
          "indexed": false,
          "internalType": "address",
          "name": "newAddress",
          "type": "address"
        }
      ],
      "name": "AddedNewRewardAddress",
      "type": "event"
    },
    {
      "anonymous": false,
      "inputs": [
        {
          "indexed": false,
          "internalType": "address",
          "name": "oldAddress",
          "type": "address"
        }
      ],
      "name": "DeletedRewardAddress",
      "type": "event"
    },
    {
      "anonymous": false,
      "inputs": [
        {
          "indexed": true,
          "internalType": "address",
          "name": "previousOwner",
          "type": "address"
        },
        {
          "indexed": true,
          "internalType": "address",
          "name": "newOwner",
          "type": "address"
        }
      ],
      "name": "OwnershipTransferred",
      "type": "event"
    },
    {
      "inputs": [
        {
          "internalType": "address",
          "name": "newAddress",
          "type": "address"
        }
      ],
      "name": "addRewardAddress",
      "outputs": [
        {
          "internalType": "address[]",
          "name": "",
          "type": "address[]"
        }
      ],
      "stateMutability": "nonpayable",
      "type": "function"
    },
    {
      "inputs": [],
      "name": "calculateRaisingFee",
      "outputs": [
        {
          "internalType": "uint256",
          "name": "",
          "type": "uint256"
        }
      ],
      "stateMutability": "view",
      "type": "function"
    },
    {
      "inputs": [
        {
          "internalType": "uint256",
          "name": "",
          "type": "uint256"
        }
      ],
      "name": "data",
      "outputs": [
        {
          "internalType": "address",
          "name": "",
          "type": "address"
        }
      ],
      "stateMutability": "view",
      "type": "function"
    },
    {
      "inputs": [],
      "name": "defaultDeploymentFee",
      "outputs": [
        {
          "internalType": "uint256",
          "name": "",
          "type": "uint256"
        }
      ],
      "stateMutability": "view",
      "type": "function"
    },
    {
      "inputs": [],
      "name": "defaultRaisingFee",
      "outputs": [
        {
          "internalType": "uint256",
          "name": "",
          "type": "uint256"
        }
      ],
      "stateMutability": "view",
      "type": "function"
    },
    {
      "inputs": [],
      "name": "defaultTokenFee",
      "outputs": [
        {
          "internalType": "uint256",
          "name": "",
          "type": "uint256"
        }
      ],
      "stateMutability": "view",
      "type": "function"
    },
    {
      "inputs": [
        {
          "internalType": "address",
          "name": "oldAddress",
          "type": "address"
        }
      ],
      "name": "deleteRewardAddress",
      "outputs": [
        {
          "internalType": "address[]",
          "name": "",
          "type": "address[]"
        }
      ],
      "stateMutability": "nonpayable",
      "type": "function"
    },
    {
      "inputs": [
        {
          "internalType": "uint256",
          "name": "_rate",
          "type": "uint256"
        },
        {
          "internalType": "address payable",
          "name": "_wallet",
          "type": "address"
        },
        {
          "internalType": "contract IERC20",
          "name": "_emittedToken",
          "type": "address"
        },
        {
          "internalType": "contract IERC20",
          "name": "_acceptedToken",
          "type": "address"
        },
        {
          "internalType": "uint256",
          "name": "_startTime",
          "type": "uint256"
        },
        {
          "internalType": "uint256",
          "name": "_endTime",
          "type": "uint256"
        },
        {
          "internalType": "string",
          "name": "_name",
          "type": "string"
        }
      ],
      "name": "deployNewSeed",
      "outputs": [],
      "stateMutability": "payable",
      "type": "function"
    },
    {
      "inputs": [
        {
          "internalType": "address",
          "name": "",
          "type": "address"
        }
      ],
      "name": "deploymentFeeForAddress",
      "outputs": [
        {
          "internalType": "uint256",
          "name": "",
          "type": "uint256"
        }
      ],
      "stateMutability": "view",
      "type": "function"
    },
    {
      "inputs": [],
      "name": "deploymentFeeRecipient",
      "outputs": [
        {
          "internalType": "address payable",
          "name": "",
          "type": "address"
        }
      ],
      "stateMutability": "view",
      "type": "function"
    },
    {
      "inputs": [],
      "name": "getCount",
      "outputs": [
        {
          "internalType": "uint256",
          "name": "count",
          "type": "uint256"
        }
      ],
      "stateMutability": "view",
      "type": "function"
    },
    {
      "inputs": [],
      "name": "owner",
      "outputs": [
        {
          "internalType": "address",
          "name": "",
          "type": "address"
        }
      ],
      "stateMutability": "view",
      "type": "function"
    },
    {
      "inputs": [
        {
          "internalType": "address",
          "name": "",
          "type": "address"
        }
      ],
      "name": "raisingFeeForAddress",
      "outputs": [
        {
          "internalType": "uint256",
          "name": "",
          "type": "uint256"
        }
      ],
      "stateMutability": "view",
      "type": "function"
    },
    {
      "inputs": [],
      "name": "raisingFeeRecipient",
      "outputs": [
        {
          "internalType": "address payable",
          "name": "",
          "type": "address"
        }
      ],
      "stateMutability": "view",
      "type": "function"
    },
    {
      "inputs": [],
      "name": "renounceOwnership",
      "outputs": [],
      "stateMutability": "nonpayable",
      "type": "function"
    },
    {
      "inputs": [
        {
          "internalType": "address",
          "name": "_addr",
          "type": "address"
        }
      ],
      "name": "retrieveIndex",
      "outputs": [
        {
          "internalType": "uint256",
          "name": "",
          "type": "uint256"
        }
      ],
      "stateMutability": "view",
      "type": "function"
    },
    {
      "inputs": [
        {
          "internalType": "uint256",
          "name": "_newDeploymentFee",
          "type": "uint256"
        }
      ],
      "name": "setDefaultDeploymentFee",
      "outputs": [],
      "stateMutability": "nonpayable",
      "type": "function"
    },
    {
      "inputs": [
        {
          "internalType": "uint256",
          "name": "_newRaisingFee",
          "type": "uint256"
        }
      ],
      "name": "setDefaultRaisingFee",
      "outputs": [],
      "stateMutability": "nonpayable",
      "type": "function"
    },
    {
      "inputs": [
        {
          "internalType": "uint256",
          "name": "_newTokenFee",
          "type": "uint256"
        }
      ],
      "name": "setDefaultTokenFee",
      "outputs": [],
      "stateMutability": "nonpayable",
      "type": "function"
    },
    {
      "inputs": [
        {
          "internalType": "address",
          "name": "addr",
          "type": "address"
        },
        {
          "internalType": "uint256",
          "name": "_newDeploymentFee",
          "type": "uint256"
        }
      ],
      "name": "setDeploymentFeeForAddress",
      "outputs": [],
      "stateMutability": "nonpayable",
      "type": "function"
    },
    {
      "inputs": [
        {
          "internalType": "address payable",
          "name": "addr",
          "type": "address"
        }
      ],
      "name": "setDeploymentFeeRecipient",
      "outputs": [],
      "stateMutability": "nonpayable",
      "type": "function"
    },
    {
      "inputs": [
        {
          "internalType": "address",
          "name": "addr",
          "type": "address"
        },
        {
          "internalType": "uint256",
          "name": "_newRaisingFee",
          "type": "uint256"
        }
      ],
      "name": "setRaisingFeeForAddress",
      "outputs": [],
      "stateMutability": "nonpayable",
      "type": "function"
    },
    {
      "inputs": [
        {
          "internalType": "address payable",
          "name": "addr",
          "type": "address"
        }
      ],
      "name": "setRaisingFeeRecipient",
      "outputs": [],
      "stateMutability": "nonpayable",
      "type": "function"
    },
    {
      "inputs": [
        {
          "internalType": "address",
          "name": "addr",
          "type": "address"
        },
        {
          "internalType": "uint256",
          "name": "_newTokenFee",
          "type": "uint256"
        }
      ],
      "name": "setTokenFeeForAddress",
      "outputs": [],
      "stateMutability": "nonpayable",
      "type": "function"
    },
    {
      "inputs": [
        {
          "internalType": "address",
          "name": "addr",
          "type": "address"
        }
      ],
      "name": "setTokenFeeRecipient",
      "outputs": [],
      "stateMutability": "nonpayable",
      "type": "function"
    },
    {
      "inputs": [
        {
          "internalType": "address",
          "name": "",
          "type": "address"
        }
      ],
      "name": "tokenFeeForAddress",
      "outputs": [
        {
          "internalType": "uint256",
          "name": "",
          "type": "uint256"
        }
      ],
      "stateMutability": "view",
      "type": "function"
    },
    {
      "inputs": [],
      "name": "tokenFeeRecipient",
      "outputs": [
        {
          "internalType": "address",
          "name": "",
          "type": "address"
        }
      ],
      "stateMutability": "view",
      "type": "function"
    },
    {
      "inputs": [
        {
          "internalType": "address",
          "name": "newOwner",
          "type": "address"
        }
      ],
      "name": "transferOwnership",
      "outputs": [],
      "stateMutability": "nonpayable",
      "type": "function"
    }
  ],
  "bytecode": "0x608060405234801561001057600080fd5b5061001a3361004b565b60088054336001600160a01b0319918216811790925560098054821683179055600a8054909116909117905561009b565b600080546001600160a01b038381166001600160a01b0319831681178455604051919092169283917f8be0079c531659141344cd1fd0a4f28419497f9722a3daafe3b4186f6b6457e09190a35050565b6119e3806100aa6000396000f3fe6080604052600436106101b75760003560e01c806397ddbd5c116100ec578063dbc3d9e51161008a578063f2fde38b11610064578063f2fde38b1461051a578063f6f415cb1461053a578063f769019c1461055a578063f87ca9f71461057057600080fd5b8063dbc3d9e5146104c4578063e9a9f68a146104da578063f0ba8440146104fa57600080fd5b8063a87d942c116100c6578063a87d942c14610442578063b4be506e14610457578063c62cabd214610477578063db3f1220146104a457600080fd5b806397ddbd5c146103d55780639e9c2d4214610402578063a6e345101461042257600080fd5b806356c93073116101595780637bed748a116101335780637bed748a146103485780637ddfe1781461035d5780638770d6a31461037d5780638da5cb5b146103aa57600080fd5b806356c93073146102e6578063574c3e8414610313578063715018a61461033357600080fd5b80632d857e98116101955780632d857e981461023157806334451f22146102515780633b9acce1146102a3578063514e0989146102d057600080fd5b806302158bc6146101bc57806311564b86146101fc5780632977f0ba14610211575b600080fd5b3480156101c857600080fd5b506101e96101d73660046115a0565b60046020526000908152604090205481565b6040519081526020015b60405180910390f35b61020f61020a3660046115f3565b610590565b005b34801561021d57600080fd5b5061020f61022c366004611717565b6108c6565b34801561023d57600080fd5b5061020f61024c3660046115a0565b6108d3565b34801561025d57600080fd5b5060085461027e9073ffffffffffffffffffffffffffffffffffffffff1681565b60405173ffffffffffffffffffffffffffffffffffffffff90911681526020016101f3565b3480156102af57600080fd5b50600a5461027e9073ffffffffffffffffffffffffffffffffffffffff1681565b3480156102dc57600080fd5b506101e960055481565b3480156102f257600080fd5b506101e96103013660046115a0565b60036020526000908152604090205481565b34801561031f57600080fd5b5061020f61032e366004611730565b610922565b34801561033f57600080fd5b5061020f610953565b34801561035457600080fd5b506101e9610967565b34801561036957600080fd5b5061020f610378366004611730565b6109b9565b34801561038957600080fd5b5060095461027e9073ffffffffffffffffffffffffffffffffffffffff1681565b3480156103b657600080fd5b5060005473ffffffffffffffffffffffffffffffffffffffff1661027e565b3480156103e157600080fd5b506103f56103f03660046115a0565b610a7c565b6040516101f3919061175c565b34801561040e57600080fd5b506101e961041d3660046115a0565b610d49565b34801561042e57600080fd5b5061020f61043d366004611717565b610dc7565b34801561044e57600080fd5b506001546101e9565b34801561046357600080fd5b506103f56104723660046115a0565b610e66565b34801561048357600080fd5b506101e96104923660046115a0565b60026020526000908152604090205481565b3480156104b057600080fd5b5061020f6104bf3660046115a0565b611056565b3480156104d057600080fd5b506101e960075481565b3480156104e657600080fd5b5061020f6104f5366004611730565b6110a5565b34801561050657600080fd5b5061027e610515366004611717565b611168565b34801561052657600080fd5b5061020f6105353660046115a0565b61119f565b34801561054657600080fd5b5061020f610555366004611717565b611256565b34801561056657600080fd5b506101e960065481565b34801561057c57600080fd5b5061020f61058b3660046115a0565b6112f5565b336000908152600260205260409020541561074f5733600090815260026020526040902054341015610649576040517f08c379a000000000000000000000000000000000000000000000000000000000815260206004820152602660248201527f596f75206e65656420746f2070726f7669646520746865206465706c6f796d6560448201527f6e7420666565000000000000000000000000000000000000000000000000000060648201526084015b60405180910390fd5b610651611344565b600061065b61138a565b90506000610667610967565b9050600073__$e7afaab436e08fd88a264d583599531b70$__63a3c362398b8b8b8b8b8b8a8a600960009054906101000a900473ffffffffffffffffffffffffffffffffffffffff16600a60009054906101000a900473ffffffffffffffffffffffffffffffffffffffff168f6040518c63ffffffff1660e01b81526004016106fa9b9a999897969594939291906117b6565b602060405180830381865af4158015610717573d6000803e3d6000fd5b505050506040513d601f19601f8201168201806040525081019061073b919061189b565b9050610746816113b3565b505050506108bd565b6005543410156107bb576040517f08c379a000000000000000000000000000000000000000000000000000000000815260206004820152601f60248201527f4465706c6f796d656e742066656520776173206e6f742070726f7669646564006044820152606401610640565b6107c3611344565b60006107cd61138a565b905060006107d9610967565b9050600073__$e7afaab436e08fd88a264d583599531b70$__63a3c362398b8b8b8b8b8b8a8a600960009054906101000a900473ffffffffffffffffffffffffffffffffffffffff16600a60009054906101000a900473ffffffffffffffffffffffffffffffffffffffff168f6040518c63ffffffff1660e01b815260040161086c9b9a999897969594939291906117b6565b602060405180830381865af4158015610889573d6000803e3d6000fd5b505050506040513d601f19601f820116820180604052508101906108ad919061189b565b90506108b8816113b3565b505050505b50505050505050565b6108ce611488565b600555565b6108db611488565b600a80547fffffffffffffffffffffffff00000000000000000000000000000000000000001673ffffffffffffffffffffffffffffffffffffffff92909216919091179055565b61092a611488565b73ffffffffffffffffffffffffffffffffffffffff909116600090815260026020526040902055565b61095b611488565b6109656000611509565b565b336000908152600460205260408120548190156109b15760046000335b73ffffffffffffffffffffffffffffffffffffffff16815260208101919091526040016000205492915050565b505060075490565b6109c1611488565b612710811115610a53576040517f08c379a000000000000000000000000000000000000000000000000000000000815260206004820152602360248201527f546f6b656e206665652073686f756c64206265206c6f776572207468616e203160448201527f30302500000000000000000000000000000000000000000000000000000000006064820152608401610640565b73ffffffffffffffffffffffffffffffffffffffff909116600090815260036020526040902055565b6060610a86611488565b60005b600154811015610cd9578273ffffffffffffffffffffffffffffffffffffffff1660018281548110610abd57610abd6118b8565b60009182526020909120015473ffffffffffffffffffffffffffffffffffffffff161415610cc7577f6621d567d44a618275066b55f8a00757c0b69c28aa30a30522dc0b67b74f43b160018281548110610b1957610b196118b8565b6000918252602091829020015460405173ffffffffffffffffffffffffffffffffffffffff90911681520160405180910390a160018181548110610b5f57610b5f6118b8565b600091825260209091200180547fffffffffffffffffffffffff0000000000000000000000000000000000000000169055805b60018054610ba09190611916565b811015610c5c576001610bb3838261192d565b81548110610bc357610bc36118b8565b6000918252602090912001546001805473ffffffffffffffffffffffffffffffffffffffff9092169183908110610bfc57610bfc6118b8565b600091825260209091200180547fffffffffffffffffffffffff00000000000000000000000000000000000000001673ffffffffffffffffffffffffffffffffffffffff9290921691909117905580610c5481611945565b915050610b92565b506001805480610c6e57610c6e61197e565b60008281526020902081017fffffffffffffffffffffffffffffffffffffffffffffffffffffffffffffffff90810180547fffffffffffffffffffffffff00000000000000000000000000000000000000001690550190555b80610cd181611945565b915050610a89565b506001805480602002602001604051908101604052809291908181526020018280548015610d3d57602002820191906000526020600020905b815473ffffffffffffffffffffffffffffffffffffffff168152600190910190602001808311610d12575b50505050509050919050565b6000805b600154811015610dc1578273ffffffffffffffffffffffffffffffffffffffff1660018281548110610d8157610d816118b8565b60009182526020909120015473ffffffffffffffffffffffffffffffffffffffff161415610daf5792915050565b80610db981611945565b915050610d4d565b50919050565b610dcf611488565b612710811115610e61576040517f08c379a000000000000000000000000000000000000000000000000000000000815260206004820152602360248201527f546f6b656e206665652073686f756c64206265206c6f776572207468616e203160448201527f30302500000000000000000000000000000000000000000000000000000000006064820152608401610640565b600655565b6060610e70611488565b60005b600154811015610f43578273ffffffffffffffffffffffffffffffffffffffff1660018281548110610ea757610ea76118b8565b60009182526020909120015473ffffffffffffffffffffffffffffffffffffffff161415610f31576040517f08c379a000000000000000000000000000000000000000000000000000000000815260206004820152601760248201527f6164647265737320616c72656164792070726573656e740000000000000000006044820152606401610640565b80610f3b81611945565b915050610e73565b506001805480820182556000919091527fb10e2d527612073b26eecdfd717e6a320cf44b4afac2b0732d9fcbe2b7fa0cf60180547fffffffffffffffffffffffff00000000000000000000000000000000000000001673ffffffffffffffffffffffffffffffffffffffff84169081179091556040519081527f119545c6b18ffc48d6bdc36794ae7c32b6b4031c6cb72d84f9a1d429a7c570449060200160405180910390a16001805480602002602001604051908101604052809291908181526020018280548015610d3d5760200282019190600052602060002090815473ffffffffffffffffffffffffffffffffffffffff168152600190910190602001808311610d125750505050509050919050565b61105e611488565b600980547fffffffffffffffffffffffff00000000000000000000000000000000000000001673ffffffffffffffffffffffffffffffffffffffff92909216919091179055565b6110ad611488565b61271081111561113f576040517f08c379a000000000000000000000000000000000000000000000000000000000815260206004820152602360248201527f546f6b656e206665652073686f756c64206265206c6f776572207468616e203160448201527f30302500000000000000000000000000000000000000000000000000000000006064820152608401610640565b73ffffffffffffffffffffffffffffffffffffffff909116600090815260046020526040902055565b6001818154811061117857600080fd5b60009182526020909120015473ffffffffffffffffffffffffffffffffffffffff16905081565b6111a7611488565b73ffffffffffffffffffffffffffffffffffffffff811661124a576040517f08c379a000000000000000000000000000000000000000000000000000000000815260206004820152602660248201527f4f776e61626c653a206e6577206f776e657220697320746865207a65726f206160448201527f64647265737300000000000000000000000000000000000000000000000000006064820152608401610640565b61125381611509565b50565b61125e611488565b6127108111156112f0576040517f08c379a000000000000000000000000000000000000000000000000000000000815260206004820152602360248201527f546f6b656e206665652073686f756c64206265206c6f776572207468616e203160448201527f30302500000000000000000000000000000000000000000000000000000000006064820152608401610640565b600755565b6112fd611488565b600880547fffffffffffffffffffffffff00000000000000000000000000000000000000001673ffffffffffffffffffffffffffffffffffffffff92909216919091179055565b60085460405173ffffffffffffffffffffffffffffffffffffffff909116903480156108fc02916000818181858888f19350505050158015611253573d6000803e3d6000fd5b336000908152600360205260408120548190156113ab576003600033610984565b505060065490565b606060005b600154811015610f43578273ffffffffffffffffffffffffffffffffffffffff16600182815481106113ec576113ec6118b8565b60009182526020909120015473ffffffffffffffffffffffffffffffffffffffff161415611476576040517f08c379a000000000000000000000000000000000000000000000000000000000815260206004820152601760248201527f6164647265737320616c72656164792070726573656e740000000000000000006044820152606401610640565b8061148081611945565b9150506113b8565b60005473ffffffffffffffffffffffffffffffffffffffff163314610965576040517f08c379a000000000000000000000000000000000000000000000000000000000815260206004820181905260248201527f4f776e61626c653a2063616c6c6572206973206e6f7420746865206f776e65726044820152606401610640565b6000805473ffffffffffffffffffffffffffffffffffffffff8381167fffffffffffffffffffffffff0000000000000000000000000000000000000000831681178455604051919092169283917f8be0079c531659141344cd1fd0a4f28419497f9722a3daafe3b4186f6b6457e09190a35050565b73ffffffffffffffffffffffffffffffffffffffff8116811461125357600080fd5b6000602082840312156115b257600080fd5b81356115bd8161157e565b9392505050565b7f4e487b7100000000000000000000000000000000000000000000000000000000600052604160045260246000fd5b600080600080600080600060e0888a03121561160e57600080fd5b8735965060208801356116208161157e565b955060408801356116308161157e565b945060608801356116408161157e565b93506080880135925060a0880135915060c088013567ffffffffffffffff8082111561166b57600080fd5b818a0191508a601f83011261167f57600080fd5b813581811115611691576116916115c4565b604051601f82017fffffffffffffffffffffffffffffffffffffffffffffffffffffffffffffffe0908116603f011681019083821181831017156116d7576116d76115c4565b816040528281528d60208487010111156116f057600080fd5b82602086016020830137600060208483010152809550505050505092959891949750929550565b60006020828403121561172957600080fd5b5035919050565b6000806040838503121561174357600080fd5b823561174e8161157e565b946020939093013593505050565b6020808252825182820181905260009190848201906040850190845b818110156117aa57835173ffffffffffffffffffffffffffffffffffffffff1683529284019291840191600101611778565b50909695505050505050565b60006101608d8352602073ffffffffffffffffffffffffffffffffffffffff808f1682860152808e166040860152808d1660608601528b60808601528a60a08601528960c08601528860e0860152808816610100860152808716610120860152508161014085015284518083860152600092505b808310156118495785830182015185840161018001529181019161182a565b8083111561185c57600061018082870101525b601f017fffffffffffffffffffffffffffffffffffffffffffffffffffffffffffffffe01693909301610180019e9d5050505050505050505050505050565b6000602082840312156118ad57600080fd5b81516115bd8161157e565b7f4e487b7100000000000000000000000000000000000000000000000000000000600052603260045260246000fd5b7f4e487b7100000000000000000000000000000000000000000000000000000000600052601160045260246000fd5b600082821015611928576119286118e7565b500390565b60008219821115611940576119406118e7565b500190565b60007fffffffffffffffffffffffffffffffffffffffffffffffffffffffffffffffff821415611977576119776118e7565b5060010190565b7f4e487b7100000000000000000000000000000000000000000000000000000000600052603160045260246000fdfea2646970667358221220f17e944c984a0d61c5f77509db2690adb98f961154504c8ce97ec1b9d362b62264736f6c634300080a0033",
  "linkReferences": {
    "contracts/SeedFactory.sol": {
      "SeedDeployer": [
        {
          "length": 20,
          "start": 1815
        },
        {
          "length": 20,
          "start": 2185
        }
      ]
    }
  },
  "deployedLinkReferences": {
    "contracts/SeedFactory.sol": {
      "SeedDeployer": [
        {
          "length": 20,
          "start": 1645
        },
        {
          "length": 20,
          "start": 2015
        }
      ]
    }
  }
}