{
  "contractName": "PreSale1",
  "abi": [
    {
      "constant": true,
      "inputs": [],
      "name": "rate",
      "outputs": [
        {
          "internalType": "uint256",
          "name": "",
          "type": "uint256"
        }
      ],
      "payable": false,
      "stateMutability": "view",
      "type": "function"
    },
    {
      "constant": true,
      "inputs": [],
      "name": "weiRaised",
      "outputs": [
        {
          "internalType": "uint256",
          "name": "",
          "type": "uint256"
        }
      ],
      "payable": false,
      "stateMutability": "view",
      "type": "function"
    },
    {
      "constant": true,
      "inputs": [],
      "name": "wallet",
      "outputs": [
        {
          "internalType": "address payable",
          "name": "",
          "type": "address"
        }
      ],
      "payable": false,
      "stateMutability": "view",
      "type": "function"
    },
    {
      "constant": false,
      "inputs": [
        {
          "internalType": "address",
          "name": "beneficiary",
          "type": "address"
        }
      ],
      "name": "buyTokens",
      "outputs": [],
      "payable": true,
      "stateMutability": "payable",
      "type": "function"
    },
    {
      "constant": true,
      "inputs": [],
      "name": "token",
      "outputs": [
        {
          "internalType": "contract IERC20",
          "name": "",
          "type": "address"
        }
      ],
      "payable": false,
      "stateMutability": "view",
      "type": "function"
    },
    {
      "inputs": [
        {
          "internalType": "uint256",
          "name": "rate",
          "type": "uint256"
        },
        {
          "internalType": "address payable",
          "name": "wallet",
          "type": "address"
        },
        {
          "internalType": "contract IERC20",
          "name": "token",
          "type": "address"
        }
      ],
      "payable": false,
      "stateMutability": "nonpayable",
      "type": "constructor"
    },
    {
      "payable": true,
      "stateMutability": "payable",
      "type": "fallback"
    },
    {
      "anonymous": false,
      "inputs": [
        {
          "indexed": true,
          "internalType": "address",
          "name": "purchaser",
          "type": "address"
        },
        {
          "indexed": true,
          "internalType": "address",
          "name": "beneficiary",
          "type": "address"
        },
        {
          "indexed": false,
          "internalType": "uint256",
          "name": "value",
          "type": "uint256"
        },
        {
          "indexed": false,
          "internalType": "uint256",
          "name": "amount",
          "type": "uint256"
        }
      ],
      "name": "TokensPurchased",
      "type": "event"
    },
    {
      "constant": true,
      "inputs": [
        {
          "internalType": "address",
          "name": "beneficiary",
          "type": "address"
        }
      ],
      "name": "getContribution",
      "outputs": [
        {
          "internalType": "uint256",
          "name": "",
          "type": "uint256"
        }
      ],
      "payable": false,
      "stateMutability": "view",
      "type": "function"
    }
  ],
  "bytecode": "0x608060405234801561001057600080fd5b50604051610fdf380380610fdf8339818101604052606081101561003357600080fd5b8101908080519060200190929190805190602001909291908051906020019092919050505082828260016000806101000a81548160ff021916908315150217905550600083116100eb576040517f08c379a00000000000000000000000000000000000000000000000000000000081526004018080602001828103825260148152602001807f43726f776473616c653a2072617465206973203000000000000000000000000081525060200191505060405180910390fd5b600073ffffffffffffffffffffffffffffffffffffffff168273ffffffffffffffffffffffffffffffffffffffff161415610171576040517f08c379a0000000000000000000000000000000000000000000000000000000008152600401808060200182810382526025815260200180610fba6025913960400191505060405180910390fd5b600073ffffffffffffffffffffffffffffffffffffffff168173ffffffffffffffffffffffffffffffffffffffff1614156101f7576040517f08c379a0000000000000000000000000000000000000000000000000000000008152600401808060200182810382526024815260200180610f966024913960400191505060405180910390fd5b8260028190555081600160006101000a81548173ffffffffffffffffffffffffffffffffffffffff021916908373ffffffffffffffffffffffffffffffffffffffff16021790555080600060016101000a81548173ffffffffffffffffffffffffffffffffffffffff021916908373ffffffffffffffffffffffffffffffffffffffff160217905550505050505050610d01806102956000396000f3fe6080604052600436106100555760003560e01c806321eff7fc146100675780632c4e722e146100cc5780634042b66f146100f7578063521eb27314610122578063ec8ac4d814610179578063fc0c546a146101bd575b610065610060610214565b61021c565b005b34801561007357600080fd5b506100b66004803603602081101561008a57600080fd5b81019080803573ffffffffffffffffffffffffffffffffffffffff1690602001909291905050506103a7565b6040518082815260200191505060405180910390f35b3480156100d857600080fd5b506100e16103f0565b6040518082815260200191505060405180910390f35b34801561010357600080fd5b5061010c6103fa565b6040518082815260200191505060405180910390f35b34801561012e57600080fd5b50610137610404565b604051808273ffffffffffffffffffffffffffffffffffffffff1673ffffffffffffffffffffffffffffffffffffffff16815260200191505060405180910390f35b6101bb6004803603602081101561018f57600080fd5b81019080803573ffffffffffffffffffffffffffffffffffffffff16906020019092919050505061021c565b005b3480156101c957600080fd5b506101d261042e565b604051808273ffffffffffffffffffffffffffffffffffffffff1673ffffffffffffffffffffffffffffffffffffffff16815260200191505060405180910390f35b600033905090565b6000809054906101000a900460ff1661029d576040517f08c379a000000000000000000000000000000000000000000000000000000000815260040180806020018281038252601f8152602001807f5265656e7472616e637947756172643a207265656e7472616e742063616c6c0081525060200191505060405180910390fd5b60008060006101000a81548160ff02191690831515021790555060003490506102c68282610457565b60006102d182610517565b90506102e88260035461053590919063ffffffff16565b6003819055506102f883826105bd565b8273ffffffffffffffffffffffffffffffffffffffff16610317610214565b73ffffffffffffffffffffffffffffffffffffffff167f6faf93231a456e552dbc9961f58d9713ee4f2e69d15f1975b050ef0911053a7b8484604051808381526020018281526020019250505060405180910390a361037683836105cb565b61037e61066e565b61038883836106d9565b505060016000806101000a81548160ff02191690831515021790555050565b6000600460008373ffffffffffffffffffffffffffffffffffffffff1673ffffffffffffffffffffffffffffffffffffffff168152602001908152602001600020549050919050565b6000600254905090565b6000600354905090565b6000600160009054906101000a900473ffffffffffffffffffffffffffffffffffffffff16905090565b60008060019054906101000a900473ffffffffffffffffffffffffffffffffffffffff16905090565b61046182826106dd565b674563918244f400006104bc82600460008673ffffffffffffffffffffffffffffffffffffffff1673ffffffffffffffffffffffffffffffffffffffff1681526020019081526020016000205461053590919063ffffffff16565b1115610513576040517f08c379a0000000000000000000000000000000000000000000000000000000008152600401808060200182810382526037815260200180610c6c6037913960400191505060405180910390fd5b5050565b600061052e600254836107de90919063ffffffff16565b9050919050565b6000808284019050838110156105b3576040517f08c379a000000000000000000000000000000000000000000000000000000000815260040180806020018281038252601b8152602001807f536166654d6174683a206164646974696f6e206f766572666c6f77000000000081525060200191505060405180910390fd5b8091505092915050565b6105c78282610864565b5050565b6105d582826108b5565b61062781600460008573ffffffffffffffffffffffffffffffffffffffff1673ffffffffffffffffffffffffffffffffffffffff1681526020019081526020016000205461053590919063ffffffff16565b600460008473ffffffffffffffffffffffffffffffffffffffff1673ffffffffffffffffffffffffffffffffffffffff168152602001908152602001600020819055505050565b600160009054906101000a900473ffffffffffffffffffffffffffffffffffffffff1673ffffffffffffffffffffffffffffffffffffffff166108fc349081150290604051600060405180830381858888f193505050501580156106d6573d6000803e3d6000fd5b50565b5050565b600073ffffffffffffffffffffffffffffffffffffffff168273ffffffffffffffffffffffffffffffffffffffff161415610763576040517f08c379a000000000000000000000000000000000000000000000000000000000815260040180806020018281038252602a815260200180610c42602a913960400191505060405180910390fd5b60008114156107da576040517f08c379a00000000000000000000000000000000000000000000000000000000081526004018080602001828103825260198152602001807f43726f776473616c653a20776569416d6f756e7420697320300000000000000081525060200191505060405180910390fd5b5050565b6000808314156107f1576000905061085e565b600082840290508284828161080257fe5b0414610859576040517f08c379a0000000000000000000000000000000000000000000000000000000008152600401808060200182810382526021815260200180610c216021913960400191505060405180910390fd5b809150505b92915050565b6108b18282600060019054906101000a900473ffffffffffffffffffffffffffffffffffffffff1673ffffffffffffffffffffffffffffffffffffffff166108b99092919063ffffffff16565b5050565b5050565b610985838473ffffffffffffffffffffffffffffffffffffffff1663a9059cbb905060e01b8484604051602401808373ffffffffffffffffffffffffffffffffffffffff1673ffffffffffffffffffffffffffffffffffffffff16815260200182815260200192505050604051602081830303815290604052907bffffffffffffffffffffffffffffffffffffffffffffffffffffffff19166020820180517bffffffffffffffffffffffffffffffffffffffffffffffffffffffff838183161783525050505061098a565b505050565b6109a98273ffffffffffffffffffffffffffffffffffffffff16610bd5565b610a1b576040517f08c379a000000000000000000000000000000000000000000000000000000000815260040180806020018281038252601f8152602001807f5361666545524332303a2063616c6c20746f206e6f6e2d636f6e74726163740081525060200191505060405180910390fd5b600060608373ffffffffffffffffffffffffffffffffffffffff16836040518082805190602001908083835b60208310610a6a5780518252602082019150602081019050602083039250610a47565b6001836020036101000a0380198251168184511680821785525050505050509050019150506000604051808303816000865af19150503d8060008114610acc576040519150601f19603f3d011682016040523d82523d6000602084013e610ad1565b606091505b509150915081610b49576040517f08c379a00000000000000000000000000000000000000000000000000000000081526004018080602001828103825260208152602001807f5361666545524332303a206c6f772d6c6576656c2063616c6c206661696c656481525060200191505060405180910390fd5b600081511115610bcf57808060200190516020811015610b6857600080fd5b8101908080519060200190929190505050610bce576040517f08c379a000000000000000000000000000000000000000000000000000000000815260040180806020018281038252602a815260200180610ca3602a913960400191505060405180910390fd5b5b50505050565b60008060007fc5d2460186f7233c927e7db2dcc703c0e500b653ca82273b7bfad8045d85a47060001b9050833f9150808214158015610c1757506000801b8214155b9250505091905056fe536166654d6174683a206d756c7469706c69636174696f6e206f766572666c6f7743726f776473616c653a2062656e656669636961727920697320746865207a65726f2061646472657373496e646976696475616c6c7943617070656443726f776473616c653a2062656e65666963696172792773206361702065786365656465645361666545524332303a204552433230206f7065726174696f6e20646964206e6f742073756363656564a265627a7a72315820a2b69991c1bf541a1febd33924f50eec89a183e9cb1dddbb0b1f078fb2f66d9a64736f6c634300050b003243726f776473616c653a20746f6b656e20697320746865207a65726f206164647265737343726f776473616c653a2077616c6c657420697320746865207a65726f2061646472657373",
  "source": "pragma solidity ^0.5.11;\nimport \"@openzeppelin/contracts/math/SafeMath.sol\";\nimport \"@openzeppelin/contracts/crowdsale/Crowdsale.sol\";\n\ncontract PreSale1 is Crowdsale {\n    using SafeMath for uint256;\n    mapping(address => uint256) private _contributions;\n\n    constructor(\n        uint256 rate,\n        address payable wallet,\n        IERC20 token\n    ) public Crowdsale(rate, wallet, token) {}\n    \n     function getContribution(address beneficiary) public view returns (uint256) {\n        return _contributions[beneficiary];\n    }\n\n    function _preValidatePurchase(address beneficiary, uint256 weiAmount) internal view {\n        super._preValidatePurchase(beneficiary, weiAmount);\n        require(_contributions[beneficiary].add(weiAmount) <= 5000000000000000000, \"IndividuallyCappedCrowdsale: beneficiary's cap exceeded\");\n        //require(weiAmount <= 5000000000000000000);\n        // solhint-disable-next-line max-line-length\n        //require(_contributions[beneficiary].add(weiAmount) <= _caps[beneficiary], \"IndividuallyCappedCrowdsale: beneficiary's cap exceeded\");\n    }\n\n     function _updatePurchasingState(address beneficiary, uint256 weiAmount) internal {\n        super._updatePurchasingState(beneficiary, weiAmount);\n        _contributions[beneficiary] = _contributions[beneficiary].add(weiAmount);\n    }\n\n}\n",
  "sourcePath": "/Users/jdoe/Documents/Projects/ERC20/contracts/PreSale1.sol",
  "compiler": {
    "name": "solc",
    "version": "0.5.11+commit.c082d0b4.Emscripten.clang"
  },
  "schemaVersion": "3.3.4",
  "updatedAt": "2021-04-03T14:27:03.439Z",
  "networkType": "ethereum",
  "devdoc": {
    "methods": {
      "buyTokens(address)": {
        "details": "low level token purchase ***DO NOT OVERRIDE*** This function has a non-reentrancy guard, so it shouldn't be called by another `nonReentrant` function.",
        "params": {
          "beneficiary": "Recipient of the token purchase"
        }
      },
      "rate()": {
        "return": "the number of token units a buyer gets per wei."
      },
      "token()": {
        "return": "the token being sold."
      },
      "wallet()": {
        "return": "the address where funds are collected."
      },
      "weiRaised()": {
        "return": "the amount of wei raised."
      }
    }
  },
  "userdoc": {
    "methods": {}
  }
}