{
  "_format": "hh-sol-artifact-1",
  "contractName": "SeedFactory",
  "sourceName": "contracts/SeedFactory.sol",
  "abi": [
    {
      "inputs": [],
      "stateMutability": "nonpayable",
      "type": "constructor"
    },
    {
      "anonymous": false,
      "inputs": [
        {
          "indexed": false,
          "internalType": "address",
          "name": "newAddress",
          "type": "address"
        }
      ],
      "name": "AddedNewRewardAddress",
      "type": "event"
    },
    {
      "anonymous": false,
      "inputs": [
        {
          "indexed": false,
          "internalType": "address",
          "name": "oldAddress",
          "type": "address"
        }
      ],
      "name": "DeletedRewardAddress",
      "type": "event"
    },
    {
      "anonymous": false,
      "inputs": [
        {
          "indexed": true,
          "internalType": "address",
          "name": "previousOwner",
          "type": "address"
        },
        {
          "indexed": true,
          "internalType": "address",
          "name": "newOwner",
          "type": "address"
        }
      ],
      "name": "OwnershipTransferred",
      "type": "event"
    },
    {
      "inputs": [
        {
          "internalType": "address",
          "name": "newAddress",
          "type": "address"
        }
      ],
      "name": "addRewardAddress",
      "outputs": [
        {
          "internalType": "address[]",
          "name": "",
          "type": "address[]"
        }
      ],
      "stateMutability": "nonpayable",
      "type": "function"
    },
    {
      "inputs": [],
      "name": "calculateRaisingFee",
      "outputs": [
        {
          "internalType": "uint256",
          "name": "",
          "type": "uint256"
        }
      ],
      "stateMutability": "view",
      "type": "function"
    },
    {
      "inputs": [
        {
          "internalType": "uint256",
          "name": "",
          "type": "uint256"
        }
      ],
      "name": "data",
      "outputs": [
        {
          "internalType": "address",
          "name": "",
          "type": "address"
        }
      ],
      "stateMutability": "view",
      "type": "function"
    },
    {
      "inputs": [
        {
          "internalType": "address",
          "name": "oldAddress",
          "type": "address"
        }
      ],
      "name": "deleteRewardAddress",
      "outputs": [
        {
          "internalType": "address[]",
          "name": "",
          "type": "address[]"
        }
      ],
      "stateMutability": "nonpayable",
      "type": "function"
    },
    {
      "inputs": [
        {
          "internalType": "uint256",
          "name": "_rate",
          "type": "uint256"
        },
        {
          "internalType": "address payable",
          "name": "_wallet",
          "type": "address"
        },
        {
          "internalType": "contract IERC20",
          "name": "_emittedToken",
          "type": "address"
        },
        {
          "internalType": "contract IERC20",
          "name": "_acceptedToken",
          "type": "address"
        },
        {
          "internalType": "uint256",
          "name": "_startTime",
          "type": "uint256"
        },
        {
          "internalType": "uint256",
          "name": "_endTime",
          "type": "uint256"
        },
        {
          "internalType": "string",
          "name": "_name",
          "type": "string"
        }
      ],
      "name": "deployNewSeed",
      "outputs": [],
      "stateMutability": "payable",
      "type": "function"
    },
    {
      "inputs": [
        {
          "internalType": "address",
          "name": "",
          "type": "address"
        }
      ],
      "name": "deploymentFeeForAddress",
      "outputs": [
        {
          "internalType": "uint256",
          "name": "",
          "type": "uint256"
        }
      ],
      "stateMutability": "view",
      "type": "function"
    },
    {
      "inputs": [],
      "name": "deploymentFeeRecipient",
      "outputs": [
        {
          "internalType": "address payable",
          "name": "",
          "type": "address"
        }
      ],
      "stateMutability": "view",
      "type": "function"
    },
    {
      "inputs": [],
      "name": "getCount",
      "outputs": [
        {
          "internalType": "uint256",
          "name": "count",
          "type": "uint256"
        }
      ],
      "stateMutability": "view",
      "type": "function"
    },
    {
      "inputs": [],
      "name": "owner",
      "outputs": [
        {
          "internalType": "address",
          "name": "",
          "type": "address"
        }
      ],
      "stateMutability": "view",
      "type": "function"
    },
    {
      "inputs": [
        {
          "internalType": "address",
          "name": "",
          "type": "address"
        }
      ],
      "name": "raisingFeeForAddress",
      "outputs": [
        {
          "internalType": "uint256",
          "name": "",
          "type": "uint256"
        }
      ],
      "stateMutability": "view",
      "type": "function"
    },
    {
      "inputs": [],
      "name": "raisingFeeRecipient",
      "outputs": [
        {
          "internalType": "address payable",
          "name": "",
          "type": "address"
        }
      ],
      "stateMutability": "view",
      "type": "function"
    },
    {
      "inputs": [],
      "name": "renounceOwnership",
      "outputs": [],
      "stateMutability": "nonpayable",
      "type": "function"
    },
    {
      "inputs": [
        {
          "internalType": "address",
          "name": "_addr",
          "type": "address"
        }
      ],
      "name": "retrieveIndex",
      "outputs": [
        {
          "internalType": "uint256",
          "name": "",
          "type": "uint256"
        }
      ],
      "stateMutability": "view",
      "type": "function"
    },
    {
      "inputs": [
        {
          "internalType": "uint256",
          "name": "_newDeploymentFee",
          "type": "uint256"
        }
      ],
      "name": "setDefaultDeploymentFee",
      "outputs": [],
      "stateMutability": "nonpayable",
      "type": "function"
    },
    {
      "inputs": [
        {
          "internalType": "uint256",
          "name": "_newRaisingFee",
          "type": "uint256"
        }
      ],
      "name": "setDefaultRaisingFee",
      "outputs": [],
      "stateMutability": "nonpayable",
      "type": "function"
    },
    {
      "inputs": [
        {
          "internalType": "uint256",
          "name": "_newTokenFee",
          "type": "uint256"
        }
      ],
      "name": "setDefaultTokenFee",
      "outputs": [],
      "stateMutability": "nonpayable",
      "type": "function"
    },
    {
      "inputs": [
        {
          "internalType": "address",
          "name": "addr",
          "type": "address"
        },
        {
          "internalType": "uint256",
          "name": "_newDeploymentFee",
          "type": "uint256"
        }
      ],
      "name": "setDeploymentFeeForAddress",
      "outputs": [],
      "stateMutability": "nonpayable",
      "type": "function"
    },
    {
      "inputs": [
        {
          "internalType": "address payable",
          "name": "addr",
          "type": "address"
        }
      ],
      "name": "setDeploymentFeeRecipient",
      "outputs": [],
      "stateMutability": "nonpayable",
      "type": "function"
    },
    {
      "inputs": [
        {
          "internalType": "address",
          "name": "addr",
          "type": "address"
        },
        {
          "internalType": "uint256",
          "name": "_newRaisingFee",
          "type": "uint256"
        }
      ],
      "name": "setRaisingFeeForAddress",
      "outputs": [],
      "stateMutability": "nonpayable",
      "type": "function"
    },
    {
      "inputs": [
        {
          "internalType": "address payable",
          "name": "addr",
          "type": "address"
        }
      ],
      "name": "setRaisingFeeRecipient",
      "outputs": [],
      "stateMutability": "nonpayable",
      "type": "function"
    },
    {
      "inputs": [
        {
          "internalType": "address",
          "name": "addr",
          "type": "address"
        },
        {
          "internalType": "uint256",
          "name": "_newTokenFee",
          "type": "uint256"
        }
      ],
      "name": "setTokenFeeForAddress",
      "outputs": [],
      "stateMutability": "nonpayable",
      "type": "function"
    },
    {
      "inputs": [
        {
          "internalType": "address",
          "name": "addr",
          "type": "address"
        }
      ],
      "name": "setTokenFeeRecipient",
      "outputs": [],
      "stateMutability": "nonpayable",
      "type": "function"
    },
    {
      "inputs": [
        {
          "internalType": "address",
          "name": "",
          "type": "address"
        }
      ],
      "name": "tokenFeeForAddress",
      "outputs": [
        {
          "internalType": "uint256",
          "name": "",
          "type": "uint256"
        }
      ],
      "stateMutability": "view",
      "type": "function"
    },
    {
      "inputs": [],
      "name": "tokenFeeRecipient",
      "outputs": [
        {
          "internalType": "address",
          "name": "",
          "type": "address"
        }
      ],
      "stateMutability": "view",
      "type": "function"
    },
    {
      "inputs": [
        {
          "internalType": "address",
          "name": "newOwner",
          "type": "address"
        }
      ],
      "name": "transferOwnership",
      "outputs": [],
      "stateMutability": "nonpayable",
      "type": "function"
    }
  ],
  "bytecode": "0x608060405234801561001057600080fd5b5061001a3361004b565b60088054336001600160a01b0319918216811790925560098054821683179055600a8054909116909117905561009b565b600080546001600160a01b038381166001600160a01b0319831681178455604051919092169283917f8be0079c531659141344cd1fd0a4f28419497f9722a3daafe3b4186f6b6457e09190a35050565b6118b3806100aa6000396000f3fe6080604052600436106101965760003560e01c80638da5cb5b116100e1578063c62cabd21161008a578063f0ba844011610064578063f0ba8440146104ad578063f2fde38b146104cd578063f6f415cb146104ed578063f87ca9f71461050d57600080fd5b8063c62cabd214610440578063db3f12201461046d578063e9a9f68a1461048d57600080fd5b8063a6e34510116100bb578063a6e34510146103eb578063a87d942c1461040b578063b4be506e1461042057600080fd5b80638da5cb5b1461037357806397ddbd5c1461039e5780639e9c2d42146103cb57600080fd5b806356c93073116101435780637bed748a1161011d5780637bed748a146103115780637ddfe178146103265780638770d6a31461034657600080fd5b806356c93073146102af578063574c3e84146102dc578063715018a6146102fc57600080fd5b80632d857e98116101745780632d857e981461021057806334451f22146102305780633b9acce11461028257600080fd5b806302158bc61461019b57806311564b86146101db5780632977f0ba146101f0575b600080fd5b3480156101a757600080fd5b506101c86101b6366004611470565b60046020526000908152604090205481565b6040519081526020015b60405180910390f35b6101ee6101e93660046114c3565b61052d565b005b3480156101fc57600080fd5b506101ee61020b3660046115e7565b61086b565b34801561021c57600080fd5b506101ee61022b366004611470565b610878565b34801561023c57600080fd5b5060085461025d9073ffffffffffffffffffffffffffffffffffffffff1681565b60405173ffffffffffffffffffffffffffffffffffffffff90911681526020016101d2565b34801561028e57600080fd5b50600a5461025d9073ffffffffffffffffffffffffffffffffffffffff1681565b3480156102bb57600080fd5b506101c86102ca366004611470565b60036020526000908152604090205481565b3480156102e857600080fd5b506101ee6102f7366004611600565b6108c7565b34801561030857600080fd5b506101ee6108f8565b34801561031d57600080fd5b506101c861090c565b34801561033257600080fd5b506101ee610341366004611600565b61095e565b34801561035257600080fd5b5060095461025d9073ffffffffffffffffffffffffffffffffffffffff1681565b34801561037f57600080fd5b5060005473ffffffffffffffffffffffffffffffffffffffff1661025d565b3480156103aa57600080fd5b506103be6103b9366004611470565b610a21565b6040516101d2919061162c565b3480156103d757600080fd5b506101c86103e6366004611470565b610cee565b3480156103f757600080fd5b506101ee6104063660046115e7565b610d6c565b34801561041757600080fd5b506001546101c8565b34801561042c57600080fd5b506103be61043b366004611470565b610e0b565b34801561044c57600080fd5b506101c861045b366004611470565b60026020526000908152604090205481565b34801561047957600080fd5b506101ee610488366004611470565b610ffb565b34801561049957600080fd5b506101ee6104a8366004611600565b61104a565b3480156104b957600080fd5b5061025d6104c83660046115e7565b61110d565b3480156104d957600080fd5b506101ee6104e8366004611470565b611144565b3480156104f957600080fd5b506101ee6105083660046115e7565b6111fb565b34801561051957600080fd5b506101ee610528366004611470565b61129a565b6105356112e9565b33600090815260026020526040902054156106f457336000908152600260205260409020543410156105ee576040517f08c379a000000000000000000000000000000000000000000000000000000000815260206004820152602660248201527f596f75206e65656420746f2070726f7669646520746865206465706c6f796d6560448201527f6e7420666565000000000000000000000000000000000000000000000000000060648201526084015b60405180910390fd5b6105f661136a565b60006106006113b0565b9050600061060c61090c565b9050600073__$e7afaab436e08fd88a264d583599531b70$__63a3c362398b8b8b8b8b8b8a8a600960009054906101000a900473ffffffffffffffffffffffffffffffffffffffff16600a60009054906101000a900473ffffffffffffffffffffffffffffffffffffffff168f6040518c63ffffffff1660e01b815260040161069f9b9a99989796959493929190611686565b602060405180830381865af41580156106bc573d6000803e3d6000fd5b505050506040513d601f19601f820116820180604052508101906106e0919061176b565b90506106eb81610e0b565b50505050610862565b600554341015610760576040517f08c379a000000000000000000000000000000000000000000000000000000000815260206004820152601f60248201527f4465706c6f796d656e742066656520776173206e6f742070726f76696465640060448201526064016105e5565b61076861136a565b60006107726113b0565b9050600061077e61090c565b9050600073__$e7afaab436e08fd88a264d583599531b70$__63a3c362398b8b8b8b8b8b8a8a600960009054906101000a900473ffffffffffffffffffffffffffffffffffffffff16600a60009054906101000a900473ffffffffffffffffffffffffffffffffffffffff168f6040518c63ffffffff1660e01b81526004016108119b9a99989796959493929190611686565b602060405180830381865af415801561082e573d6000803e3d6000fd5b505050506040513d601f19601f82011682018060405250810190610852919061176b565b905061085d81610e0b565b505050505b50505050505050565b6108736112e9565b600555565b6108806112e9565b600a80547fffffffffffffffffffffffff00000000000000000000000000000000000000001673ffffffffffffffffffffffffffffffffffffffff92909216919091179055565b6108cf6112e9565b73ffffffffffffffffffffffffffffffffffffffff909116600090815260026020526040902055565b6109006112e9565b61090a60006113d9565b565b336000908152600460205260408120548190156109565760046000335b73ffffffffffffffffffffffffffffffffffffffff16815260208101919091526040016000205492915050565b505060075490565b6109666112e9565b6127108111156109f8576040517f08c379a000000000000000000000000000000000000000000000000000000000815260206004820152602360248201527f546f6b656e206665652073686f756c64206265206c6f776572207468616e203160448201527f303025000000000000000000000000000000000000000000000000000000000060648201526084016105e5565b73ffffffffffffffffffffffffffffffffffffffff909116600090815260036020526040902055565b6060610a2b6112e9565b60005b600154811015610c7e578273ffffffffffffffffffffffffffffffffffffffff1660018281548110610a6257610a62611788565b60009182526020909120015473ffffffffffffffffffffffffffffffffffffffff161415610c6c577f6621d567d44a618275066b55f8a00757c0b69c28aa30a30522dc0b67b74f43b160018281548110610abe57610abe611788565b6000918252602091829020015460405173ffffffffffffffffffffffffffffffffffffffff90911681520160405180910390a160018181548110610b0457610b04611788565b600091825260209091200180547fffffffffffffffffffffffff0000000000000000000000000000000000000000169055805b60018054610b4591906117e6565b811015610c01576001610b5883826117fd565b81548110610b6857610b68611788565b6000918252602090912001546001805473ffffffffffffffffffffffffffffffffffffffff9092169183908110610ba157610ba1611788565b600091825260209091200180547fffffffffffffffffffffffff00000000000000000000000000000000000000001673ffffffffffffffffffffffffffffffffffffffff9290921691909117905580610bf981611815565b915050610b37565b506001805480610c1357610c1361184e565b60008281526020902081017fffffffffffffffffffffffffffffffffffffffffffffffffffffffffffffffff90810180547fffffffffffffffffffffffff00000000000000000000000000000000000000001690550190555b80610c7681611815565b915050610a2e565b506001805480602002602001604051908101604052809291908181526020018280548015610ce257602002820191906000526020600020905b815473ffffffffffffffffffffffffffffffffffffffff168152600190910190602001808311610cb7575b50505050509050919050565b6000805b600154811015610d66578273ffffffffffffffffffffffffffffffffffffffff1660018281548110610d2657610d26611788565b60009182526020909120015473ffffffffffffffffffffffffffffffffffffffff161415610d545792915050565b80610d5e81611815565b915050610cf2565b50919050565b610d746112e9565b612710811115610e06576040517f08c379a000000000000000000000000000000000000000000000000000000000815260206004820152602360248201527f546f6b656e206665652073686f756c64206265206c6f776572207468616e203160448201527f303025000000000000000000000000000000000000000000000000000000000060648201526084016105e5565b600655565b6060610e156112e9565b60005b600154811015610ee8578273ffffffffffffffffffffffffffffffffffffffff1660018281548110610e4c57610e4c611788565b60009182526020909120015473ffffffffffffffffffffffffffffffffffffffff161415610ed6576040517f08c379a000000000000000000000000000000000000000000000000000000000815260206004820152601760248201527f6164647265737320616c72656164792070726573656e7400000000000000000060448201526064016105e5565b80610ee081611815565b915050610e18565b506001805480820182556000919091527fb10e2d527612073b26eecdfd717e6a320cf44b4afac2b0732d9fcbe2b7fa0cf60180547fffffffffffffffffffffffff00000000000000000000000000000000000000001673ffffffffffffffffffffffffffffffffffffffff84169081179091556040519081527f119545c6b18ffc48d6bdc36794ae7c32b6b4031c6cb72d84f9a1d429a7c570449060200160405180910390a16001805480602002602001604051908101604052809291908181526020018280548015610ce25760200282019190600052602060002090815473ffffffffffffffffffffffffffffffffffffffff168152600190910190602001808311610cb75750505050509050919050565b6110036112e9565b600980547fffffffffffffffffffffffff00000000000000000000000000000000000000001673ffffffffffffffffffffffffffffffffffffffff92909216919091179055565b6110526112e9565b6127108111156110e4576040517f08c379a000000000000000000000000000000000000000000000000000000000815260206004820152602360248201527f546f6b656e206665652073686f756c64206265206c6f776572207468616e203160448201527f303025000000000000000000000000000000000000000000000000000000000060648201526084016105e5565b73ffffffffffffffffffffffffffffffffffffffff909116600090815260046020526040902055565b6001818154811061111d57600080fd5b60009182526020909120015473ffffffffffffffffffffffffffffffffffffffff16905081565b61114c6112e9565b73ffffffffffffffffffffffffffffffffffffffff81166111ef576040517f08c379a000000000000000000000000000000000000000000000000000000000815260206004820152602660248201527f4f776e61626c653a206e6577206f776e657220697320746865207a65726f206160448201527f646472657373000000000000000000000000000000000000000000000000000060648201526084016105e5565b6111f8816113d9565b50565b6112036112e9565b612710811115611295576040517f08c379a000000000000000000000000000000000000000000000000000000000815260206004820152602360248201527f546f6b656e206665652073686f756c64206265206c6f776572207468616e203160448201527f303025000000000000000000000000000000000000000000000000000000000060648201526084016105e5565b600755565b6112a26112e9565b600880547fffffffffffffffffffffffff00000000000000000000000000000000000000001673ffffffffffffffffffffffffffffffffffffffff92909216919091179055565b60005473ffffffffffffffffffffffffffffffffffffffff16331461090a576040517f08c379a000000000000000000000000000000000000000000000000000000000815260206004820181905260248201527f4f776e61626c653a2063616c6c6572206973206e6f7420746865206f776e657260448201526064016105e5565b60085460405173ffffffffffffffffffffffffffffffffffffffff909116903480156108fc02916000818181858888f193505050501580156111f8573d6000803e3d6000fd5b336000908152600360205260408120548190156113d1576003600033610929565b505060065490565b6000805473ffffffffffffffffffffffffffffffffffffffff8381167fffffffffffffffffffffffff0000000000000000000000000000000000000000831681178455604051919092169283917f8be0079c531659141344cd1fd0a4f28419497f9722a3daafe3b4186f6b6457e09190a35050565b73ffffffffffffffffffffffffffffffffffffffff811681146111f857600080fd5b60006020828403121561148257600080fd5b813561148d8161144e565b9392505050565b7f4e487b7100000000000000000000000000000000000000000000000000000000600052604160045260246000fd5b600080600080600080600060e0888a0312156114de57600080fd5b8735965060208801356114f08161144e565b955060408801356115008161144e565b945060608801356115108161144e565b93506080880135925060a0880135915060c088013567ffffffffffffffff8082111561153b57600080fd5b818a0191508a601f83011261154f57600080fd5b81358181111561156157611561611494565b604051601f82017fffffffffffffffffffffffffffffffffffffffffffffffffffffffffffffffe0908116603f011681019083821181831017156115a7576115a7611494565b816040528281528d60208487010111156115c057600080fd5b82602086016020830137600060208483010152809550505050505092959891949750929550565b6000602082840312156115f957600080fd5b5035919050565b6000806040838503121561161357600080fd5b823561161e8161144e565b946020939093013593505050565b6020808252825182820181905260009190848201906040850190845b8181101561167a57835173ffffffffffffffffffffffffffffffffffffffff1683529284019291840191600101611648565b50909695505050505050565b60006101608d8352602073ffffffffffffffffffffffffffffffffffffffff808f1682860152808e166040860152808d1660608601528b60808601528a60a08601528960c08601528860e0860152808816610100860152808716610120860152508161014085015284518083860152600092505b80831015611719578583018201518584016101800152918101916116fa565b8083111561172c57600061018082870101525b601f017fffffffffffffffffffffffffffffffffffffffffffffffffffffffffffffffe01693909301610180019e9d5050505050505050505050505050565b60006020828403121561177d57600080fd5b815161148d8161144e565b7f4e487b7100000000000000000000000000000000000000000000000000000000600052603260045260246000fd5b7f4e487b7100000000000000000000000000000000000000000000000000000000600052601160045260246000fd5b6000828210156117f8576117f86117b7565b500390565b60008219821115611810576118106117b7565b500190565b60007fffffffffffffffffffffffffffffffffffffffffffffffffffffffffffffffff821415611847576118476117b7565b5060010190565b7f4e487b7100000000000000000000000000000000000000000000000000000000600052603160045260246000fdfea2646970667358221220c27f48ef1851daef1fb6703cea7db51ea79a20db3fd5868e8ed931e0b548b33064736f6c634300080a0033",
  "linkReferences": {
    "contracts/SeedFactory.sol": {
      "SeedDeployer": [
        {
          "length": 20,
          "start": 1724
        },
        {
          "length": 20,
          "start": 2094
        }
      ]
    }
  },
  "deployedLinkReferences": {
    "contracts/SeedFactory.sol": {
      "SeedDeployer": [
        {
          "length": 20,
          "start": 1554
        },
        {
          "length": 20,
          "start": 1924
        }
      ]
    }
  }
}